{"contracts/VotingSystem.sol":{"VotingSystemV1":{"abi":[{"anonymous":false,"inputs":[{"indexed":false,"internalType":"string","name":"name","type":"string"},{"indexed":true,"internalType":"address","name":"chairPerson","type":"address"},{"indexed":false,"internalType":"bool","name":"restricted","type":"bool"},{"indexed":false,"internalType":"uint256","name":"duration","type":"uint256"},{"indexed":false,"internalType":"uint256","name":"startingTime","type":"uint256"},{"indexed":false,"internalType":"uint256","name":"endingTime","type":"uint256"},{"indexed":false,"internalType":"uint256","name":"totalCampaignID","type":"uint256"}],"name":"StartCampaign","type":"event"},{"inputs":[{"internalType":"uint256","name":"","type":"uint256"}],"name":"CampaignByID","outputs":[{"internalType":"address","name":"chairPerson","type":"address"},{"internalType":"string","name":"campaignName","type":"string"},{"internalType":"bool","name":"isRestricted","type":"bool"},{"internalType":"uint256","name":"campaignDuration","type":"uint256"},{"internalType":"uint256","name":"startTime","type":"uint256"},{"internalType":"uint256","name":"endTime","type":"uint256"},{"internalType":"uint256","name":"totalVoters","type":"uint256"},{"internalType":"string","name":"winner","type":"string"},{"internalType":"bytes32","name":"winnerImageHash","type":"bytes32"}],"stateMutability":"view","type":"function"},{"inputs":[{"internalType":"uint256","name":"_campaignID","type":"uint256"},{"internalType":"string","name":"_optionName","type":"string"},{"internalType":"bytes32","name":"_imageHash","type":"bytes32"},{"internalType":"uint256","name":"_candidateID","type":"uint256"}],"name":"addVoteOptions","outputs":[],"stateMutability":"nonpayable","type":"function"},{"inputs":[{"internalType":"uint256","name":"_campaignID","type":"uint256"},{"internalType":"address","name":"_voter","type":"address"}],"name":"approveAddressToVote","outputs":[],"stateMutability":"nonpayable","type":"function"},{"inputs":[{"internalType":"uint256","name":"","type":"uint256"},{"internalType":"address","name":"","type":"address"}],"name":"approvedVoterToCampaignID","outputs":[{"internalType":"bool","name":"","type":"bool"}],"stateMutability":"view","type":"function"},{"inputs":[{"internalType":"uint256","name":"","type":"uint256"},{"internalType":"uint256","name":"","type":"uint256"}],"name":"candidateToCampaignID","outputs":[{"internalType":"string","name":"name","type":"string"},{"internalType":"uint256","name":"candidateID","type":"uint256"},{"internalType":"bytes32","name":"imageHash","type":"bytes32"},{"internalType":"uint256","name":"voteCount","type":"uint256"},{"internalType":"uint256","name":"currentPosition","type":"uint256"}],"stateMutability":"view","type":"function"},{"inputs":[{"internalType":"uint256","name":"_campaignID","type":"uint256"},{"internalType":"uint256","name":"_candidateID","type":"uint256"}],"name":"deleteCandidate","outputs":[],"stateMutability":"nonpayable","type":"function"},{"inputs":[{"internalType":"uint256","name":"_campaignID","type":"uint256"}],"name":"getCandidatesArrayLength","outputs":[{"internalType":"uint256","name":"","type":"uint256"}],"stateMutability":"view","type":"function"},{"inputs":[{"internalType":"uint256","name":"_campaignID","type":"uint256"}],"name":"getTotalVotersInCampaign","outputs":[{"internalType":"uint256","name":"totalVoters","type":"uint256"}],"stateMutability":"view","type":"function"},{"inputs":[{"internalType":"uint256","name":"_campaignID","type":"uint256"}],"name":"getWinnerOfCampaign","outputs":[{"internalType":"string","name":"_winner","type":"string"}],"stateMutability":"nonpayable","type":"function"},{"inputs":[{"internalType":"string","name":"_campaignName","type":"string"},{"internalType":"bool","name":"_isRestricted","type":"bool"},{"internalType":"uint256","name":"_campaignDuration","type":"uint256"},{"internalType":"uint256","name":"_startTime","type":"uint256"}],"name":"startCampaign","outputs":[{"internalType":"uint256","name":"_campaignID","type":"uint256"}],"stateMutability":"nonpayable","type":"function"},{"inputs":[],"name":"totalCampaignID","outputs":[{"internalType":"uint256","name":"","type":"uint256"}],"stateMutability":"view","type":"function"},{"inputs":[{"internalType":"uint256","name":"_campaignID","type":"uint256"},{"internalType":"uint256","name":"_candidateID","type":"uint256"}],"name":"vote","outputs":[{"internalType":"bool","name":"success","type":"bool"}],"stateMutability":"nonpayable","type":"function"},{"inputs":[{"internalType":"uint256","name":"","type":"uint256"},{"internalType":"address","name":"","type":"address"}],"name":"votedToCampaignID","outputs":[{"internalType":"bool","name":"","type":"bool"}],"stateMutability":"view","type":"function"},{"inputs":[{"internalType":"uint256","name":"","type":"uint256"}],"name":"voterToCampaignID","outputs":[{"internalType":"address","name":"voterAddress","type":"address"},{"internalType":"bool","name":"isAppoved","type":"bool"},{"internalType":"bool","name":"voted","type":"bool"}],"stateMutability":"view","type":"function"},{"inputs":[{"internalType":"uint256","name":"","type":"uint256"}],"name":"voters","outputs":[{"internalType":"address","name":"voterAddress","type":"address"},{"internalType":"bool","name":"isAppoved","type":"bool"},{"internalType":"bool","name":"voted","type":"bool"}],"stateMutability":"view","type":"function"}],"evm":{"bytecode":{"linkReferences":{},"object":"608060405234801561001057600080fd5b50612de5806100206000396000f3fe608060405234801561001057600080fd5b50600436106100f55760003560e01c8063a71a666b11610097578063d3f0b73f11610066578063d3f0b73f146102de578063da58c7d9146102fa578063ded2d4021461032c578063e9e90e7b1461035c576100f5565b8063a71a666b14610246578063b384abef14610276578063cf4a6060146102a6578063d231c162146102c2576100f5565b80633da90516116100d35780633da90516146101925780635ef1a1aa146101b05780636a4a4209146101e0578063713474ff14610214576100f5565b806310d91123146100fa5780632602600d146101325780632f9248a614610162575b600080fd5b610114600480360381019061010f919061192d565b61038c565b60405161012999989796959493929190611a6e565b60405180910390f35b61014c60048036038101906101479190611b35565b610517565b6040516101599190611b75565b60405180910390f35b61017c60048036038101906101779190611b35565b610546565b6040516101899190611b75565b60405180910390f35b61019a610575565b6040516101a79190611b90565b60405180910390f35b6101ca60048036038101906101c5919061192d565b61057b565b6040516101d79190611bab565b60405180910390f35b6101fa60048036038101906101f59190611bcd565b61081b565b60405161020b959493929190611c0d565b60405180910390f35b61022e6004803603810190610229919061192d565b6108f6565b60405161023d93929190611c67565b60405180910390f35b610260600480360381019061025b919061192d565b61095a565b60405161026d9190611b90565b60405180910390f35b610290600480360381019061028b9190611bcd565b610a1e565b60405161029d9190611b75565b60405180910390f35b6102c060048036038101906102bb9190611bcd565b610e2d565b005b6102dc60048036038101906102d79190611b35565b6110f3565b005b6102f860048036038101906102f39190611dff565b6113e1565b005b610314600480360381019061030f919061192d565b611536565b60405161032393929190611c67565b60405180910390f35b6103466004803603810190610341919061192d565b6115a6565b6040516103539190611b90565b60405180910390f35b61037660048036038101906103719190611eae565b6115cb565b6040516103839190611b90565b60405180910390f35b60016020528060005260406000206000915090508060000160009054906101000a900473ffffffffffffffffffffffffffffffffffffffff16908060010180546103d590611f60565b80601f016020809104026020016040519081016040528092919081815260200182805461040190611f60565b801561044e5780601f106104235761010080835404028352916020019161044e565b820191906000526020600020905b81548152906001019060200180831161043157829003601f168201915b5050505050908060020160009054906101000a900460ff169080600301549080600401549080600501549080600601549080600701805461048e90611f60565b80601f01602080910402602001604051908101604052809291908181526020018280546104ba90611f60565b80156105075780601f106104dc57610100808354040283529160200191610507565b820191906000526020600020905b8154815290600101906020018083116104ea57829003601f168201915b5050505050908060080154905089565b60046020528160005260406000206020528060005260406000206000915091509054906101000a900460ff1681565b60036020528160005260406000206020528060005260406000206000915091509054906101000a900460ff1681565b60005481565b6060600160008381526020019081526020016000206005015442116105d5576040517f08c379a00000000000000000000000000000000000000000000000000000000081526004016105cc90611fdd565b60405180910390fd5b6001600083815260200190815260200160002060040154421161062d576040517f08c379a000000000000000000000000000000000000000000000000000000000815260040161062490612049565b60405180910390fd5b600080600090505b6002600085815260200190815260200160002080549050811015610773578160026000868152602001908152602001600020828154811061067957610678612069565b5b9060005260206000209060050201600301541115610760576002600085815260200190815260200160002081815481106106b6576106b5612069565b5b90600052602060002090600502016003015491506002600085815260200190815260200160002081815481106106ef576106ee612069565b5b9060005260206000209060050201600001600160008681526020019081526020016000206007019081610722919061226f565b50600160026000868152602001908152602001600020828154811061074a57610749612069565b5b9060005260206000209060050201600401819055505b808061076b90612386565b915050610635565b5060016000848152602001908152602001600020600701805461079590611f60565b80601f01602080910402602001604051908101604052809291908181526020018280546107c190611f60565b801561080e5780601f106107e35761010080835404028352916020019161080e565b820191906000526020600020905b8154815290600101906020018083116107f157829003601f168201915b5050505050915050919050565b6002602052816000526040600020818154811061083757600080fd5b90600052602060002090600502016000915091505080600001805461085b90611f60565b80601f016020809104026020016040519081016040528092919081815260200182805461088790611f60565b80156108d45780601f106108a9576101008083540402835291602001916108d4565b820191906000526020600020905b8154815290600101906020018083116108b757829003601f168201915b5050505050908060010154908060020154908060030154908060040154905085565b60056020528060005260406000206000915090508060000160009054906101000a900473ffffffffffffffffffffffffffffffffffffffff16908060000160149054906101000a900460ff16908060000160159054906101000a900460ff16905083565b60008073ffffffffffffffffffffffffffffffffffffffff166001600084815260200190815260200160002060000160009054906101000a900473ffffffffffffffffffffffffffffffffffffffff1673ffffffffffffffffffffffffffffffffffffffff1603610a00576040517f08c379a00000000000000000000000000000000000000000000000000000000081526004016109f79061241a565b60405180910390fd5b60016000838152602001908152602001600020600601549050919050565b60008073ffffffffffffffffffffffffffffffffffffffff166001600085815260200190815260200160002060000160009054906101000a900473ffffffffffffffffffffffffffffffffffffffff1673ffffffffffffffffffffffffffffffffffffffff1603610ac4576040517f08c379a0000000000000000000000000000000000000000000000000000000008152600401610abb90612486565b60405180910390fd5b6001600084815260200190815260200160002060040154421015610b1d576040517f08c379a0000000000000000000000000000000000000000000000000000000008152600401610b14906124f2565b60405180910390fd5b6001600084815260200190815260200160002060050154421115610b76576040517f08c379a0000000000000000000000000000000000000000000000000000000008152600401610b6d9061255e565b60405180910390fd5b600015156004600085815260200190815260200160002060003373ffffffffffffffffffffffffffffffffffffffff1673ffffffffffffffffffffffffffffffffffffffff16815260200190815260200160002060009054906101000a900460ff16151514610c1a576040517f08c379a0000000000000000000000000000000000000000000000000000000008152600401610c11906125ca565b60405180910390fd5b600115156001600085815260200190815260200160002060020160009054906101000a900460ff16151503610cee57600115156003600085815260200190815260200160002060003373ffffffffffffffffffffffffffffffffffffffff1673ffffffffffffffffffffffffffffffffffffffff16815260200190815260200160002060009054906101000a900460ff16151514610ced576040517f08c379a0000000000000000000000000000000000000000000000000000000008152600401610ce49061265c565b60405180910390fd5b5b6000610cfa8484611837565b90508015610e2257600160026000868152602001908152602001600020600185610d24919061267c565b81548110610d3557610d34612069565b5b90600052602060002090600502016003016000828254610d5591906126b0565b9250508190555060018060008681526020019081526020016000206006016000828254610d8291906126b0565b9250508190555060016005600086815260200190815260200160002060000160156101000a81548160ff02191690831515021790555060016004600086815260200190815260200160002060003373ffffffffffffffffffffffffffffffffffffffff1673ffffffffffffffffffffffffffffffffffffffff16815260200190815260200160002060006101000a81548160ff0219169083151502179055505b600191505092915050565b6002600083815260200190815260200160002080549050600182610e51919061267c565b10610e91576040517f08c379a0000000000000000000000000000000000000000000000000000000008152600401610e8890612730565b60405180910390fd5b42600160008481526020019081526020016000206004015411610ee9576040517f08c379a0000000000000000000000000000000000000000000000000000000008152600401610ee0906127c2565b60405180910390fd5b6001600083815260200190815260200160002060000160009054906101000a900473ffffffffffffffffffffffffffffffffffffffff1673ffffffffffffffffffffffffffffffffffffffff163373ffffffffffffffffffffffffffffffffffffffff1614610f8d576040517f08c379a0000000000000000000000000000000000000000000000000000000008152600401610f849061282e565b60405180910390fd5b6000600182610f9c919061267c565b90505b60026000848152602001908152602001600020805490508110156110825760026000848152602001908152602001600020600182610fdd91906126b0565b81548110610fee57610fed612069565b5b906000526020600020906005020160026000858152602001908152602001600020828154811061102157611020612069565b5b9060005260206000209060050201600082018160000190816110439190612864565b5060018201548160010155600282015481600201556003820154816003015560048201548160040155905050808061107a90612386565b915050610f9f565b50600260008381526020019081526020016000208054806110a6576110a561294c565b5b6001900381819060005260206000209060050201600080820160006110cb9190611886565b6001820160009055600282016000905560038201600090556004820160009055505090555050565b600073ffffffffffffffffffffffffffffffffffffffff166001600084815260200190815260200160002060000160009054906101000a900473ffffffffffffffffffffffffffffffffffffffff1673ffffffffffffffffffffffffffffffffffffffff1603611198576040517f08c379a000000000000000000000000000000000000000000000000000000000815260040161118f90612486565b60405180910390fd5b600073ffffffffffffffffffffffffffffffffffffffff168173ffffffffffffffffffffffffffffffffffffffff1603611207576040517f08c379a00000000000000000000000000000000000000000000000000000000081526004016111fe906129c7565b60405180910390fd5b6001600083815260200190815260200160002060000160009054906101000a900473ffffffffffffffffffffffffffffffffffffffff1673ffffffffffffffffffffffffffffffffffffffff163373ffffffffffffffffffffffffffffffffffffffff16146112ab576040517f08c379a00000000000000000000000000000000000000000000000000000000081526004016112a290612a59565b60405180910390fd5b600115156001600084815260200190815260200160002060020160009054906101000a900460ff16151514611315576040517f08c379a000000000000000000000000000000000000000000000000000000000815260040161130c90612ac5565b60405180910390fd5b600115156001600084815260200190815260200160002060020160009054906101000a900460ff161515036113dd5760016003600084815260200190815260200160002060008373ffffffffffffffffffffffffffffffffffffffff1673ffffffffffffffffffffffffffffffffffffffff16815260200190815260200160002060006101000a81548160ff02191690831515021790555060016005600084815260200190815260200160002060000160146101000a81548160ff0219169083151502179055505b5050565b6001600085815260200190815260200160002060000160009054906101000a900473ffffffffffffffffffffffffffffffffffffffff1673ffffffffffffffffffffffffffffffffffffffff163373ffffffffffffffffffffffffffffffffffffffff1614611485576040517f08c379a000000000000000000000000000000000000000000000000000000000815260040161147c90612b57565b60405180910390fd5b60006040518060a0016040528085815260200183815260200184815260200160008152602001600081525090506002600086815260200190815260200160002081908060018154018082558091505060019003906000526020600020906005020160009091909190915060008201518160000190816115049190612b77565b506020820151816001015560408201518160020155606082015181600301556080820151816004015550505050505050565b6006818154811061154657600080fd5b906000526020600020016000915090508060000160009054906101000a900473ffffffffffffffffffffffffffffffffffffffff16908060000160149054906101000a900460ff16908060000160159054906101000a900460ff16905083565b6000806002600084815260200190815260200160002080549050905080915050919050565b600060018311611610576040517f08c379a000000000000000000000000000000000000000000000000000000000815260040161160790612cbb565b60405180910390fd5b428211611652576040517f08c379a000000000000000000000000000000000000000000000000000000000815260040161164990612d27565b60405180910390fd5b60006040518061012001604052803373ffffffffffffffffffffffffffffffffffffffff168152602001878152602001861515815260200185815260200184815260200185856116a291906126b0565b8152602001600081526020016040518060200160405280600081525081526020016000801916815250905060016000808282546116df91906126b0565b9250508190555080600160008054815260200190815260200160002060008201518160000160006101000a81548173ffffffffffffffffffffffffffffffffffffffff021916908373ffffffffffffffffffffffffffffffffffffffff16021790555060208201518160010190816117579190612b77565b5060408201518160020160006101000a81548160ff021916908315150217905550606082015181600301556080820151816004015560a0820151816005015560c0820151816006015560e08201518160070190816117b59190612b77565b5061010082015181600801559050503373ffffffffffffffffffffffffffffffffffffffff167f499e15da008e9096f6bf10da889899c6d4910068bd83a00171c190c151ee24d287878787898961180c91906126b0565b60005460405161182196959493929190612d47565b60405180910390a2600054915050949350505050565b6000816002600085815260200190815260200160002060018461185a919061267c565b8154811061186b5761186a612069565b5b90600052602060002090600502016001015414905092915050565b50805461189290611f60565b6000825580601f106118a457506118c3565b601f0160209004906000526020600020908101906118c291906118c6565b5b50565b5b808211156118df5760008160009055506001016118c7565b5090565b6000604051905090565b600080fd5b600080fd5b6000819050919050565b61190a816118f7565b811461191557600080fd5b50565b60008135905061192781611901565b92915050565b600060208284031215611943576119426118ed565b5b600061195184828501611918565b91505092915050565b600073ffffffffffffffffffffffffffffffffffffffff82169050919050565b60006119858261195a565b9050919050565b6119958161197a565b82525050565b600081519050919050565b600082825260208201905092915050565b60005b838110156119d55780820151818401526020810190506119ba565b60008484015250505050565b6000601f19601f8301169050919050565b60006119fd8261199b565b611a0781856119a6565b9350611a178185602086016119b7565b611a20816119e1565b840191505092915050565b60008115159050919050565b611a4081611a2b565b82525050565b611a4f816118f7565b82525050565b6000819050919050565b611a6881611a55565b82525050565b600061012082019050611a84600083018c61198c565b8181036020830152611a96818b6119f2565b9050611aa5604083018a611a37565b611ab26060830189611a46565b611abf6080830188611a46565b611acc60a0830187611a46565b611ad960c0830186611a46565b81810360e0830152611aeb81856119f2565b9050611afb610100830184611a5f565b9a9950505050505050505050565b611b128161197a565b8114611b1d57600080fd5b50565b600081359050611b2f81611b09565b92915050565b60008060408385031215611b4c57611b4b6118ed565b5b6000611b5a85828601611918565b9250506020611b6b85828601611b20565b9150509250929050565b6000602082019050611b8a6000830184611a37565b92915050565b6000602082019050611ba56000830184611a46565b92915050565b60006020820190508181036000830152611bc581846119f2565b905092915050565b60008060408385031215611be457611be36118ed565b5b6000611bf285828601611918565b9250506020611c0385828601611918565b9150509250929050565b600060a0820190508181036000830152611c2781886119f2565b9050611c366020830187611a46565b611c436040830186611a5f565b611c506060830185611a46565b611c5d6080830184611a46565b9695505050505050565b6000606082019050611c7c600083018661198c565b611c896020830185611a37565b611c966040830184611a37565b949350505050565b600080fd5b600080fd5b7f4e487b7100000000000000000000000000000000000000000000000000000000600052604160045260246000fd5b611ce0826119e1565b810181811067ffffffffffffffff82111715611cff57611cfe611ca8565b5b80604052505050565b6000611d126118e3565b9050611d1e8282611cd7565b919050565b600067ffffffffffffffff821115611d3e57611d3d611ca8565b5b611d47826119e1565b9050602081019050919050565b82818337600083830152505050565b6000611d76611d7184611d23565b611d08565b905082815260208101848484011115611d9257611d91611ca3565b5b611d9d848285611d54565b509392505050565b600082601f830112611dba57611db9611c9e565b5b8135611dca848260208601611d63565b91505092915050565b611ddc81611a55565b8114611de757600080fd5b50565b600081359050611df981611dd3565b92915050565b60008060008060808587031215611e1957611e186118ed565b5b6000611e2787828801611918565b945050602085013567ffffffffffffffff811115611e4857611e476118f2565b5b611e5487828801611da5565b9350506040611e6587828801611dea565b9250506060611e7687828801611918565b91505092959194509250565b611e8b81611a2b565b8114611e9657600080fd5b50565b600081359050611ea881611e82565b92915050565b60008060008060808587031215611ec857611ec76118ed565b5b600085013567ffffffffffffffff811115611ee657611ee56118f2565b5b611ef287828801611da5565b9450506020611f0387828801611e99565b9350506040611f1487828801611918565b9250506060611f2587828801611918565b91505092959194509250565b7f4e487b7100000000000000000000000000000000000000000000000000000000600052602260045260246000fd5b60006002820490506001821680611f7857607f821691505b602082108103611f8b57611f8a611f31565b5b50919050565b7f43616d706169676e2069732079657420746f20456e6400000000000000000000600082015250565b6000611fc76016836119a6565b9150611fd282611f91565b602082019050919050565b60006020820190508181036000830152611ff681611fba565b9050919050565b7f43616d706169676e2069732079657420746f2073746172740000000000000000600082015250565b60006120336018836119a6565b915061203e82611ffd565b602082019050919050565b6000602082019050818103600083015261206281612026565b9050919050565b7f4e487b7100000000000000000000000000000000000000000000000000000000600052603260045260246000fd5b6000815490506120a781611f60565b9050919050565b60008190508160005260206000209050919050565b60008190508160005260206000209050919050565b60006020601f8301049050919050565b600082821b905092915050565b6000600883026121257fffffffffffffffffffffffffffffffffffffffffffffffffffffffffffffffff826120e8565b61212f86836120e8565b95508019841693508086168417925050509392505050565b6000819050919050565b600061216c612167612162846118f7565b612147565b6118f7565b9050919050565b6000819050919050565b61218683612151565b61219a61219282612173565b8484546120f5565b825550505050565b600090565b6121af6121a2565b6121ba81848461217d565b505050565b5b818110156121de576121d36000826121a7565b6001810190506121c0565b5050565b601f821115612223576121f4816120ae565b6121fd846120d8565b8101602085101561220c578190505b612220612218856120d8565b8301826121bf565b50505b505050565b600082821c905092915050565b600061224660001984600802612228565b1980831691505092915050565b600061225f8383612235565b9150826002028217905092915050565b81810361227d575050612355565b61228682612098565b67ffffffffffffffff81111561229f5761229e611ca8565b5b6122a98254611f60565b6122b48282856121e2565b6000601f8311600181146122e357600084156122d1578287015490505b6122db8582612253565b86555061234e565b601f1984166122f1876120c3565b96506122fc866120ae565b60005b82811015612324578489015482556001820191506001850194506020810190506122ff565b86831015612341578489015461233d601f891682612235565b8355505b6001600288020188555050505b5050505050505b565b7f4e487b7100000000000000000000000000000000000000000000000000000000600052601160045260246000fd5b6000612391826118f7565b91507fffffffffffffffffffffffffffffffffffffffffffffffffffffffffffffffff82036123c3576123c2612357565b5b600182019050919050565b7f4e6f20737563682043616d706169676e00000000000000000000000000000000600082015250565b60006124046010836119a6565b915061240f826123ce565b602082019050919050565b60006020820190508181036000830152612433816123f7565b9050919050565b7f43616d706169676e20646f656e206e6f74206578697374000000000000000000600082015250565b60006124706017836119a6565b915061247b8261243a565b602082019050919050565b6000602082019050818103600083015261249f81612463565b9050919050565b7f59657420746f2073746172740000000000000000000000000000000000000000600082015250565b60006124dc600c836119a6565b91506124e7826124a6565b602082019050919050565b6000602082019050818103600083015261250b816124cf565b9050919050565b7f43616d706169676e20456e646564000000000000000000000000000000000000600082015250565b6000612548600e836119a6565b915061255382612512565b602082019050919050565b600060208201905081810360008301526125778161253b565b9050919050565b7f63616e277420766f7465206d6f7265207468616e206f6e636500000000000000600082015250565b60006125b46019836119a6565b91506125bf8261257e565b602082019050919050565b600060208201905081810360008301526125e3816125a7565b9050919050565b7f556e617574686f72697a656420746f20566f746520696e20746869732063616d60008201527f706169676e000000000000000000000000000000000000000000000000000000602082015250565b60006126466025836119a6565b9150612651826125ea565b604082019050919050565b6000602082019050818103600083015261267581612639565b9050919050565b6000612687826118f7565b9150612692836118f7565b92508282039050818111156126aa576126a9612357565b5b92915050565b60006126bb826118f7565b91506126c6836118f7565b92508282019050808211156126de576126dd612357565b5b92915050565b7f4172726179204f766572466c6f61740000000000000000000000000000000000600082015250565b600061271a600f836119a6565b9150612725826126e4565b602082019050919050565b600060208201905081810360008301526127498161270d565b9050919050565b7f43616e7420706572666f6d2074686973206f7065726174696f6e20616674657260008201527f20647572696e672063616d706169676e00000000000000000000000000000000602082015250565b60006127ac6030836119a6565b91506127b782612750565b604082019050919050565b600060208201905081810360008301526127db8161279f565b9050919050565b7f5265737472696374656420746f204368616972706572736f6e00000000000000600082015250565b60006128186019836119a6565b9150612823826127e2565b602082019050919050565b600060208201905081810360008301526128478161280b565b9050919050565b60008154905061285d81611f60565b9050919050565b81810361287257505061294a565b61287b8261284e565b67ffffffffffffffff81111561289457612893611ca8565b5b61289e8254611f60565b6128a98282856121e2565b6000601f8311600181146128d857600084156128c6578287015490505b6128d08582612253565b865550612943565b601f1984166128e6876120ae565b96506128f1866120ae565b60005b82811015612919578489015482556001820191506001850194506020810190506128f4565b868310156129365784890154612932601f891682612235565b8355505b6001600288020188555050505b5050505050505b565b7f4e487b7100000000000000000000000000000000000000000000000000000000600052603160045260246000fd5b7f41646472657373206973206e6f742076616c6964000000000000000000000000600082015250565b60006129b16014836119a6565b91506129bc8261297b565b602082019050919050565b600060208201905081810360008301526129e0816129a4565b9050919050565b7f4f6e6c79204368616972706572736f6e206f6620746869732043616d7061696760008201527f6e2063616e2063616c6c20746869732066756e6374696f6e0000000000000000602082015250565b6000612a436038836119a6565b9150612a4e826129e7565b604082019050919050565b60006020820190508181036000830152612a7281612a36565b9050919050565b7f546869732043616d706169676e206973206e6f74207265737472696374656400600082015250565b6000612aaf601f836119a6565b9150612aba82612a79565b602082019050919050565b60006020820190508181036000830152612ade81612aa2565b9050919050565b7f4f6e6c79204368616972706572736f6e206f662043616d706169676e2063616e60008201527f2063616c6c20746869732066756e6374696f6e00000000000000000000000000602082015250565b6000612b416033836119a6565b9150612b4c82612ae5565b604082019050919050565b60006020820190508181036000830152612b7081612b34565b9050919050565b612b808261199b565b67ffffffffffffffff811115612b9957612b98611ca8565b5b612ba38254611f60565b612bae8282856121e2565b600060209050601f831160018114612be15760008415612bcf578287015190505b612bd98582612253565b865550612c41565b601f198416612bef866120ae565b60005b82811015612c1757848901518255600182019150602085019450602081019050612bf2565b86831015612c345784890151612c30601f891682612235565b8355505b6001600288020188555050505b505050505050565b7f4475726174696f6e206d7573742062652067726561746572207468616e20317360008201527f65636f6e64000000000000000000000000000000000000000000000000000000602082015250565b6000612ca56025836119a6565b9150612cb082612c49565b604082019050919050565b60006020820190508181036000830152612cd481612c98565b9050919050565b7f54696d652068617320746f20626520667574757265206e6f7420706173740000600082015250565b6000612d11601e836119a6565b9150612d1c82612cdb565b602082019050919050565b60006020820190508181036000830152612d4081612d04565b9050919050565b600060c0820190508181036000830152612d6181896119f2565b9050612d706020830188611a37565b612d7d6040830187611a46565b612d8a6060830186611a46565b612d976080830185611a46565b612da460a0830184611a46565b97965050505050505056fea26469706673582212202cdc7f69b459cdd500df3ca1805a8097732047801836aea2097227d9f23c72a864736f6c63430008120033","opcodes":"PUSH1 0x80 PUSH1 0x40 MSTORE CALLVALUE DUP1 ISZERO PUSH2 0x10 JUMPI PUSH1 0x0 DUP1 REVERT JUMPDEST POP PUSH2 0x2DE5 DUP1 PUSH2 0x20 PUSH1 0x0 CODECOPY PUSH1 0x0 RETURN INVALID PUSH1 0x80 PUSH1 0x40 MSTORE CALLVALUE DUP1 ISZERO PUSH2 0x10 JUMPI PUSH1 0x0 DUP1 REVERT JUMPDEST POP PUSH1 0x4 CALLDATASIZE LT PUSH2 0xF5 JUMPI PUSH1 0x0 CALLDATALOAD PUSH1 0xE0 SHR DUP1 PUSH4 0xA71A666B GT PUSH2 0x97 JUMPI DUP1 PUSH4 0xD3F0B73F GT PUSH2 0x66 JUMPI DUP1 PUSH4 0xD3F0B73F EQ PUSH2 0x2DE JUMPI DUP1 PUSH4 0xDA58C7D9 EQ PUSH2 0x2FA JUMPI DUP1 PUSH4 0xDED2D402 EQ PUSH2 0x32C JUMPI DUP1 PUSH4 0xE9E90E7B EQ PUSH2 0x35C JUMPI PUSH2 0xF5 JUMP JUMPDEST DUP1 PUSH4 0xA71A666B EQ PUSH2 0x246 JUMPI DUP1 PUSH4 0xB384ABEF EQ PUSH2 0x276 JUMPI DUP1 PUSH4 0xCF4A6060 EQ PUSH2 0x2A6 JUMPI DUP1 PUSH4 0xD231C162 EQ PUSH2 0x2C2 JUMPI PUSH2 0xF5 JUMP JUMPDEST DUP1 PUSH4 0x3DA90516 GT PUSH2 0xD3 JUMPI DUP1 PUSH4 0x3DA90516 EQ PUSH2 0x192 JUMPI DUP1 PUSH4 0x5EF1A1AA EQ PUSH2 0x1B0 JUMPI DUP1 PUSH4 0x6A4A4209 EQ PUSH2 0x1E0 JUMPI DUP1 PUSH4 0x713474FF EQ PUSH2 0x214 JUMPI PUSH2 0xF5 JUMP JUMPDEST DUP1 PUSH4 0x10D91123 EQ PUSH2 0xFA JUMPI DUP1 PUSH4 0x2602600D EQ PUSH2 0x132 JUMPI DUP1 PUSH4 0x2F9248A6 EQ PUSH2 0x162 JUMPI JUMPDEST PUSH1 0x0 DUP1 REVERT JUMPDEST PUSH2 0x114 PUSH1 0x4 DUP1 CALLDATASIZE SUB DUP2 ADD SWAP1 PUSH2 0x10F SWAP2 SWAP1 PUSH2 0x192D JUMP JUMPDEST PUSH2 0x38C JUMP JUMPDEST PUSH1 0x40 MLOAD PUSH2 0x129 SWAP10 SWAP9 SWAP8 SWAP7 SWAP6 SWAP5 SWAP4 SWAP3 SWAP2 SWAP1 PUSH2 0x1A6E JUMP JUMPDEST PUSH1 0x40 MLOAD DUP1 SWAP2 SUB SWAP1 RETURN JUMPDEST PUSH2 0x14C PUSH1 0x4 DUP1 CALLDATASIZE SUB DUP2 ADD SWAP1 PUSH2 0x147 SWAP2 SWAP1 PUSH2 0x1B35 JUMP JUMPDEST PUSH2 0x517 JUMP JUMPDEST PUSH1 0x40 MLOAD PUSH2 0x159 SWAP2 SWAP1 PUSH2 0x1B75 JUMP JUMPDEST PUSH1 0x40 MLOAD DUP1 SWAP2 SUB SWAP1 RETURN JUMPDEST PUSH2 0x17C PUSH1 0x4 DUP1 CALLDATASIZE SUB DUP2 ADD SWAP1 PUSH2 0x177 SWAP2 SWAP1 PUSH2 0x1B35 JUMP JUMPDEST PUSH2 0x546 JUMP JUMPDEST PUSH1 0x40 MLOAD PUSH2 0x189 SWAP2 SWAP1 PUSH2 0x1B75 JUMP JUMPDEST PUSH1 0x40 MLOAD DUP1 SWAP2 SUB SWAP1 RETURN JUMPDEST PUSH2 0x19A PUSH2 0x575 JUMP JUMPDEST PUSH1 0x40 MLOAD PUSH2 0x1A7 SWAP2 SWAP1 PUSH2 0x1B90 JUMP JUMPDEST PUSH1 0x40 MLOAD DUP1 SWAP2 SUB SWAP1 RETURN JUMPDEST PUSH2 0x1CA PUSH1 0x4 DUP1 CALLDATASIZE SUB DUP2 ADD SWAP1 PUSH2 0x1C5 SWAP2 SWAP1 PUSH2 0x192D JUMP JUMPDEST PUSH2 0x57B JUMP JUMPDEST PUSH1 0x40 MLOAD PUSH2 0x1D7 SWAP2 SWAP1 PUSH2 0x1BAB JUMP JUMPDEST PUSH1 0x40 MLOAD DUP1 SWAP2 SUB SWAP1 RETURN JUMPDEST PUSH2 0x1FA PUSH1 0x4 DUP1 CALLDATASIZE SUB DUP2 ADD SWAP1 PUSH2 0x1F5 SWAP2 SWAP1 PUSH2 0x1BCD JUMP JUMPDEST PUSH2 0x81B JUMP JUMPDEST PUSH1 0x40 MLOAD PUSH2 0x20B SWAP6 SWAP5 SWAP4 SWAP3 SWAP2 SWAP1 PUSH2 0x1C0D JUMP JUMPDEST PUSH1 0x40 MLOAD DUP1 SWAP2 SUB SWAP1 RETURN JUMPDEST PUSH2 0x22E PUSH1 0x4 DUP1 CALLDATASIZE SUB DUP2 ADD SWAP1 PUSH2 0x229 SWAP2 SWAP1 PUSH2 0x192D JUMP JUMPDEST PUSH2 0x8F6 JUMP JUMPDEST PUSH1 0x40 MLOAD PUSH2 0x23D SWAP4 SWAP3 SWAP2 SWAP1 PUSH2 0x1C67 JUMP JUMPDEST PUSH1 0x40 MLOAD DUP1 SWAP2 SUB SWAP1 RETURN JUMPDEST PUSH2 0x260 PUSH1 0x4 DUP1 CALLDATASIZE SUB DUP2 ADD SWAP1 PUSH2 0x25B SWAP2 SWAP1 PUSH2 0x192D JUMP JUMPDEST PUSH2 0x95A JUMP JUMPDEST PUSH1 0x40 MLOAD PUSH2 0x26D SWAP2 SWAP1 PUSH2 0x1B90 JUMP JUMPDEST PUSH1 0x40 MLOAD DUP1 SWAP2 SUB SWAP1 RETURN JUMPDEST PUSH2 0x290 PUSH1 0x4 DUP1 CALLDATASIZE SUB DUP2 ADD SWAP1 PUSH2 0x28B SWAP2 SWAP1 PUSH2 0x1BCD JUMP JUMPDEST PUSH2 0xA1E JUMP JUMPDEST PUSH1 0x40 MLOAD PUSH2 0x29D SWAP2 SWAP1 PUSH2 0x1B75 JUMP JUMPDEST PUSH1 0x40 MLOAD DUP1 SWAP2 SUB SWAP1 RETURN JUMPDEST PUSH2 0x2C0 PUSH1 0x4 DUP1 CALLDATASIZE SUB DUP2 ADD SWAP1 PUSH2 0x2BB SWAP2 SWAP1 PUSH2 0x1BCD JUMP JUMPDEST PUSH2 0xE2D JUMP JUMPDEST STOP JUMPDEST PUSH2 0x2DC PUSH1 0x4 DUP1 CALLDATASIZE SUB DUP2 ADD SWAP1 PUSH2 0x2D7 SWAP2 SWAP1 PUSH2 0x1B35 JUMP JUMPDEST PUSH2 0x10F3 JUMP JUMPDEST STOP JUMPDEST PUSH2 0x2F8 PUSH1 0x4 DUP1 CALLDATASIZE SUB DUP2 ADD SWAP1 PUSH2 0x2F3 SWAP2 SWAP1 PUSH2 0x1DFF JUMP JUMPDEST PUSH2 0x13E1 JUMP JUMPDEST STOP JUMPDEST PUSH2 0x314 PUSH1 0x4 DUP1 CALLDATASIZE SUB DUP2 ADD SWAP1 PUSH2 0x30F SWAP2 SWAP1 PUSH2 0x192D JUMP JUMPDEST PUSH2 0x1536 JUMP JUMPDEST PUSH1 0x40 MLOAD PUSH2 0x323 SWAP4 SWAP3 SWAP2 SWAP1 PUSH2 0x1C67 JUMP JUMPDEST PUSH1 0x40 MLOAD DUP1 SWAP2 SUB SWAP1 RETURN JUMPDEST PUSH2 0x346 PUSH1 0x4 DUP1 CALLDATASIZE SUB DUP2 ADD SWAP1 PUSH2 0x341 SWAP2 SWAP1 PUSH2 0x192D JUMP JUMPDEST PUSH2 0x15A6 JUMP JUMPDEST PUSH1 0x40 MLOAD PUSH2 0x353 SWAP2 SWAP1 PUSH2 0x1B90 JUMP JUMPDEST PUSH1 0x40 MLOAD DUP1 SWAP2 SUB SWAP1 RETURN JUMPDEST PUSH2 0x376 PUSH1 0x4 DUP1 CALLDATASIZE SUB DUP2 ADD SWAP1 PUSH2 0x371 SWAP2 SWAP1 PUSH2 0x1EAE JUMP JUMPDEST PUSH2 0x15CB JUMP JUMPDEST PUSH1 0x40 MLOAD PUSH2 0x383 SWAP2 SWAP1 PUSH2 0x1B90 JUMP JUMPDEST PUSH1 0x40 MLOAD DUP1 SWAP2 SUB SWAP1 RETURN JUMPDEST PUSH1 0x1 PUSH1 0x20 MSTORE DUP1 PUSH1 0x0 MSTORE PUSH1 0x40 PUSH1 0x0 KECCAK256 PUSH1 0x0 SWAP2 POP SWAP1 POP DUP1 PUSH1 0x0 ADD PUSH1 0x0 SWAP1 SLOAD SWAP1 PUSH2 0x100 EXP SWAP1 DIV PUSH20 0xFFFFFFFFFFFFFFFFFFFFFFFFFFFFFFFFFFFFFFFF AND SWAP1 DUP1 PUSH1 0x1 ADD DUP1 SLOAD PUSH2 0x3D5 SWAP1 PUSH2 0x1F60 JUMP JUMPDEST DUP1 PUSH1 0x1F ADD PUSH1 0x20 DUP1 SWAP2 DIV MUL PUSH1 0x20 ADD PUSH1 0x40 MLOAD SWAP1 DUP2 ADD PUSH1 0x40 MSTORE DUP1 SWAP3 SWAP2 SWAP1 DUP2 DUP2 MSTORE PUSH1 0x20 ADD DUP3 DUP1 SLOAD PUSH2 0x401 SWAP1 PUSH2 0x1F60 JUMP JUMPDEST DUP1 ISZERO PUSH2 0x44E JUMPI DUP1 PUSH1 0x1F LT PUSH2 0x423 JUMPI PUSH2 0x100 DUP1 DUP4 SLOAD DIV MUL DUP4 MSTORE SWAP2 PUSH1 0x20 ADD SWAP2 PUSH2 0x44E JUMP JUMPDEST DUP3 ADD SWAP2 SWAP1 PUSH1 0x0 MSTORE PUSH1 0x20 PUSH1 0x0 KECCAK256 SWAP1 JUMPDEST DUP2 SLOAD DUP2 MSTORE SWAP1 PUSH1 0x1 ADD SWAP1 PUSH1 0x20 ADD DUP1 DUP4 GT PUSH2 0x431 JUMPI DUP3 SWAP1 SUB PUSH1 0x1F AND DUP3 ADD SWAP2 JUMPDEST POP POP POP POP POP SWAP1 DUP1 PUSH1 0x2 ADD PUSH1 0x0 SWAP1 SLOAD SWAP1 PUSH2 0x100 EXP SWAP1 DIV PUSH1 0xFF AND SWAP1 DUP1 PUSH1 0x3 ADD SLOAD SWAP1 DUP1 PUSH1 0x4 ADD SLOAD SWAP1 DUP1 PUSH1 0x5 ADD SLOAD SWAP1 DUP1 PUSH1 0x6 ADD SLOAD SWAP1 DUP1 PUSH1 0x7 ADD DUP1 SLOAD PUSH2 0x48E SWAP1 PUSH2 0x1F60 JUMP JUMPDEST DUP1 PUSH1 0x1F ADD PUSH1 0x20 DUP1 SWAP2 DIV MUL PUSH1 0x20 ADD PUSH1 0x40 MLOAD SWAP1 DUP2 ADD PUSH1 0x40 MSTORE DUP1 SWAP3 SWAP2 SWAP1 DUP2 DUP2 MSTORE PUSH1 0x20 ADD DUP3 DUP1 SLOAD PUSH2 0x4BA SWAP1 PUSH2 0x1F60 JUMP JUMPDEST DUP1 ISZERO PUSH2 0x507 JUMPI DUP1 PUSH1 0x1F LT PUSH2 0x4DC JUMPI PUSH2 0x100 DUP1 DUP4 SLOAD DIV MUL DUP4 MSTORE SWAP2 PUSH1 0x20 ADD SWAP2 PUSH2 0x507 JUMP JUMPDEST DUP3 ADD SWAP2 SWAP1 PUSH1 0x0 MSTORE PUSH1 0x20 PUSH1 0x0 KECCAK256 SWAP1 JUMPDEST DUP2 SLOAD DUP2 MSTORE SWAP1 PUSH1 0x1 ADD SWAP1 PUSH1 0x20 ADD DUP1 DUP4 GT PUSH2 0x4EA JUMPI DUP3 SWAP1 SUB PUSH1 0x1F AND DUP3 ADD SWAP2 JUMPDEST POP POP POP POP POP SWAP1 DUP1 PUSH1 0x8 ADD SLOAD SWAP1 POP DUP10 JUMP JUMPDEST PUSH1 0x4 PUSH1 0x20 MSTORE DUP2 PUSH1 0x0 MSTORE PUSH1 0x40 PUSH1 0x0 KECCAK256 PUSH1 0x20 MSTORE DUP1 PUSH1 0x0 MSTORE PUSH1 0x40 PUSH1 0x0 KECCAK256 PUSH1 0x0 SWAP2 POP SWAP2 POP SWAP1 SLOAD SWAP1 PUSH2 0x100 EXP SWAP1 DIV PUSH1 0xFF AND DUP2 JUMP JUMPDEST PUSH1 0x3 PUSH1 0x20 MSTORE DUP2 PUSH1 0x0 MSTORE PUSH1 0x40 PUSH1 0x0 KECCAK256 PUSH1 0x20 MSTORE DUP1 PUSH1 0x0 MSTORE PUSH1 0x40 PUSH1 0x0 KECCAK256 PUSH1 0x0 SWAP2 POP SWAP2 POP SWAP1 SLOAD SWAP1 PUSH2 0x100 EXP SWAP1 DIV PUSH1 0xFF AND DUP2 JUMP JUMPDEST PUSH1 0x0 SLOAD DUP2 JUMP JUMPDEST PUSH1 0x60 PUSH1 0x1 PUSH1 0x0 DUP4 DUP2 MSTORE PUSH1 0x20 ADD SWAP1 DUP2 MSTORE PUSH1 0x20 ADD PUSH1 0x0 KECCAK256 PUSH1 0x5 ADD SLOAD TIMESTAMP GT PUSH2 0x5D5 JUMPI PUSH1 0x40 MLOAD PUSH32 0x8C379A000000000000000000000000000000000000000000000000000000000 DUP2 MSTORE PUSH1 0x4 ADD PUSH2 0x5CC SWAP1 PUSH2 0x1FDD JUMP JUMPDEST PUSH1 0x40 MLOAD DUP1 SWAP2 SUB SWAP1 REVERT JUMPDEST PUSH1 0x1 PUSH1 0x0 DUP4 DUP2 MSTORE PUSH1 0x20 ADD SWAP1 DUP2 MSTORE PUSH1 0x20 ADD PUSH1 0x0 KECCAK256 PUSH1 0x4 ADD SLOAD TIMESTAMP GT PUSH2 0x62D JUMPI PUSH1 0x40 MLOAD PUSH32 0x8C379A000000000000000000000000000000000000000000000000000000000 DUP2 MSTORE PUSH1 0x4 ADD PUSH2 0x624 SWAP1 PUSH2 0x2049 JUMP JUMPDEST PUSH1 0x40 MLOAD DUP1 SWAP2 SUB SWAP1 REVERT JUMPDEST PUSH1 0x0 DUP1 PUSH1 0x0 SWAP1 POP JUMPDEST PUSH1 0x2 PUSH1 0x0 DUP6 DUP2 MSTORE PUSH1 0x20 ADD SWAP1 DUP2 MSTORE PUSH1 0x20 ADD PUSH1 0x0 KECCAK256 DUP1 SLOAD SWAP1 POP DUP2 LT ISZERO PUSH2 0x773 JUMPI DUP2 PUSH1 0x2 PUSH1 0x0 DUP7 DUP2 MSTORE PUSH1 0x20 ADD SWAP1 DUP2 MSTORE PUSH1 0x20 ADD PUSH1 0x0 KECCAK256 DUP3 DUP2 SLOAD DUP2 LT PUSH2 0x679 JUMPI PUSH2 0x678 PUSH2 0x2069 JUMP JUMPDEST JUMPDEST SWAP1 PUSH1 0x0 MSTORE PUSH1 0x20 PUSH1 0x0 KECCAK256 SWAP1 PUSH1 0x5 MUL ADD PUSH1 0x3 ADD SLOAD GT ISZERO PUSH2 0x760 JUMPI PUSH1 0x2 PUSH1 0x0 DUP6 DUP2 MSTORE PUSH1 0x20 ADD SWAP1 DUP2 MSTORE PUSH1 0x20 ADD PUSH1 0x0 KECCAK256 DUP2 DUP2 SLOAD DUP2 LT PUSH2 0x6B6 JUMPI PUSH2 0x6B5 PUSH2 0x2069 JUMP JUMPDEST JUMPDEST SWAP1 PUSH1 0x0 MSTORE PUSH1 0x20 PUSH1 0x0 KECCAK256 SWAP1 PUSH1 0x5 MUL ADD PUSH1 0x3 ADD SLOAD SWAP2 POP PUSH1 0x2 PUSH1 0x0 DUP6 DUP2 MSTORE PUSH1 0x20 ADD SWAP1 DUP2 MSTORE PUSH1 0x20 ADD PUSH1 0x0 KECCAK256 DUP2 DUP2 SLOAD DUP2 LT PUSH2 0x6EF JUMPI PUSH2 0x6EE PUSH2 0x2069 JUMP JUMPDEST JUMPDEST SWAP1 PUSH1 0x0 MSTORE PUSH1 0x20 PUSH1 0x0 KECCAK256 SWAP1 PUSH1 0x5 MUL ADD PUSH1 0x0 ADD PUSH1 0x1 PUSH1 0x0 DUP7 DUP2 MSTORE PUSH1 0x20 ADD SWAP1 DUP2 MSTORE PUSH1 0x20 ADD PUSH1 0x0 KECCAK256 PUSH1 0x7 ADD SWAP1 DUP2 PUSH2 0x722 SWAP2 SWAP1 PUSH2 0x226F JUMP JUMPDEST POP PUSH1 0x1 PUSH1 0x2 PUSH1 0x0 DUP7 DUP2 MSTORE PUSH1 0x20 ADD SWAP1 DUP2 MSTORE PUSH1 0x20 ADD PUSH1 0x0 KECCAK256 DUP3 DUP2 SLOAD DUP2 LT PUSH2 0x74A JUMPI PUSH2 0x749 PUSH2 0x2069 JUMP JUMPDEST JUMPDEST SWAP1 PUSH1 0x0 MSTORE PUSH1 0x20 PUSH1 0x0 KECCAK256 SWAP1 PUSH1 0x5 MUL ADD PUSH1 0x4 ADD DUP2 SWAP1 SSTORE POP JUMPDEST DUP1 DUP1 PUSH2 0x76B SWAP1 PUSH2 0x2386 JUMP JUMPDEST SWAP2 POP POP PUSH2 0x635 JUMP JUMPDEST POP PUSH1 0x1 PUSH1 0x0 DUP5 DUP2 MSTORE PUSH1 0x20 ADD SWAP1 DUP2 MSTORE PUSH1 0x20 ADD PUSH1 0x0 KECCAK256 PUSH1 0x7 ADD DUP1 SLOAD PUSH2 0x795 SWAP1 PUSH2 0x1F60 JUMP JUMPDEST DUP1 PUSH1 0x1F ADD PUSH1 0x20 DUP1 SWAP2 DIV MUL PUSH1 0x20 ADD PUSH1 0x40 MLOAD SWAP1 DUP2 ADD PUSH1 0x40 MSTORE DUP1 SWAP3 SWAP2 SWAP1 DUP2 DUP2 MSTORE PUSH1 0x20 ADD DUP3 DUP1 SLOAD PUSH2 0x7C1 SWAP1 PUSH2 0x1F60 JUMP JUMPDEST DUP1 ISZERO PUSH2 0x80E JUMPI DUP1 PUSH1 0x1F LT PUSH2 0x7E3 JUMPI PUSH2 0x100 DUP1 DUP4 SLOAD DIV MUL DUP4 MSTORE SWAP2 PUSH1 0x20 ADD SWAP2 PUSH2 0x80E JUMP JUMPDEST DUP3 ADD SWAP2 SWAP1 PUSH1 0x0 MSTORE PUSH1 0x20 PUSH1 0x0 KECCAK256 SWAP1 JUMPDEST DUP2 SLOAD DUP2 MSTORE SWAP1 PUSH1 0x1 ADD SWAP1 PUSH1 0x20 ADD DUP1 DUP4 GT PUSH2 0x7F1 JUMPI DUP3 SWAP1 SUB PUSH1 0x1F AND DUP3 ADD SWAP2 JUMPDEST POP POP POP POP POP SWAP2 POP POP SWAP2 SWAP1 POP JUMP JUMPDEST PUSH1 0x2 PUSH1 0x20 MSTORE DUP2 PUSH1 0x0 MSTORE PUSH1 0x40 PUSH1 0x0 KECCAK256 DUP2 DUP2 SLOAD DUP2 LT PUSH2 0x837 JUMPI PUSH1 0x0 DUP1 REVERT JUMPDEST SWAP1 PUSH1 0x0 MSTORE PUSH1 0x20 PUSH1 0x0 KECCAK256 SWAP1 PUSH1 0x5 MUL ADD PUSH1 0x0 SWAP2 POP SWAP2 POP POP DUP1 PUSH1 0x0 ADD DUP1 SLOAD PUSH2 0x85B SWAP1 PUSH2 0x1F60 JUMP JUMPDEST DUP1 PUSH1 0x1F ADD PUSH1 0x20 DUP1 SWAP2 DIV MUL PUSH1 0x20 ADD PUSH1 0x40 MLOAD SWAP1 DUP2 ADD PUSH1 0x40 MSTORE DUP1 SWAP3 SWAP2 SWAP1 DUP2 DUP2 MSTORE PUSH1 0x20 ADD DUP3 DUP1 SLOAD PUSH2 0x887 SWAP1 PUSH2 0x1F60 JUMP JUMPDEST DUP1 ISZERO PUSH2 0x8D4 JUMPI DUP1 PUSH1 0x1F LT PUSH2 0x8A9 JUMPI PUSH2 0x100 DUP1 DUP4 SLOAD DIV MUL DUP4 MSTORE SWAP2 PUSH1 0x20 ADD SWAP2 PUSH2 0x8D4 JUMP JUMPDEST DUP3 ADD SWAP2 SWAP1 PUSH1 0x0 MSTORE PUSH1 0x20 PUSH1 0x0 KECCAK256 SWAP1 JUMPDEST DUP2 SLOAD DUP2 MSTORE SWAP1 PUSH1 0x1 ADD SWAP1 PUSH1 0x20 ADD DUP1 DUP4 GT PUSH2 0x8B7 JUMPI DUP3 SWAP1 SUB PUSH1 0x1F AND DUP3 ADD SWAP2 JUMPDEST POP POP POP POP POP SWAP1 DUP1 PUSH1 0x1 ADD SLOAD SWAP1 DUP1 PUSH1 0x2 ADD SLOAD SWAP1 DUP1 PUSH1 0x3 ADD SLOAD SWAP1 DUP1 PUSH1 0x4 ADD SLOAD SWAP1 POP DUP6 JUMP JUMPDEST PUSH1 0x5 PUSH1 0x20 MSTORE DUP1 PUSH1 0x0 MSTORE PUSH1 0x40 PUSH1 0x0 KECCAK256 PUSH1 0x0 SWAP2 POP SWAP1 POP DUP1 PUSH1 0x0 ADD PUSH1 0x0 SWAP1 SLOAD SWAP1 PUSH2 0x100 EXP SWAP1 DIV PUSH20 0xFFFFFFFFFFFFFFFFFFFFFFFFFFFFFFFFFFFFFFFF AND SWAP1 DUP1 PUSH1 0x0 ADD PUSH1 0x14 SWAP1 SLOAD SWAP1 PUSH2 0x100 EXP SWAP1 DIV PUSH1 0xFF AND SWAP1 DUP1 PUSH1 0x0 ADD PUSH1 0x15 SWAP1 SLOAD SWAP1 PUSH2 0x100 EXP SWAP1 DIV PUSH1 0xFF AND SWAP1 POP DUP4 JUMP JUMPDEST PUSH1 0x0 DUP1 PUSH20 0xFFFFFFFFFFFFFFFFFFFFFFFFFFFFFFFFFFFFFFFF AND PUSH1 0x1 PUSH1 0x0 DUP5 DUP2 MSTORE PUSH1 0x20 ADD SWAP1 DUP2 MSTORE PUSH1 0x20 ADD PUSH1 0x0 KECCAK256 PUSH1 0x0 ADD PUSH1 0x0 SWAP1 SLOAD SWAP1 PUSH2 0x100 EXP SWAP1 DIV PUSH20 0xFFFFFFFFFFFFFFFFFFFFFFFFFFFFFFFFFFFFFFFF AND PUSH20 0xFFFFFFFFFFFFFFFFFFFFFFFFFFFFFFFFFFFFFFFF AND SUB PUSH2 0xA00 JUMPI PUSH1 0x40 MLOAD PUSH32 0x8C379A000000000000000000000000000000000000000000000000000000000 DUP2 MSTORE PUSH1 0x4 ADD PUSH2 0x9F7 SWAP1 PUSH2 0x241A JUMP JUMPDEST PUSH1 0x40 MLOAD DUP1 SWAP2 SUB SWAP1 REVERT JUMPDEST PUSH1 0x1 PUSH1 0x0 DUP4 DUP2 MSTORE PUSH1 0x20 ADD SWAP1 DUP2 MSTORE PUSH1 0x20 ADD PUSH1 0x0 KECCAK256 PUSH1 0x6 ADD SLOAD SWAP1 POP SWAP2 SWAP1 POP JUMP JUMPDEST PUSH1 0x0 DUP1 PUSH20 0xFFFFFFFFFFFFFFFFFFFFFFFFFFFFFFFFFFFFFFFF AND PUSH1 0x1 PUSH1 0x0 DUP6 DUP2 MSTORE PUSH1 0x20 ADD SWAP1 DUP2 MSTORE PUSH1 0x20 ADD PUSH1 0x0 KECCAK256 PUSH1 0x0 ADD PUSH1 0x0 SWAP1 SLOAD SWAP1 PUSH2 0x100 EXP SWAP1 DIV PUSH20 0xFFFFFFFFFFFFFFFFFFFFFFFFFFFFFFFFFFFFFFFF AND PUSH20 0xFFFFFFFFFFFFFFFFFFFFFFFFFFFFFFFFFFFFFFFF AND SUB PUSH2 0xAC4 JUMPI PUSH1 0x40 MLOAD PUSH32 0x8C379A000000000000000000000000000000000000000000000000000000000 DUP2 MSTORE PUSH1 0x4 ADD PUSH2 0xABB SWAP1 PUSH2 0x2486 JUMP JUMPDEST PUSH1 0x40 MLOAD DUP1 SWAP2 SUB SWAP1 REVERT JUMPDEST PUSH1 0x1 PUSH1 0x0 DUP5 DUP2 MSTORE PUSH1 0x20 ADD SWAP1 DUP2 MSTORE PUSH1 0x20 ADD PUSH1 0x0 KECCAK256 PUSH1 0x4 ADD SLOAD TIMESTAMP LT ISZERO PUSH2 0xB1D JUMPI PUSH1 0x40 MLOAD PUSH32 0x8C379A000000000000000000000000000000000000000000000000000000000 DUP2 MSTORE PUSH1 0x4 ADD PUSH2 0xB14 SWAP1 PUSH2 0x24F2 JUMP JUMPDEST PUSH1 0x40 MLOAD DUP1 SWAP2 SUB SWAP1 REVERT JUMPDEST PUSH1 0x1 PUSH1 0x0 DUP5 DUP2 MSTORE PUSH1 0x20 ADD SWAP1 DUP2 MSTORE PUSH1 0x20 ADD PUSH1 0x0 KECCAK256 PUSH1 0x5 ADD SLOAD TIMESTAMP GT ISZERO PUSH2 0xB76 JUMPI PUSH1 0x40 MLOAD PUSH32 0x8C379A000000000000000000000000000000000000000000000000000000000 DUP2 MSTORE PUSH1 0x4 ADD PUSH2 0xB6D SWAP1 PUSH2 0x255E JUMP JUMPDEST PUSH1 0x40 MLOAD DUP1 SWAP2 SUB SWAP1 REVERT JUMPDEST PUSH1 0x0 ISZERO ISZERO PUSH1 0x4 PUSH1 0x0 DUP6 DUP2 MSTORE PUSH1 0x20 ADD SWAP1 DUP2 MSTORE PUSH1 0x20 ADD PUSH1 0x0 KECCAK256 PUSH1 0x0 CALLER PUSH20 0xFFFFFFFFFFFFFFFFFFFFFFFFFFFFFFFFFFFFFFFF AND PUSH20 0xFFFFFFFFFFFFFFFFFFFFFFFFFFFFFFFFFFFFFFFF AND DUP2 MSTORE PUSH1 0x20 ADD SWAP1 DUP2 MSTORE PUSH1 0x20 ADD PUSH1 0x0 KECCAK256 PUSH1 0x0 SWAP1 SLOAD SWAP1 PUSH2 0x100 EXP SWAP1 DIV PUSH1 0xFF AND ISZERO ISZERO EQ PUSH2 0xC1A JUMPI PUSH1 0x40 MLOAD PUSH32 0x8C379A000000000000000000000000000000000000000000000000000000000 DUP2 MSTORE PUSH1 0x4 ADD PUSH2 0xC11 SWAP1 PUSH2 0x25CA JUMP JUMPDEST PUSH1 0x40 MLOAD DUP1 SWAP2 SUB SWAP1 REVERT JUMPDEST PUSH1 0x1 ISZERO ISZERO PUSH1 0x1 PUSH1 0x0 DUP6 DUP2 MSTORE PUSH1 0x20 ADD SWAP1 DUP2 MSTORE PUSH1 0x20 ADD PUSH1 0x0 KECCAK256 PUSH1 0x2 ADD PUSH1 0x0 SWAP1 SLOAD SWAP1 PUSH2 0x100 EXP SWAP1 DIV PUSH1 0xFF AND ISZERO ISZERO SUB PUSH2 0xCEE JUMPI PUSH1 0x1 ISZERO ISZERO PUSH1 0x3 PUSH1 0x0 DUP6 DUP2 MSTORE PUSH1 0x20 ADD SWAP1 DUP2 MSTORE PUSH1 0x20 ADD PUSH1 0x0 KECCAK256 PUSH1 0x0 CALLER PUSH20 0xFFFFFFFFFFFFFFFFFFFFFFFFFFFFFFFFFFFFFFFF AND PUSH20 0xFFFFFFFFFFFFFFFFFFFFFFFFFFFFFFFFFFFFFFFF AND DUP2 MSTORE PUSH1 0x20 ADD SWAP1 DUP2 MSTORE PUSH1 0x20 ADD PUSH1 0x0 KECCAK256 PUSH1 0x0 SWAP1 SLOAD SWAP1 PUSH2 0x100 EXP SWAP1 DIV PUSH1 0xFF AND ISZERO ISZERO EQ PUSH2 0xCED JUMPI PUSH1 0x40 MLOAD PUSH32 0x8C379A000000000000000000000000000000000000000000000000000000000 DUP2 MSTORE PUSH1 0x4 ADD PUSH2 0xCE4 SWAP1 PUSH2 0x265C JUMP JUMPDEST PUSH1 0x40 MLOAD DUP1 SWAP2 SUB SWAP1 REVERT JUMPDEST JUMPDEST PUSH1 0x0 PUSH2 0xCFA DUP5 DUP5 PUSH2 0x1837 JUMP JUMPDEST SWAP1 POP DUP1 ISZERO PUSH2 0xE22 JUMPI PUSH1 0x1 PUSH1 0x2 PUSH1 0x0 DUP7 DUP2 MSTORE PUSH1 0x20 ADD SWAP1 DUP2 MSTORE PUSH1 0x20 ADD PUSH1 0x0 KECCAK256 PUSH1 0x1 DUP6 PUSH2 0xD24 SWAP2 SWAP1 PUSH2 0x267C JUMP JUMPDEST DUP2 SLOAD DUP2 LT PUSH2 0xD35 JUMPI PUSH2 0xD34 PUSH2 0x2069 JUMP JUMPDEST JUMPDEST SWAP1 PUSH1 0x0 MSTORE PUSH1 0x20 PUSH1 0x0 KECCAK256 SWAP1 PUSH1 0x5 MUL ADD PUSH1 0x3 ADD PUSH1 0x0 DUP3 DUP3 SLOAD PUSH2 0xD55 SWAP2 SWAP1 PUSH2 0x26B0 JUMP JUMPDEST SWAP3 POP POP DUP2 SWAP1 SSTORE POP PUSH1 0x1 DUP1 PUSH1 0x0 DUP7 DUP2 MSTORE PUSH1 0x20 ADD SWAP1 DUP2 MSTORE PUSH1 0x20 ADD PUSH1 0x0 KECCAK256 PUSH1 0x6 ADD PUSH1 0x0 DUP3 DUP3 SLOAD PUSH2 0xD82 SWAP2 SWAP1 PUSH2 0x26B0 JUMP JUMPDEST SWAP3 POP POP DUP2 SWAP1 SSTORE POP PUSH1 0x1 PUSH1 0x5 PUSH1 0x0 DUP7 DUP2 MSTORE PUSH1 0x20 ADD SWAP1 DUP2 MSTORE PUSH1 0x20 ADD PUSH1 0x0 KECCAK256 PUSH1 0x0 ADD PUSH1 0x15 PUSH2 0x100 EXP DUP2 SLOAD DUP2 PUSH1 0xFF MUL NOT AND SWAP1 DUP4 ISZERO ISZERO MUL OR SWAP1 SSTORE POP PUSH1 0x1 PUSH1 0x4 PUSH1 0x0 DUP7 DUP2 MSTORE PUSH1 0x20 ADD SWAP1 DUP2 MSTORE PUSH1 0x20 ADD PUSH1 0x0 KECCAK256 PUSH1 0x0 CALLER PUSH20 0xFFFFFFFFFFFFFFFFFFFFFFFFFFFFFFFFFFFFFFFF AND PUSH20 0xFFFFFFFFFFFFFFFFFFFFFFFFFFFFFFFFFFFFFFFF AND DUP2 MSTORE PUSH1 0x20 ADD SWAP1 DUP2 MSTORE PUSH1 0x20 ADD PUSH1 0x0 KECCAK256 PUSH1 0x0 PUSH2 0x100 EXP DUP2 SLOAD DUP2 PUSH1 0xFF MUL NOT AND SWAP1 DUP4 ISZERO ISZERO MUL OR SWAP1 SSTORE POP JUMPDEST PUSH1 0x1 SWAP2 POP POP SWAP3 SWAP2 POP POP JUMP JUMPDEST PUSH1 0x2 PUSH1 0x0 DUP4 DUP2 MSTORE PUSH1 0x20 ADD SWAP1 DUP2 MSTORE PUSH1 0x20 ADD PUSH1 0x0 KECCAK256 DUP1 SLOAD SWAP1 POP PUSH1 0x1 DUP3 PUSH2 0xE51 SWAP2 SWAP1 PUSH2 0x267C JUMP JUMPDEST LT PUSH2 0xE91 JUMPI PUSH1 0x40 MLOAD PUSH32 0x8C379A000000000000000000000000000000000000000000000000000000000 DUP2 MSTORE PUSH1 0x4 ADD PUSH2 0xE88 SWAP1 PUSH2 0x2730 JUMP JUMPDEST PUSH1 0x40 MLOAD DUP1 SWAP2 SUB SWAP1 REVERT JUMPDEST TIMESTAMP PUSH1 0x1 PUSH1 0x0 DUP5 DUP2 MSTORE PUSH1 0x20 ADD SWAP1 DUP2 MSTORE PUSH1 0x20 ADD PUSH1 0x0 KECCAK256 PUSH1 0x4 ADD SLOAD GT PUSH2 0xEE9 JUMPI PUSH1 0x40 MLOAD PUSH32 0x8C379A000000000000000000000000000000000000000000000000000000000 DUP2 MSTORE PUSH1 0x4 ADD PUSH2 0xEE0 SWAP1 PUSH2 0x27C2 JUMP JUMPDEST PUSH1 0x40 MLOAD DUP1 SWAP2 SUB SWAP1 REVERT JUMPDEST PUSH1 0x1 PUSH1 0x0 DUP4 DUP2 MSTORE PUSH1 0x20 ADD SWAP1 DUP2 MSTORE PUSH1 0x20 ADD PUSH1 0x0 KECCAK256 PUSH1 0x0 ADD PUSH1 0x0 SWAP1 SLOAD SWAP1 PUSH2 0x100 EXP SWAP1 DIV PUSH20 0xFFFFFFFFFFFFFFFFFFFFFFFFFFFFFFFFFFFFFFFF AND PUSH20 0xFFFFFFFFFFFFFFFFFFFFFFFFFFFFFFFFFFFFFFFF AND CALLER PUSH20 0xFFFFFFFFFFFFFFFFFFFFFFFFFFFFFFFFFFFFFFFF AND EQ PUSH2 0xF8D JUMPI PUSH1 0x40 MLOAD PUSH32 0x8C379A000000000000000000000000000000000000000000000000000000000 DUP2 MSTORE PUSH1 0x4 ADD PUSH2 0xF84 SWAP1 PUSH2 0x282E JUMP JUMPDEST PUSH1 0x40 MLOAD DUP1 SWAP2 SUB SWAP1 REVERT JUMPDEST PUSH1 0x0 PUSH1 0x1 DUP3 PUSH2 0xF9C SWAP2 SWAP1 PUSH2 0x267C JUMP JUMPDEST SWAP1 POP JUMPDEST PUSH1 0x2 PUSH1 0x0 DUP5 DUP2 MSTORE PUSH1 0x20 ADD SWAP1 DUP2 MSTORE PUSH1 0x20 ADD PUSH1 0x0 KECCAK256 DUP1 SLOAD SWAP1 POP DUP2 LT ISZERO PUSH2 0x1082 JUMPI PUSH1 0x2 PUSH1 0x0 DUP5 DUP2 MSTORE PUSH1 0x20 ADD SWAP1 DUP2 MSTORE PUSH1 0x20 ADD PUSH1 0x0 KECCAK256 PUSH1 0x1 DUP3 PUSH2 0xFDD SWAP2 SWAP1 PUSH2 0x26B0 JUMP JUMPDEST DUP2 SLOAD DUP2 LT PUSH2 0xFEE JUMPI PUSH2 0xFED PUSH2 0x2069 JUMP JUMPDEST JUMPDEST SWAP1 PUSH1 0x0 MSTORE PUSH1 0x20 PUSH1 0x0 KECCAK256 SWAP1 PUSH1 0x5 MUL ADD PUSH1 0x2 PUSH1 0x0 DUP6 DUP2 MSTORE PUSH1 0x20 ADD SWAP1 DUP2 MSTORE PUSH1 0x20 ADD PUSH1 0x0 KECCAK256 DUP3 DUP2 SLOAD DUP2 LT PUSH2 0x1021 JUMPI PUSH2 0x1020 PUSH2 0x2069 JUMP JUMPDEST JUMPDEST SWAP1 PUSH1 0x0 MSTORE PUSH1 0x20 PUSH1 0x0 KECCAK256 SWAP1 PUSH1 0x5 MUL ADD PUSH1 0x0 DUP3 ADD DUP2 PUSH1 0x0 ADD SWAP1 DUP2 PUSH2 0x1043 SWAP2 SWAP1 PUSH2 0x2864 JUMP JUMPDEST POP PUSH1 0x1 DUP3 ADD SLOAD DUP2 PUSH1 0x1 ADD SSTORE PUSH1 0x2 DUP3 ADD SLOAD DUP2 PUSH1 0x2 ADD SSTORE PUSH1 0x3 DUP3 ADD SLOAD DUP2 PUSH1 0x3 ADD SSTORE PUSH1 0x4 DUP3 ADD SLOAD DUP2 PUSH1 0x4 ADD SSTORE SWAP1 POP POP DUP1 DUP1 PUSH2 0x107A SWAP1 PUSH2 0x2386 JUMP JUMPDEST SWAP2 POP POP PUSH2 0xF9F JUMP JUMPDEST POP PUSH1 0x2 PUSH1 0x0 DUP4 DUP2 MSTORE PUSH1 0x20 ADD SWAP1 DUP2 MSTORE PUSH1 0x20 ADD PUSH1 0x0 KECCAK256 DUP1 SLOAD DUP1 PUSH2 0x10A6 JUMPI PUSH2 0x10A5 PUSH2 0x294C JUMP JUMPDEST JUMPDEST PUSH1 0x1 SWAP1 SUB DUP2 DUP2 SWAP1 PUSH1 0x0 MSTORE PUSH1 0x20 PUSH1 0x0 KECCAK256 SWAP1 PUSH1 0x5 MUL ADD PUSH1 0x0 DUP1 DUP3 ADD PUSH1 0x0 PUSH2 0x10CB SWAP2 SWAP1 PUSH2 0x1886 JUMP JUMPDEST PUSH1 0x1 DUP3 ADD PUSH1 0x0 SWAP1 SSTORE PUSH1 0x2 DUP3 ADD PUSH1 0x0 SWAP1 SSTORE PUSH1 0x3 DUP3 ADD PUSH1 0x0 SWAP1 SSTORE PUSH1 0x4 DUP3 ADD PUSH1 0x0 SWAP1 SSTORE POP POP SWAP1 SSTORE POP POP JUMP JUMPDEST PUSH1 0x0 PUSH20 0xFFFFFFFFFFFFFFFFFFFFFFFFFFFFFFFFFFFFFFFF AND PUSH1 0x1 PUSH1 0x0 DUP5 DUP2 MSTORE PUSH1 0x20 ADD SWAP1 DUP2 MSTORE PUSH1 0x20 ADD PUSH1 0x0 KECCAK256 PUSH1 0x0 ADD PUSH1 0x0 SWAP1 SLOAD SWAP1 PUSH2 0x100 EXP SWAP1 DIV PUSH20 0xFFFFFFFFFFFFFFFFFFFFFFFFFFFFFFFFFFFFFFFF AND PUSH20 0xFFFFFFFFFFFFFFFFFFFFFFFFFFFFFFFFFFFFFFFF AND SUB PUSH2 0x1198 JUMPI PUSH1 0x40 MLOAD PUSH32 0x8C379A000000000000000000000000000000000000000000000000000000000 DUP2 MSTORE PUSH1 0x4 ADD PUSH2 0x118F SWAP1 PUSH2 0x2486 JUMP JUMPDEST PUSH1 0x40 MLOAD DUP1 SWAP2 SUB SWAP1 REVERT JUMPDEST PUSH1 0x0 PUSH20 0xFFFFFFFFFFFFFFFFFFFFFFFFFFFFFFFFFFFFFFFF AND DUP2 PUSH20 0xFFFFFFFFFFFFFFFFFFFFFFFFFFFFFFFFFFFFFFFF AND SUB PUSH2 0x1207 JUMPI PUSH1 0x40 MLOAD PUSH32 0x8C379A000000000000000000000000000000000000000000000000000000000 DUP2 MSTORE PUSH1 0x4 ADD PUSH2 0x11FE SWAP1 PUSH2 0x29C7 JUMP JUMPDEST PUSH1 0x40 MLOAD DUP1 SWAP2 SUB SWAP1 REVERT JUMPDEST PUSH1 0x1 PUSH1 0x0 DUP4 DUP2 MSTORE PUSH1 0x20 ADD SWAP1 DUP2 MSTORE PUSH1 0x20 ADD PUSH1 0x0 KECCAK256 PUSH1 0x0 ADD PUSH1 0x0 SWAP1 SLOAD SWAP1 PUSH2 0x100 EXP SWAP1 DIV PUSH20 0xFFFFFFFFFFFFFFFFFFFFFFFFFFFFFFFFFFFFFFFF AND PUSH20 0xFFFFFFFFFFFFFFFFFFFFFFFFFFFFFFFFFFFFFFFF AND CALLER PUSH20 0xFFFFFFFFFFFFFFFFFFFFFFFFFFFFFFFFFFFFFFFF AND EQ PUSH2 0x12AB JUMPI PUSH1 0x40 MLOAD PUSH32 0x8C379A000000000000000000000000000000000000000000000000000000000 DUP2 MSTORE PUSH1 0x4 ADD PUSH2 0x12A2 SWAP1 PUSH2 0x2A59 JUMP JUMPDEST PUSH1 0x40 MLOAD DUP1 SWAP2 SUB SWAP1 REVERT JUMPDEST PUSH1 0x1 ISZERO ISZERO PUSH1 0x1 PUSH1 0x0 DUP5 DUP2 MSTORE PUSH1 0x20 ADD SWAP1 DUP2 MSTORE PUSH1 0x20 ADD PUSH1 0x0 KECCAK256 PUSH1 0x2 ADD PUSH1 0x0 SWAP1 SLOAD SWAP1 PUSH2 0x100 EXP SWAP1 DIV PUSH1 0xFF AND ISZERO ISZERO EQ PUSH2 0x1315 JUMPI PUSH1 0x40 MLOAD PUSH32 0x8C379A000000000000000000000000000000000000000000000000000000000 DUP2 MSTORE PUSH1 0x4 ADD PUSH2 0x130C SWAP1 PUSH2 0x2AC5 JUMP JUMPDEST PUSH1 0x40 MLOAD DUP1 SWAP2 SUB SWAP1 REVERT JUMPDEST PUSH1 0x1 ISZERO ISZERO PUSH1 0x1 PUSH1 0x0 DUP5 DUP2 MSTORE PUSH1 0x20 ADD SWAP1 DUP2 MSTORE PUSH1 0x20 ADD PUSH1 0x0 KECCAK256 PUSH1 0x2 ADD PUSH1 0x0 SWAP1 SLOAD SWAP1 PUSH2 0x100 EXP SWAP1 DIV PUSH1 0xFF AND ISZERO ISZERO SUB PUSH2 0x13DD JUMPI PUSH1 0x1 PUSH1 0x3 PUSH1 0x0 DUP5 DUP2 MSTORE PUSH1 0x20 ADD SWAP1 DUP2 MSTORE PUSH1 0x20 ADD PUSH1 0x0 KECCAK256 PUSH1 0x0 DUP4 PUSH20 0xFFFFFFFFFFFFFFFFFFFFFFFFFFFFFFFFFFFFFFFF AND PUSH20 0xFFFFFFFFFFFFFFFFFFFFFFFFFFFFFFFFFFFFFFFF AND DUP2 MSTORE PUSH1 0x20 ADD SWAP1 DUP2 MSTORE PUSH1 0x20 ADD PUSH1 0x0 KECCAK256 PUSH1 0x0 PUSH2 0x100 EXP DUP2 SLOAD DUP2 PUSH1 0xFF MUL NOT AND SWAP1 DUP4 ISZERO ISZERO MUL OR SWAP1 SSTORE POP PUSH1 0x1 PUSH1 0x5 PUSH1 0x0 DUP5 DUP2 MSTORE PUSH1 0x20 ADD SWAP1 DUP2 MSTORE PUSH1 0x20 ADD PUSH1 0x0 KECCAK256 PUSH1 0x0 ADD PUSH1 0x14 PUSH2 0x100 EXP DUP2 SLOAD DUP2 PUSH1 0xFF MUL NOT AND SWAP1 DUP4 ISZERO ISZERO MUL OR SWAP1 SSTORE POP JUMPDEST POP POP JUMP JUMPDEST PUSH1 0x1 PUSH1 0x0 DUP6 DUP2 MSTORE PUSH1 0x20 ADD SWAP1 DUP2 MSTORE PUSH1 0x20 ADD PUSH1 0x0 KECCAK256 PUSH1 0x0 ADD PUSH1 0x0 SWAP1 SLOAD SWAP1 PUSH2 0x100 EXP SWAP1 DIV PUSH20 0xFFFFFFFFFFFFFFFFFFFFFFFFFFFFFFFFFFFFFFFF AND PUSH20 0xFFFFFFFFFFFFFFFFFFFFFFFFFFFFFFFFFFFFFFFF AND CALLER PUSH20 0xFFFFFFFFFFFFFFFFFFFFFFFFFFFFFFFFFFFFFFFF AND EQ PUSH2 0x1485 JUMPI PUSH1 0x40 MLOAD PUSH32 0x8C379A000000000000000000000000000000000000000000000000000000000 DUP2 MSTORE PUSH1 0x4 ADD PUSH2 0x147C SWAP1 PUSH2 0x2B57 JUMP JUMPDEST PUSH1 0x40 MLOAD DUP1 SWAP2 SUB SWAP1 REVERT JUMPDEST PUSH1 0x0 PUSH1 0x40 MLOAD DUP1 PUSH1 0xA0 ADD PUSH1 0x40 MSTORE DUP1 DUP6 DUP2 MSTORE PUSH1 0x20 ADD DUP4 DUP2 MSTORE PUSH1 0x20 ADD DUP5 DUP2 MSTORE PUSH1 0x20 ADD PUSH1 0x0 DUP2 MSTORE PUSH1 0x20 ADD PUSH1 0x0 DUP2 MSTORE POP SWAP1 POP PUSH1 0x2 PUSH1 0x0 DUP7 DUP2 MSTORE PUSH1 0x20 ADD SWAP1 DUP2 MSTORE PUSH1 0x20 ADD PUSH1 0x0 KECCAK256 DUP2 SWAP1 DUP1 PUSH1 0x1 DUP2 SLOAD ADD DUP1 DUP3 SSTORE DUP1 SWAP2 POP POP PUSH1 0x1 SWAP1 SUB SWAP1 PUSH1 0x0 MSTORE PUSH1 0x20 PUSH1 0x0 KECCAK256 SWAP1 PUSH1 0x5 MUL ADD PUSH1 0x0 SWAP1 SWAP2 SWAP1 SWAP2 SWAP1 SWAP2 POP PUSH1 0x0 DUP3 ADD MLOAD DUP2 PUSH1 0x0 ADD SWAP1 DUP2 PUSH2 0x1504 SWAP2 SWAP1 PUSH2 0x2B77 JUMP JUMPDEST POP PUSH1 0x20 DUP3 ADD MLOAD DUP2 PUSH1 0x1 ADD SSTORE PUSH1 0x40 DUP3 ADD MLOAD DUP2 PUSH1 0x2 ADD SSTORE PUSH1 0x60 DUP3 ADD MLOAD DUP2 PUSH1 0x3 ADD SSTORE PUSH1 0x80 DUP3 ADD MLOAD DUP2 PUSH1 0x4 ADD SSTORE POP POP POP POP POP POP POP JUMP JUMPDEST PUSH1 0x6 DUP2 DUP2 SLOAD DUP2 LT PUSH2 0x1546 JUMPI PUSH1 0x0 DUP1 REVERT JUMPDEST SWAP1 PUSH1 0x0 MSTORE PUSH1 0x20 PUSH1 0x0 KECCAK256 ADD PUSH1 0x0 SWAP2 POP SWAP1 POP DUP1 PUSH1 0x0 ADD PUSH1 0x0 SWAP1 SLOAD SWAP1 PUSH2 0x100 EXP SWAP1 DIV PUSH20 0xFFFFFFFFFFFFFFFFFFFFFFFFFFFFFFFFFFFFFFFF AND SWAP1 DUP1 PUSH1 0x0 ADD PUSH1 0x14 SWAP1 SLOAD SWAP1 PUSH2 0x100 EXP SWAP1 DIV PUSH1 0xFF AND SWAP1 DUP1 PUSH1 0x0 ADD PUSH1 0x15 SWAP1 SLOAD SWAP1 PUSH2 0x100 EXP SWAP1 DIV PUSH1 0xFF AND SWAP1 POP DUP4 JUMP JUMPDEST PUSH1 0x0 DUP1 PUSH1 0x2 PUSH1 0x0 DUP5 DUP2 MSTORE PUSH1 0x20 ADD SWAP1 DUP2 MSTORE PUSH1 0x20 ADD PUSH1 0x0 KECCAK256 DUP1 SLOAD SWAP1 POP SWAP1 POP DUP1 SWAP2 POP POP SWAP2 SWAP1 POP JUMP JUMPDEST PUSH1 0x0 PUSH1 0x1 DUP4 GT PUSH2 0x1610 JUMPI PUSH1 0x40 MLOAD PUSH32 0x8C379A000000000000000000000000000000000000000000000000000000000 DUP2 MSTORE PUSH1 0x4 ADD PUSH2 0x1607 SWAP1 PUSH2 0x2CBB JUMP JUMPDEST PUSH1 0x40 MLOAD DUP1 SWAP2 SUB SWAP1 REVERT JUMPDEST TIMESTAMP DUP3 GT PUSH2 0x1652 JUMPI PUSH1 0x40 MLOAD PUSH32 0x8C379A000000000000000000000000000000000000000000000000000000000 DUP2 MSTORE PUSH1 0x4 ADD PUSH2 0x1649 SWAP1 PUSH2 0x2D27 JUMP JUMPDEST PUSH1 0x40 MLOAD DUP1 SWAP2 SUB SWAP1 REVERT JUMPDEST PUSH1 0x0 PUSH1 0x40 MLOAD DUP1 PUSH2 0x120 ADD PUSH1 0x40 MSTORE DUP1 CALLER PUSH20 0xFFFFFFFFFFFFFFFFFFFFFFFFFFFFFFFFFFFFFFFF AND DUP2 MSTORE PUSH1 0x20 ADD DUP8 DUP2 MSTORE PUSH1 0x20 ADD DUP7 ISZERO ISZERO DUP2 MSTORE PUSH1 0x20 ADD DUP6 DUP2 MSTORE PUSH1 0x20 ADD DUP5 DUP2 MSTORE PUSH1 0x20 ADD DUP6 DUP6 PUSH2 0x16A2 SWAP2 SWAP1 PUSH2 0x26B0 JUMP JUMPDEST DUP2 MSTORE PUSH1 0x20 ADD PUSH1 0x0 DUP2 MSTORE PUSH1 0x20 ADD PUSH1 0x40 MLOAD DUP1 PUSH1 0x20 ADD PUSH1 0x40 MSTORE DUP1 PUSH1 0x0 DUP2 MSTORE POP DUP2 MSTORE PUSH1 0x20 ADD PUSH1 0x0 DUP1 NOT AND DUP2 MSTORE POP SWAP1 POP PUSH1 0x1 PUSH1 0x0 DUP1 DUP3 DUP3 SLOAD PUSH2 0x16DF SWAP2 SWAP1 PUSH2 0x26B0 JUMP JUMPDEST SWAP3 POP POP DUP2 SWAP1 SSTORE POP DUP1 PUSH1 0x1 PUSH1 0x0 DUP1 SLOAD DUP2 MSTORE PUSH1 0x20 ADD SWAP1 DUP2 MSTORE PUSH1 0x20 ADD PUSH1 0x0 KECCAK256 PUSH1 0x0 DUP3 ADD MLOAD DUP2 PUSH1 0x0 ADD PUSH1 0x0 PUSH2 0x100 EXP DUP2 SLOAD DUP2 PUSH20 0xFFFFFFFFFFFFFFFFFFFFFFFFFFFFFFFFFFFFFFFF MUL NOT AND SWAP1 DUP4 PUSH20 0xFFFFFFFFFFFFFFFFFFFFFFFFFFFFFFFFFFFFFFFF AND MUL OR SWAP1 SSTORE POP PUSH1 0x20 DUP3 ADD MLOAD DUP2 PUSH1 0x1 ADD SWAP1 DUP2 PUSH2 0x1757 SWAP2 SWAP1 PUSH2 0x2B77 JUMP JUMPDEST POP PUSH1 0x40 DUP3 ADD MLOAD DUP2 PUSH1 0x2 ADD PUSH1 0x0 PUSH2 0x100 EXP DUP2 SLOAD DUP2 PUSH1 0xFF MUL NOT AND SWAP1 DUP4 ISZERO ISZERO MUL OR SWAP1 SSTORE POP PUSH1 0x60 DUP3 ADD MLOAD DUP2 PUSH1 0x3 ADD SSTORE PUSH1 0x80 DUP3 ADD MLOAD DUP2 PUSH1 0x4 ADD SSTORE PUSH1 0xA0 DUP3 ADD MLOAD DUP2 PUSH1 0x5 ADD SSTORE PUSH1 0xC0 DUP3 ADD MLOAD DUP2 PUSH1 0x6 ADD SSTORE PUSH1 0xE0 DUP3 ADD MLOAD DUP2 PUSH1 0x7 ADD SWAP1 DUP2 PUSH2 0x17B5 SWAP2 SWAP1 PUSH2 0x2B77 JUMP JUMPDEST POP PUSH2 0x100 DUP3 ADD MLOAD DUP2 PUSH1 0x8 ADD SSTORE SWAP1 POP POP CALLER PUSH20 0xFFFFFFFFFFFFFFFFFFFFFFFFFFFFFFFFFFFFFFFF AND PUSH32 0x499E15DA008E9096F6BF10DA889899C6D4910068BD83A00171C190C151EE24D2 DUP8 DUP8 DUP8 DUP8 DUP10 DUP10 PUSH2 0x180C SWAP2 SWAP1 PUSH2 0x26B0 JUMP JUMPDEST PUSH1 0x0 SLOAD PUSH1 0x40 MLOAD PUSH2 0x1821 SWAP7 SWAP6 SWAP5 SWAP4 SWAP3 SWAP2 SWAP1 PUSH2 0x2D47 JUMP JUMPDEST PUSH1 0x40 MLOAD DUP1 SWAP2 SUB SWAP1 LOG2 PUSH1 0x0 SLOAD SWAP2 POP POP SWAP5 SWAP4 POP POP POP POP JUMP JUMPDEST PUSH1 0x0 DUP2 PUSH1 0x2 PUSH1 0x0 DUP6 DUP2 MSTORE PUSH1 0x20 ADD SWAP1 DUP2 MSTORE PUSH1 0x20 ADD PUSH1 0x0 KECCAK256 PUSH1 0x1 DUP5 PUSH2 0x185A SWAP2 SWAP1 PUSH2 0x267C JUMP JUMPDEST DUP2 SLOAD DUP2 LT PUSH2 0x186B JUMPI PUSH2 0x186A PUSH2 0x2069 JUMP JUMPDEST JUMPDEST SWAP1 PUSH1 0x0 MSTORE PUSH1 0x20 PUSH1 0x0 KECCAK256 SWAP1 PUSH1 0x5 MUL ADD PUSH1 0x1 ADD SLOAD EQ SWAP1 POP SWAP3 SWAP2 POP POP JUMP JUMPDEST POP DUP1 SLOAD PUSH2 0x1892 SWAP1 PUSH2 0x1F60 JUMP JUMPDEST PUSH1 0x0 DUP3 SSTORE DUP1 PUSH1 0x1F LT PUSH2 0x18A4 JUMPI POP PUSH2 0x18C3 JUMP JUMPDEST PUSH1 0x1F ADD PUSH1 0x20 SWAP1 DIV SWAP1 PUSH1 0x0 MSTORE PUSH1 0x20 PUSH1 0x0 KECCAK256 SWAP1 DUP2 ADD SWAP1 PUSH2 0x18C2 SWAP2 SWAP1 PUSH2 0x18C6 JUMP JUMPDEST JUMPDEST POP JUMP JUMPDEST JUMPDEST DUP1 DUP3 GT ISZERO PUSH2 0x18DF JUMPI PUSH1 0x0 DUP2 PUSH1 0x0 SWAP1 SSTORE POP PUSH1 0x1 ADD PUSH2 0x18C7 JUMP JUMPDEST POP SWAP1 JUMP JUMPDEST PUSH1 0x0 PUSH1 0x40 MLOAD SWAP1 POP SWAP1 JUMP JUMPDEST PUSH1 0x0 DUP1 REVERT JUMPDEST PUSH1 0x0 DUP1 REVERT JUMPDEST PUSH1 0x0 DUP2 SWAP1 POP SWAP2 SWAP1 POP JUMP JUMPDEST PUSH2 0x190A DUP2 PUSH2 0x18F7 JUMP JUMPDEST DUP2 EQ PUSH2 0x1915 JUMPI PUSH1 0x0 DUP1 REVERT JUMPDEST POP JUMP JUMPDEST PUSH1 0x0 DUP2 CALLDATALOAD SWAP1 POP PUSH2 0x1927 DUP2 PUSH2 0x1901 JUMP JUMPDEST SWAP3 SWAP2 POP POP JUMP JUMPDEST PUSH1 0x0 PUSH1 0x20 DUP3 DUP5 SUB SLT ISZERO PUSH2 0x1943 JUMPI PUSH2 0x1942 PUSH2 0x18ED JUMP JUMPDEST JUMPDEST PUSH1 0x0 PUSH2 0x1951 DUP5 DUP3 DUP6 ADD PUSH2 0x1918 JUMP JUMPDEST SWAP2 POP POP SWAP3 SWAP2 POP POP JUMP JUMPDEST PUSH1 0x0 PUSH20 0xFFFFFFFFFFFFFFFFFFFFFFFFFFFFFFFFFFFFFFFF DUP3 AND SWAP1 POP SWAP2 SWAP1 POP JUMP JUMPDEST PUSH1 0x0 PUSH2 0x1985 DUP3 PUSH2 0x195A JUMP JUMPDEST SWAP1 POP SWAP2 SWAP1 POP JUMP JUMPDEST PUSH2 0x1995 DUP2 PUSH2 0x197A JUMP JUMPDEST DUP3 MSTORE POP POP JUMP JUMPDEST PUSH1 0x0 DUP2 MLOAD SWAP1 POP SWAP2 SWAP1 POP JUMP JUMPDEST PUSH1 0x0 DUP3 DUP3 MSTORE PUSH1 0x20 DUP3 ADD SWAP1 POP SWAP3 SWAP2 POP POP JUMP JUMPDEST PUSH1 0x0 JUMPDEST DUP4 DUP2 LT ISZERO PUSH2 0x19D5 JUMPI DUP1 DUP3 ADD MLOAD DUP2 DUP5 ADD MSTORE PUSH1 0x20 DUP2 ADD SWAP1 POP PUSH2 0x19BA JUMP JUMPDEST PUSH1 0x0 DUP5 DUP5 ADD MSTORE POP POP POP POP JUMP JUMPDEST PUSH1 0x0 PUSH1 0x1F NOT PUSH1 0x1F DUP4 ADD AND SWAP1 POP SWAP2 SWAP1 POP JUMP JUMPDEST PUSH1 0x0 PUSH2 0x19FD DUP3 PUSH2 0x199B JUMP JUMPDEST PUSH2 0x1A07 DUP2 DUP6 PUSH2 0x19A6 JUMP JUMPDEST SWAP4 POP PUSH2 0x1A17 DUP2 DUP6 PUSH1 0x20 DUP7 ADD PUSH2 0x19B7 JUMP JUMPDEST PUSH2 0x1A20 DUP2 PUSH2 0x19E1 JUMP JUMPDEST DUP5 ADD SWAP2 POP POP SWAP3 SWAP2 POP POP JUMP JUMPDEST PUSH1 0x0 DUP2 ISZERO ISZERO SWAP1 POP SWAP2 SWAP1 POP JUMP JUMPDEST PUSH2 0x1A40 DUP2 PUSH2 0x1A2B JUMP JUMPDEST DUP3 MSTORE POP POP JUMP JUMPDEST PUSH2 0x1A4F DUP2 PUSH2 0x18F7 JUMP JUMPDEST DUP3 MSTORE POP POP JUMP JUMPDEST PUSH1 0x0 DUP2 SWAP1 POP SWAP2 SWAP1 POP JUMP JUMPDEST PUSH2 0x1A68 DUP2 PUSH2 0x1A55 JUMP JUMPDEST DUP3 MSTORE POP POP JUMP JUMPDEST PUSH1 0x0 PUSH2 0x120 DUP3 ADD SWAP1 POP PUSH2 0x1A84 PUSH1 0x0 DUP4 ADD DUP13 PUSH2 0x198C JUMP JUMPDEST DUP2 DUP2 SUB PUSH1 0x20 DUP4 ADD MSTORE PUSH2 0x1A96 DUP2 DUP12 PUSH2 0x19F2 JUMP JUMPDEST SWAP1 POP PUSH2 0x1AA5 PUSH1 0x40 DUP4 ADD DUP11 PUSH2 0x1A37 JUMP JUMPDEST PUSH2 0x1AB2 PUSH1 0x60 DUP4 ADD DUP10 PUSH2 0x1A46 JUMP JUMPDEST PUSH2 0x1ABF PUSH1 0x80 DUP4 ADD DUP9 PUSH2 0x1A46 JUMP JUMPDEST PUSH2 0x1ACC PUSH1 0xA0 DUP4 ADD DUP8 PUSH2 0x1A46 JUMP JUMPDEST PUSH2 0x1AD9 PUSH1 0xC0 DUP4 ADD DUP7 PUSH2 0x1A46 JUMP JUMPDEST DUP2 DUP2 SUB PUSH1 0xE0 DUP4 ADD MSTORE PUSH2 0x1AEB DUP2 DUP6 PUSH2 0x19F2 JUMP JUMPDEST SWAP1 POP PUSH2 0x1AFB PUSH2 0x100 DUP4 ADD DUP5 PUSH2 0x1A5F JUMP JUMPDEST SWAP11 SWAP10 POP POP POP POP POP POP POP POP POP POP JUMP JUMPDEST PUSH2 0x1B12 DUP2 PUSH2 0x197A JUMP JUMPDEST DUP2 EQ PUSH2 0x1B1D JUMPI PUSH1 0x0 DUP1 REVERT JUMPDEST POP JUMP JUMPDEST PUSH1 0x0 DUP2 CALLDATALOAD SWAP1 POP PUSH2 0x1B2F DUP2 PUSH2 0x1B09 JUMP JUMPDEST SWAP3 SWAP2 POP POP JUMP JUMPDEST PUSH1 0x0 DUP1 PUSH1 0x40 DUP4 DUP6 SUB SLT ISZERO PUSH2 0x1B4C JUMPI PUSH2 0x1B4B PUSH2 0x18ED JUMP JUMPDEST JUMPDEST PUSH1 0x0 PUSH2 0x1B5A DUP6 DUP3 DUP7 ADD PUSH2 0x1918 JUMP JUMPDEST SWAP3 POP POP PUSH1 0x20 PUSH2 0x1B6B DUP6 DUP3 DUP7 ADD PUSH2 0x1B20 JUMP JUMPDEST SWAP2 POP POP SWAP3 POP SWAP3 SWAP1 POP JUMP JUMPDEST PUSH1 0x0 PUSH1 0x20 DUP3 ADD SWAP1 POP PUSH2 0x1B8A PUSH1 0x0 DUP4 ADD DUP5 PUSH2 0x1A37 JUMP JUMPDEST SWAP3 SWAP2 POP POP JUMP JUMPDEST PUSH1 0x0 PUSH1 0x20 DUP3 ADD SWAP1 POP PUSH2 0x1BA5 PUSH1 0x0 DUP4 ADD DUP5 PUSH2 0x1A46 JUMP JUMPDEST SWAP3 SWAP2 POP POP JUMP JUMPDEST PUSH1 0x0 PUSH1 0x20 DUP3 ADD SWAP1 POP DUP2 DUP2 SUB PUSH1 0x0 DUP4 ADD MSTORE PUSH2 0x1BC5 DUP2 DUP5 PUSH2 0x19F2 JUMP JUMPDEST SWAP1 POP SWAP3 SWAP2 POP POP JUMP JUMPDEST PUSH1 0x0 DUP1 PUSH1 0x40 DUP4 DUP6 SUB SLT ISZERO PUSH2 0x1BE4 JUMPI PUSH2 0x1BE3 PUSH2 0x18ED JUMP JUMPDEST JUMPDEST PUSH1 0x0 PUSH2 0x1BF2 DUP6 DUP3 DUP7 ADD PUSH2 0x1918 JUMP JUMPDEST SWAP3 POP POP PUSH1 0x20 PUSH2 0x1C03 DUP6 DUP3 DUP7 ADD PUSH2 0x1918 JUMP JUMPDEST SWAP2 POP POP SWAP3 POP SWAP3 SWAP1 POP JUMP JUMPDEST PUSH1 0x0 PUSH1 0xA0 DUP3 ADD SWAP1 POP DUP2 DUP2 SUB PUSH1 0x0 DUP4 ADD MSTORE PUSH2 0x1C27 DUP2 DUP9 PUSH2 0x19F2 JUMP JUMPDEST SWAP1 POP PUSH2 0x1C36 PUSH1 0x20 DUP4 ADD DUP8 PUSH2 0x1A46 JUMP JUMPDEST PUSH2 0x1C43 PUSH1 0x40 DUP4 ADD DUP7 PUSH2 0x1A5F JUMP JUMPDEST PUSH2 0x1C50 PUSH1 0x60 DUP4 ADD DUP6 PUSH2 0x1A46 JUMP JUMPDEST PUSH2 0x1C5D PUSH1 0x80 DUP4 ADD DUP5 PUSH2 0x1A46 JUMP JUMPDEST SWAP7 SWAP6 POP POP POP POP POP POP JUMP JUMPDEST PUSH1 0x0 PUSH1 0x60 DUP3 ADD SWAP1 POP PUSH2 0x1C7C PUSH1 0x0 DUP4 ADD DUP7 PUSH2 0x198C JUMP JUMPDEST PUSH2 0x1C89 PUSH1 0x20 DUP4 ADD DUP6 PUSH2 0x1A37 JUMP JUMPDEST PUSH2 0x1C96 PUSH1 0x40 DUP4 ADD DUP5 PUSH2 0x1A37 JUMP JUMPDEST SWAP5 SWAP4 POP POP POP POP JUMP JUMPDEST PUSH1 0x0 DUP1 REVERT JUMPDEST PUSH1 0x0 DUP1 REVERT JUMPDEST PUSH32 0x4E487B7100000000000000000000000000000000000000000000000000000000 PUSH1 0x0 MSTORE PUSH1 0x41 PUSH1 0x4 MSTORE PUSH1 0x24 PUSH1 0x0 REVERT JUMPDEST PUSH2 0x1CE0 DUP3 PUSH2 0x19E1 JUMP JUMPDEST DUP2 ADD DUP2 DUP2 LT PUSH8 0xFFFFFFFFFFFFFFFF DUP3 GT OR ISZERO PUSH2 0x1CFF JUMPI PUSH2 0x1CFE PUSH2 0x1CA8 JUMP JUMPDEST JUMPDEST DUP1 PUSH1 0x40 MSTORE POP POP POP JUMP JUMPDEST PUSH1 0x0 PUSH2 0x1D12 PUSH2 0x18E3 JUMP JUMPDEST SWAP1 POP PUSH2 0x1D1E DUP3 DUP3 PUSH2 0x1CD7 JUMP JUMPDEST SWAP2 SWAP1 POP JUMP JUMPDEST PUSH1 0x0 PUSH8 0xFFFFFFFFFFFFFFFF DUP3 GT ISZERO PUSH2 0x1D3E JUMPI PUSH2 0x1D3D PUSH2 0x1CA8 JUMP JUMPDEST JUMPDEST PUSH2 0x1D47 DUP3 PUSH2 0x19E1 JUMP JUMPDEST SWAP1 POP PUSH1 0x20 DUP2 ADD SWAP1 POP SWAP2 SWAP1 POP JUMP JUMPDEST DUP3 DUP2 DUP4 CALLDATACOPY PUSH1 0x0 DUP4 DUP4 ADD MSTORE POP POP POP JUMP JUMPDEST PUSH1 0x0 PUSH2 0x1D76 PUSH2 0x1D71 DUP5 PUSH2 0x1D23 JUMP JUMPDEST PUSH2 0x1D08 JUMP JUMPDEST SWAP1 POP DUP3 DUP2 MSTORE PUSH1 0x20 DUP2 ADD DUP5 DUP5 DUP5 ADD GT ISZERO PUSH2 0x1D92 JUMPI PUSH2 0x1D91 PUSH2 0x1CA3 JUMP JUMPDEST JUMPDEST PUSH2 0x1D9D DUP5 DUP3 DUP6 PUSH2 0x1D54 JUMP JUMPDEST POP SWAP4 SWAP3 POP POP POP JUMP JUMPDEST PUSH1 0x0 DUP3 PUSH1 0x1F DUP4 ADD SLT PUSH2 0x1DBA JUMPI PUSH2 0x1DB9 PUSH2 0x1C9E JUMP JUMPDEST JUMPDEST DUP2 CALLDATALOAD PUSH2 0x1DCA DUP5 DUP3 PUSH1 0x20 DUP7 ADD PUSH2 0x1D63 JUMP JUMPDEST SWAP2 POP POP SWAP3 SWAP2 POP POP JUMP JUMPDEST PUSH2 0x1DDC DUP2 PUSH2 0x1A55 JUMP JUMPDEST DUP2 EQ PUSH2 0x1DE7 JUMPI PUSH1 0x0 DUP1 REVERT JUMPDEST POP JUMP JUMPDEST PUSH1 0x0 DUP2 CALLDATALOAD SWAP1 POP PUSH2 0x1DF9 DUP2 PUSH2 0x1DD3 JUMP JUMPDEST SWAP3 SWAP2 POP POP JUMP JUMPDEST PUSH1 0x0 DUP1 PUSH1 0x0 DUP1 PUSH1 0x80 DUP6 DUP8 SUB SLT ISZERO PUSH2 0x1E19 JUMPI PUSH2 0x1E18 PUSH2 0x18ED JUMP JUMPDEST JUMPDEST PUSH1 0x0 PUSH2 0x1E27 DUP8 DUP3 DUP9 ADD PUSH2 0x1918 JUMP JUMPDEST SWAP5 POP POP PUSH1 0x20 DUP6 ADD CALLDATALOAD PUSH8 0xFFFFFFFFFFFFFFFF DUP2 GT ISZERO PUSH2 0x1E48 JUMPI PUSH2 0x1E47 PUSH2 0x18F2 JUMP JUMPDEST JUMPDEST PUSH2 0x1E54 DUP8 DUP3 DUP9 ADD PUSH2 0x1DA5 JUMP JUMPDEST SWAP4 POP POP PUSH1 0x40 PUSH2 0x1E65 DUP8 DUP3 DUP9 ADD PUSH2 0x1DEA JUMP JUMPDEST SWAP3 POP POP PUSH1 0x60 PUSH2 0x1E76 DUP8 DUP3 DUP9 ADD PUSH2 0x1918 JUMP JUMPDEST SWAP2 POP POP SWAP3 SWAP6 SWAP2 SWAP5 POP SWAP3 POP JUMP JUMPDEST PUSH2 0x1E8B DUP2 PUSH2 0x1A2B JUMP JUMPDEST DUP2 EQ PUSH2 0x1E96 JUMPI PUSH1 0x0 DUP1 REVERT JUMPDEST POP JUMP JUMPDEST PUSH1 0x0 DUP2 CALLDATALOAD SWAP1 POP PUSH2 0x1EA8 DUP2 PUSH2 0x1E82 JUMP JUMPDEST SWAP3 SWAP2 POP POP JUMP JUMPDEST PUSH1 0x0 DUP1 PUSH1 0x0 DUP1 PUSH1 0x80 DUP6 DUP8 SUB SLT ISZERO PUSH2 0x1EC8 JUMPI PUSH2 0x1EC7 PUSH2 0x18ED JUMP JUMPDEST JUMPDEST PUSH1 0x0 DUP6 ADD CALLDATALOAD PUSH8 0xFFFFFFFFFFFFFFFF DUP2 GT ISZERO PUSH2 0x1EE6 JUMPI PUSH2 0x1EE5 PUSH2 0x18F2 JUMP JUMPDEST JUMPDEST PUSH2 0x1EF2 DUP8 DUP3 DUP9 ADD PUSH2 0x1DA5 JUMP JUMPDEST SWAP5 POP POP PUSH1 0x20 PUSH2 0x1F03 DUP8 DUP3 DUP9 ADD PUSH2 0x1E99 JUMP JUMPDEST SWAP4 POP POP PUSH1 0x40 PUSH2 0x1F14 DUP8 DUP3 DUP9 ADD PUSH2 0x1918 JUMP JUMPDEST SWAP3 POP POP PUSH1 0x60 PUSH2 0x1F25 DUP8 DUP3 DUP9 ADD PUSH2 0x1918 JUMP JUMPDEST SWAP2 POP POP SWAP3 SWAP6 SWAP2 SWAP5 POP SWAP3 POP JUMP JUMPDEST PUSH32 0x4E487B7100000000000000000000000000000000000000000000000000000000 PUSH1 0x0 MSTORE PUSH1 0x22 PUSH1 0x4 MSTORE PUSH1 0x24 PUSH1 0x0 REVERT JUMPDEST PUSH1 0x0 PUSH1 0x2 DUP3 DIV SWAP1 POP PUSH1 0x1 DUP3 AND DUP1 PUSH2 0x1F78 JUMPI PUSH1 0x7F DUP3 AND SWAP2 POP JUMPDEST PUSH1 0x20 DUP3 LT DUP2 SUB PUSH2 0x1F8B JUMPI PUSH2 0x1F8A PUSH2 0x1F31 JUMP JUMPDEST JUMPDEST POP SWAP2 SWAP1 POP JUMP JUMPDEST PUSH32 0x43616D706169676E2069732079657420746F20456E6400000000000000000000 PUSH1 0x0 DUP3 ADD MSTORE POP JUMP JUMPDEST PUSH1 0x0 PUSH2 0x1FC7 PUSH1 0x16 DUP4 PUSH2 0x19A6 JUMP JUMPDEST SWAP2 POP PUSH2 0x1FD2 DUP3 PUSH2 0x1F91 JUMP JUMPDEST PUSH1 0x20 DUP3 ADD SWAP1 POP SWAP2 SWAP1 POP JUMP JUMPDEST PUSH1 0x0 PUSH1 0x20 DUP3 ADD SWAP1 POP DUP2 DUP2 SUB PUSH1 0x0 DUP4 ADD MSTORE PUSH2 0x1FF6 DUP2 PUSH2 0x1FBA JUMP JUMPDEST SWAP1 POP SWAP2 SWAP1 POP JUMP JUMPDEST PUSH32 0x43616D706169676E2069732079657420746F2073746172740000000000000000 PUSH1 0x0 DUP3 ADD MSTORE POP JUMP JUMPDEST PUSH1 0x0 PUSH2 0x2033 PUSH1 0x18 DUP4 PUSH2 0x19A6 JUMP JUMPDEST SWAP2 POP PUSH2 0x203E DUP3 PUSH2 0x1FFD JUMP JUMPDEST PUSH1 0x20 DUP3 ADD SWAP1 POP SWAP2 SWAP1 POP JUMP JUMPDEST PUSH1 0x0 PUSH1 0x20 DUP3 ADD SWAP1 POP DUP2 DUP2 SUB PUSH1 0x0 DUP4 ADD MSTORE PUSH2 0x2062 DUP2 PUSH2 0x2026 JUMP JUMPDEST SWAP1 POP SWAP2 SWAP1 POP JUMP JUMPDEST PUSH32 0x4E487B7100000000000000000000000000000000000000000000000000000000 PUSH1 0x0 MSTORE PUSH1 0x32 PUSH1 0x4 MSTORE PUSH1 0x24 PUSH1 0x0 REVERT JUMPDEST PUSH1 0x0 DUP2 SLOAD SWAP1 POP PUSH2 0x20A7 DUP2 PUSH2 0x1F60 JUMP JUMPDEST SWAP1 POP SWAP2 SWAP1 POP JUMP JUMPDEST PUSH1 0x0 DUP2 SWAP1 POP DUP2 PUSH1 0x0 MSTORE PUSH1 0x20 PUSH1 0x0 KECCAK256 SWAP1 POP SWAP2 SWAP1 POP JUMP JUMPDEST PUSH1 0x0 DUP2 SWAP1 POP DUP2 PUSH1 0x0 MSTORE PUSH1 0x20 PUSH1 0x0 KECCAK256 SWAP1 POP SWAP2 SWAP1 POP JUMP JUMPDEST PUSH1 0x0 PUSH1 0x20 PUSH1 0x1F DUP4 ADD DIV SWAP1 POP SWAP2 SWAP1 POP JUMP JUMPDEST PUSH1 0x0 DUP3 DUP3 SHL SWAP1 POP SWAP3 SWAP2 POP POP JUMP JUMPDEST PUSH1 0x0 PUSH1 0x8 DUP4 MUL PUSH2 0x2125 PUSH32 0xFFFFFFFFFFFFFFFFFFFFFFFFFFFFFFFFFFFFFFFFFFFFFFFFFFFFFFFFFFFFFFFF DUP3 PUSH2 0x20E8 JUMP JUMPDEST PUSH2 0x212F DUP7 DUP4 PUSH2 0x20E8 JUMP JUMPDEST SWAP6 POP DUP1 NOT DUP5 AND SWAP4 POP DUP1 DUP7 AND DUP5 OR SWAP3 POP POP POP SWAP4 SWAP3 POP POP POP JUMP JUMPDEST PUSH1 0x0 DUP2 SWAP1 POP SWAP2 SWAP1 POP JUMP JUMPDEST PUSH1 0x0 PUSH2 0x216C PUSH2 0x2167 PUSH2 0x2162 DUP5 PUSH2 0x18F7 JUMP JUMPDEST PUSH2 0x2147 JUMP JUMPDEST PUSH2 0x18F7 JUMP JUMPDEST SWAP1 POP SWAP2 SWAP1 POP JUMP JUMPDEST PUSH1 0x0 DUP2 SWAP1 POP SWAP2 SWAP1 POP JUMP JUMPDEST PUSH2 0x2186 DUP4 PUSH2 0x2151 JUMP JUMPDEST PUSH2 0x219A PUSH2 0x2192 DUP3 PUSH2 0x2173 JUMP JUMPDEST DUP5 DUP5 SLOAD PUSH2 0x20F5 JUMP JUMPDEST DUP3 SSTORE POP POP POP POP JUMP JUMPDEST PUSH1 0x0 SWAP1 JUMP JUMPDEST PUSH2 0x21AF PUSH2 0x21A2 JUMP JUMPDEST PUSH2 0x21BA DUP2 DUP5 DUP5 PUSH2 0x217D JUMP JUMPDEST POP POP POP JUMP JUMPDEST JUMPDEST DUP2 DUP2 LT ISZERO PUSH2 0x21DE JUMPI PUSH2 0x21D3 PUSH1 0x0 DUP3 PUSH2 0x21A7 JUMP JUMPDEST PUSH1 0x1 DUP2 ADD SWAP1 POP PUSH2 0x21C0 JUMP JUMPDEST POP POP JUMP JUMPDEST PUSH1 0x1F DUP3 GT ISZERO PUSH2 0x2223 JUMPI PUSH2 0x21F4 DUP2 PUSH2 0x20AE JUMP JUMPDEST PUSH2 0x21FD DUP5 PUSH2 0x20D8 JUMP JUMPDEST DUP2 ADD PUSH1 0x20 DUP6 LT ISZERO PUSH2 0x220C JUMPI DUP2 SWAP1 POP JUMPDEST PUSH2 0x2220 PUSH2 0x2218 DUP6 PUSH2 0x20D8 JUMP JUMPDEST DUP4 ADD DUP3 PUSH2 0x21BF JUMP JUMPDEST POP POP JUMPDEST POP POP POP JUMP JUMPDEST PUSH1 0x0 DUP3 DUP3 SHR SWAP1 POP SWAP3 SWAP2 POP POP JUMP JUMPDEST PUSH1 0x0 PUSH2 0x2246 PUSH1 0x0 NOT DUP5 PUSH1 0x8 MUL PUSH2 0x2228 JUMP JUMPDEST NOT DUP1 DUP4 AND SWAP2 POP POP SWAP3 SWAP2 POP POP JUMP JUMPDEST PUSH1 0x0 PUSH2 0x225F DUP4 DUP4 PUSH2 0x2235 JUMP JUMPDEST SWAP2 POP DUP3 PUSH1 0x2 MUL DUP3 OR SWAP1 POP SWAP3 SWAP2 POP POP JUMP JUMPDEST DUP2 DUP2 SUB PUSH2 0x227D JUMPI POP POP PUSH2 0x2355 JUMP JUMPDEST PUSH2 0x2286 DUP3 PUSH2 0x2098 JUMP JUMPDEST PUSH8 0xFFFFFFFFFFFFFFFF DUP2 GT ISZERO PUSH2 0x229F JUMPI PUSH2 0x229E PUSH2 0x1CA8 JUMP JUMPDEST JUMPDEST PUSH2 0x22A9 DUP3 SLOAD PUSH2 0x1F60 JUMP JUMPDEST PUSH2 0x22B4 DUP3 DUP3 DUP6 PUSH2 0x21E2 JUMP JUMPDEST PUSH1 0x0 PUSH1 0x1F DUP4 GT PUSH1 0x1 DUP2 EQ PUSH2 0x22E3 JUMPI PUSH1 0x0 DUP5 ISZERO PUSH2 0x22D1 JUMPI DUP3 DUP8 ADD SLOAD SWAP1 POP JUMPDEST PUSH2 0x22DB DUP6 DUP3 PUSH2 0x2253 JUMP JUMPDEST DUP7 SSTORE POP PUSH2 0x234E JUMP JUMPDEST PUSH1 0x1F NOT DUP5 AND PUSH2 0x22F1 DUP8 PUSH2 0x20C3 JUMP JUMPDEST SWAP7 POP PUSH2 0x22FC DUP7 PUSH2 0x20AE JUMP JUMPDEST PUSH1 0x0 JUMPDEST DUP3 DUP2 LT ISZERO PUSH2 0x2324 JUMPI DUP5 DUP10 ADD SLOAD DUP3 SSTORE PUSH1 0x1 DUP3 ADD SWAP2 POP PUSH1 0x1 DUP6 ADD SWAP5 POP PUSH1 0x20 DUP2 ADD SWAP1 POP PUSH2 0x22FF JUMP JUMPDEST DUP7 DUP4 LT ISZERO PUSH2 0x2341 JUMPI DUP5 DUP10 ADD SLOAD PUSH2 0x233D PUSH1 0x1F DUP10 AND DUP3 PUSH2 0x2235 JUMP JUMPDEST DUP4 SSTORE POP JUMPDEST PUSH1 0x1 PUSH1 0x2 DUP9 MUL ADD DUP9 SSTORE POP POP POP JUMPDEST POP POP POP POP POP POP JUMPDEST JUMP JUMPDEST PUSH32 0x4E487B7100000000000000000000000000000000000000000000000000000000 PUSH1 0x0 MSTORE PUSH1 0x11 PUSH1 0x4 MSTORE PUSH1 0x24 PUSH1 0x0 REVERT JUMPDEST PUSH1 0x0 PUSH2 0x2391 DUP3 PUSH2 0x18F7 JUMP JUMPDEST SWAP2 POP PUSH32 0xFFFFFFFFFFFFFFFFFFFFFFFFFFFFFFFFFFFFFFFFFFFFFFFFFFFFFFFFFFFFFFFF DUP3 SUB PUSH2 0x23C3 JUMPI PUSH2 0x23C2 PUSH2 0x2357 JUMP JUMPDEST JUMPDEST PUSH1 0x1 DUP3 ADD SWAP1 POP SWAP2 SWAP1 POP JUMP JUMPDEST PUSH32 0x4E6F20737563682043616D706169676E00000000000000000000000000000000 PUSH1 0x0 DUP3 ADD MSTORE POP JUMP JUMPDEST PUSH1 0x0 PUSH2 0x2404 PUSH1 0x10 DUP4 PUSH2 0x19A6 JUMP JUMPDEST SWAP2 POP PUSH2 0x240F DUP3 PUSH2 0x23CE JUMP JUMPDEST PUSH1 0x20 DUP3 ADD SWAP1 POP SWAP2 SWAP1 POP JUMP JUMPDEST PUSH1 0x0 PUSH1 0x20 DUP3 ADD SWAP1 POP DUP2 DUP2 SUB PUSH1 0x0 DUP4 ADD MSTORE PUSH2 0x2433 DUP2 PUSH2 0x23F7 JUMP JUMPDEST SWAP1 POP SWAP2 SWAP1 POP JUMP JUMPDEST PUSH32 0x43616D706169676E20646F656E206E6F74206578697374000000000000000000 PUSH1 0x0 DUP3 ADD MSTORE POP JUMP JUMPDEST PUSH1 0x0 PUSH2 0x2470 PUSH1 0x17 DUP4 PUSH2 0x19A6 JUMP JUMPDEST SWAP2 POP PUSH2 0x247B DUP3 PUSH2 0x243A JUMP JUMPDEST PUSH1 0x20 DUP3 ADD SWAP1 POP SWAP2 SWAP1 POP JUMP JUMPDEST PUSH1 0x0 PUSH1 0x20 DUP3 ADD SWAP1 POP DUP2 DUP2 SUB PUSH1 0x0 DUP4 ADD MSTORE PUSH2 0x249F DUP2 PUSH2 0x2463 JUMP JUMPDEST SWAP1 POP SWAP2 SWAP1 POP JUMP JUMPDEST PUSH32 0x59657420746F2073746172740000000000000000000000000000000000000000 PUSH1 0x0 DUP3 ADD MSTORE POP JUMP JUMPDEST PUSH1 0x0 PUSH2 0x24DC PUSH1 0xC DUP4 PUSH2 0x19A6 JUMP JUMPDEST SWAP2 POP PUSH2 0x24E7 DUP3 PUSH2 0x24A6 JUMP JUMPDEST PUSH1 0x20 DUP3 ADD SWAP1 POP SWAP2 SWAP1 POP JUMP JUMPDEST PUSH1 0x0 PUSH1 0x20 DUP3 ADD SWAP1 POP DUP2 DUP2 SUB PUSH1 0x0 DUP4 ADD MSTORE PUSH2 0x250B DUP2 PUSH2 0x24CF JUMP JUMPDEST SWAP1 POP SWAP2 SWAP1 POP JUMP JUMPDEST PUSH32 0x43616D706169676E20456E646564000000000000000000000000000000000000 PUSH1 0x0 DUP3 ADD MSTORE POP JUMP JUMPDEST PUSH1 0x0 PUSH2 0x2548 PUSH1 0xE DUP4 PUSH2 0x19A6 JUMP JUMPDEST SWAP2 POP PUSH2 0x2553 DUP3 PUSH2 0x2512 JUMP JUMPDEST PUSH1 0x20 DUP3 ADD SWAP1 POP SWAP2 SWAP1 POP JUMP JUMPDEST PUSH1 0x0 PUSH1 0x20 DUP3 ADD SWAP1 POP DUP2 DUP2 SUB PUSH1 0x0 DUP4 ADD MSTORE PUSH2 0x2577 DUP2 PUSH2 0x253B JUMP JUMPDEST SWAP1 POP SWAP2 SWAP1 POP JUMP JUMPDEST PUSH32 0x63616E277420766F7465206D6F7265207468616E206F6E636500000000000000 PUSH1 0x0 DUP3 ADD MSTORE POP JUMP JUMPDEST PUSH1 0x0 PUSH2 0x25B4 PUSH1 0x19 DUP4 PUSH2 0x19A6 JUMP JUMPDEST SWAP2 POP PUSH2 0x25BF DUP3 PUSH2 0x257E JUMP JUMPDEST PUSH1 0x20 DUP3 ADD SWAP1 POP SWAP2 SWAP1 POP JUMP JUMPDEST PUSH1 0x0 PUSH1 0x20 DUP3 ADD SWAP1 POP DUP2 DUP2 SUB PUSH1 0x0 DUP4 ADD MSTORE PUSH2 0x25E3 DUP2 PUSH2 0x25A7 JUMP JUMPDEST SWAP1 POP SWAP2 SWAP1 POP JUMP JUMPDEST PUSH32 0x556E617574686F72697A656420746F20566F746520696E20746869732063616D PUSH1 0x0 DUP3 ADD MSTORE PUSH32 0x706169676E000000000000000000000000000000000000000000000000000000 PUSH1 0x20 DUP3 ADD MSTORE POP JUMP JUMPDEST PUSH1 0x0 PUSH2 0x2646 PUSH1 0x25 DUP4 PUSH2 0x19A6 JUMP JUMPDEST SWAP2 POP PUSH2 0x2651 DUP3 PUSH2 0x25EA JUMP JUMPDEST PUSH1 0x40 DUP3 ADD SWAP1 POP SWAP2 SWAP1 POP JUMP JUMPDEST PUSH1 0x0 PUSH1 0x20 DUP3 ADD SWAP1 POP DUP2 DUP2 SUB PUSH1 0x0 DUP4 ADD MSTORE PUSH2 0x2675 DUP2 PUSH2 0x2639 JUMP JUMPDEST SWAP1 POP SWAP2 SWAP1 POP JUMP JUMPDEST PUSH1 0x0 PUSH2 0x2687 DUP3 PUSH2 0x18F7 JUMP JUMPDEST SWAP2 POP PUSH2 0x2692 DUP4 PUSH2 0x18F7 JUMP JUMPDEST SWAP3 POP DUP3 DUP3 SUB SWAP1 POP DUP2 DUP2 GT ISZERO PUSH2 0x26AA JUMPI PUSH2 0x26A9 PUSH2 0x2357 JUMP JUMPDEST JUMPDEST SWAP3 SWAP2 POP POP JUMP JUMPDEST PUSH1 0x0 PUSH2 0x26BB DUP3 PUSH2 0x18F7 JUMP JUMPDEST SWAP2 POP PUSH2 0x26C6 DUP4 PUSH2 0x18F7 JUMP JUMPDEST SWAP3 POP DUP3 DUP3 ADD SWAP1 POP DUP1 DUP3 GT ISZERO PUSH2 0x26DE JUMPI PUSH2 0x26DD PUSH2 0x2357 JUMP JUMPDEST JUMPDEST SWAP3 SWAP2 POP POP JUMP JUMPDEST PUSH32 0x4172726179204F766572466C6F61740000000000000000000000000000000000 PUSH1 0x0 DUP3 ADD MSTORE POP JUMP JUMPDEST PUSH1 0x0 PUSH2 0x271A PUSH1 0xF DUP4 PUSH2 0x19A6 JUMP JUMPDEST SWAP2 POP PUSH2 0x2725 DUP3 PUSH2 0x26E4 JUMP JUMPDEST PUSH1 0x20 DUP3 ADD SWAP1 POP SWAP2 SWAP1 POP JUMP JUMPDEST PUSH1 0x0 PUSH1 0x20 DUP3 ADD SWAP1 POP DUP2 DUP2 SUB PUSH1 0x0 DUP4 ADD MSTORE PUSH2 0x2749 DUP2 PUSH2 0x270D JUMP JUMPDEST SWAP1 POP SWAP2 SWAP1 POP JUMP JUMPDEST PUSH32 0x43616E7420706572666F6D2074686973206F7065726174696F6E206166746572 PUSH1 0x0 DUP3 ADD MSTORE PUSH32 0x20647572696E672063616D706169676E00000000000000000000000000000000 PUSH1 0x20 DUP3 ADD MSTORE POP JUMP JUMPDEST PUSH1 0x0 PUSH2 0x27AC PUSH1 0x30 DUP4 PUSH2 0x19A6 JUMP JUMPDEST SWAP2 POP PUSH2 0x27B7 DUP3 PUSH2 0x2750 JUMP JUMPDEST PUSH1 0x40 DUP3 ADD SWAP1 POP SWAP2 SWAP1 POP JUMP JUMPDEST PUSH1 0x0 PUSH1 0x20 DUP3 ADD SWAP1 POP DUP2 DUP2 SUB PUSH1 0x0 DUP4 ADD MSTORE PUSH2 0x27DB DUP2 PUSH2 0x279F JUMP JUMPDEST SWAP1 POP SWAP2 SWAP1 POP JUMP JUMPDEST PUSH32 0x5265737472696374656420746F204368616972706572736F6E00000000000000 PUSH1 0x0 DUP3 ADD MSTORE POP JUMP JUMPDEST PUSH1 0x0 PUSH2 0x2818 PUSH1 0x19 DUP4 PUSH2 0x19A6 JUMP JUMPDEST SWAP2 POP PUSH2 0x2823 DUP3 PUSH2 0x27E2 JUMP JUMPDEST PUSH1 0x20 DUP3 ADD SWAP1 POP SWAP2 SWAP1 POP JUMP JUMPDEST PUSH1 0x0 PUSH1 0x20 DUP3 ADD SWAP1 POP DUP2 DUP2 SUB PUSH1 0x0 DUP4 ADD MSTORE PUSH2 0x2847 DUP2 PUSH2 0x280B JUMP JUMPDEST SWAP1 POP SWAP2 SWAP1 POP JUMP JUMPDEST PUSH1 0x0 DUP2 SLOAD SWAP1 POP PUSH2 0x285D DUP2 PUSH2 0x1F60 JUMP JUMPDEST SWAP1 POP SWAP2 SWAP1 POP JUMP JUMPDEST DUP2 DUP2 SUB PUSH2 0x2872 JUMPI POP POP PUSH2 0x294A JUMP JUMPDEST PUSH2 0x287B DUP3 PUSH2 0x284E JUMP JUMPDEST PUSH8 0xFFFFFFFFFFFFFFFF DUP2 GT ISZERO PUSH2 0x2894 JUMPI PUSH2 0x2893 PUSH2 0x1CA8 JUMP JUMPDEST JUMPDEST PUSH2 0x289E DUP3 SLOAD PUSH2 0x1F60 JUMP JUMPDEST PUSH2 0x28A9 DUP3 DUP3 DUP6 PUSH2 0x21E2 JUMP JUMPDEST PUSH1 0x0 PUSH1 0x1F DUP4 GT PUSH1 0x1 DUP2 EQ PUSH2 0x28D8 JUMPI PUSH1 0x0 DUP5 ISZERO PUSH2 0x28C6 JUMPI DUP3 DUP8 ADD SLOAD SWAP1 POP JUMPDEST PUSH2 0x28D0 DUP6 DUP3 PUSH2 0x2253 JUMP JUMPDEST DUP7 SSTORE POP PUSH2 0x2943 JUMP JUMPDEST PUSH1 0x1F NOT DUP5 AND PUSH2 0x28E6 DUP8 PUSH2 0x20AE JUMP JUMPDEST SWAP7 POP PUSH2 0x28F1 DUP7 PUSH2 0x20AE JUMP JUMPDEST PUSH1 0x0 JUMPDEST DUP3 DUP2 LT ISZERO PUSH2 0x2919 JUMPI DUP5 DUP10 ADD SLOAD DUP3 SSTORE PUSH1 0x1 DUP3 ADD SWAP2 POP PUSH1 0x1 DUP6 ADD SWAP5 POP PUSH1 0x20 DUP2 ADD SWAP1 POP PUSH2 0x28F4 JUMP JUMPDEST DUP7 DUP4 LT ISZERO PUSH2 0x2936 JUMPI DUP5 DUP10 ADD SLOAD PUSH2 0x2932 PUSH1 0x1F DUP10 AND DUP3 PUSH2 0x2235 JUMP JUMPDEST DUP4 SSTORE POP JUMPDEST PUSH1 0x1 PUSH1 0x2 DUP9 MUL ADD DUP9 SSTORE POP POP POP JUMPDEST POP POP POP POP POP POP JUMPDEST JUMP JUMPDEST PUSH32 0x4E487B7100000000000000000000000000000000000000000000000000000000 PUSH1 0x0 MSTORE PUSH1 0x31 PUSH1 0x4 MSTORE PUSH1 0x24 PUSH1 0x0 REVERT JUMPDEST PUSH32 0x41646472657373206973206E6F742076616C6964000000000000000000000000 PUSH1 0x0 DUP3 ADD MSTORE POP JUMP JUMPDEST PUSH1 0x0 PUSH2 0x29B1 PUSH1 0x14 DUP4 PUSH2 0x19A6 JUMP JUMPDEST SWAP2 POP PUSH2 0x29BC DUP3 PUSH2 0x297B JUMP JUMPDEST PUSH1 0x20 DUP3 ADD SWAP1 POP SWAP2 SWAP1 POP JUMP JUMPDEST PUSH1 0x0 PUSH1 0x20 DUP3 ADD SWAP1 POP DUP2 DUP2 SUB PUSH1 0x0 DUP4 ADD MSTORE PUSH2 0x29E0 DUP2 PUSH2 0x29A4 JUMP JUMPDEST SWAP1 POP SWAP2 SWAP1 POP JUMP JUMPDEST PUSH32 0x4F6E6C79204368616972706572736F6E206F6620746869732043616D70616967 PUSH1 0x0 DUP3 ADD MSTORE PUSH32 0x6E2063616E2063616C6C20746869732066756E6374696F6E0000000000000000 PUSH1 0x20 DUP3 ADD MSTORE POP JUMP JUMPDEST PUSH1 0x0 PUSH2 0x2A43 PUSH1 0x38 DUP4 PUSH2 0x19A6 JUMP JUMPDEST SWAP2 POP PUSH2 0x2A4E DUP3 PUSH2 0x29E7 JUMP JUMPDEST PUSH1 0x40 DUP3 ADD SWAP1 POP SWAP2 SWAP1 POP JUMP JUMPDEST PUSH1 0x0 PUSH1 0x20 DUP3 ADD SWAP1 POP DUP2 DUP2 SUB PUSH1 0x0 DUP4 ADD MSTORE PUSH2 0x2A72 DUP2 PUSH2 0x2A36 JUMP JUMPDEST SWAP1 POP SWAP2 SWAP1 POP JUMP JUMPDEST PUSH32 0x546869732043616D706169676E206973206E6F74207265737472696374656400 PUSH1 0x0 DUP3 ADD MSTORE POP JUMP JUMPDEST PUSH1 0x0 PUSH2 0x2AAF PUSH1 0x1F DUP4 PUSH2 0x19A6 JUMP JUMPDEST SWAP2 POP PUSH2 0x2ABA DUP3 PUSH2 0x2A79 JUMP JUMPDEST PUSH1 0x20 DUP3 ADD SWAP1 POP SWAP2 SWAP1 POP JUMP JUMPDEST PUSH1 0x0 PUSH1 0x20 DUP3 ADD SWAP1 POP DUP2 DUP2 SUB PUSH1 0x0 DUP4 ADD MSTORE PUSH2 0x2ADE DUP2 PUSH2 0x2AA2 JUMP JUMPDEST SWAP1 POP SWAP2 SWAP1 POP JUMP JUMPDEST PUSH32 0x4F6E6C79204368616972706572736F6E206F662043616D706169676E2063616E PUSH1 0x0 DUP3 ADD MSTORE PUSH32 0x2063616C6C20746869732066756E6374696F6E00000000000000000000000000 PUSH1 0x20 DUP3 ADD MSTORE POP JUMP JUMPDEST PUSH1 0x0 PUSH2 0x2B41 PUSH1 0x33 DUP4 PUSH2 0x19A6 JUMP JUMPDEST SWAP2 POP PUSH2 0x2B4C DUP3 PUSH2 0x2AE5 JUMP JUMPDEST PUSH1 0x40 DUP3 ADD SWAP1 POP SWAP2 SWAP1 POP JUMP JUMPDEST PUSH1 0x0 PUSH1 0x20 DUP3 ADD SWAP1 POP DUP2 DUP2 SUB PUSH1 0x0 DUP4 ADD MSTORE PUSH2 0x2B70 DUP2 PUSH2 0x2B34 JUMP JUMPDEST SWAP1 POP SWAP2 SWAP1 POP JUMP JUMPDEST PUSH2 0x2B80 DUP3 PUSH2 0x199B JUMP JUMPDEST PUSH8 0xFFFFFFFFFFFFFFFF DUP2 GT ISZERO PUSH2 0x2B99 JUMPI PUSH2 0x2B98 PUSH2 0x1CA8 JUMP JUMPDEST JUMPDEST PUSH2 0x2BA3 DUP3 SLOAD PUSH2 0x1F60 JUMP JUMPDEST PUSH2 0x2BAE DUP3 DUP3 DUP6 PUSH2 0x21E2 JUMP JUMPDEST PUSH1 0x0 PUSH1 0x20 SWAP1 POP PUSH1 0x1F DUP4 GT PUSH1 0x1 DUP2 EQ PUSH2 0x2BE1 JUMPI PUSH1 0x0 DUP5 ISZERO PUSH2 0x2BCF JUMPI DUP3 DUP8 ADD MLOAD SWAP1 POP JUMPDEST PUSH2 0x2BD9 DUP6 DUP3 PUSH2 0x2253 JUMP JUMPDEST DUP7 SSTORE POP PUSH2 0x2C41 JUMP JUMPDEST PUSH1 0x1F NOT DUP5 AND PUSH2 0x2BEF DUP7 PUSH2 0x20AE JUMP JUMPDEST PUSH1 0x0 JUMPDEST DUP3 DUP2 LT ISZERO PUSH2 0x2C17 JUMPI DUP5 DUP10 ADD MLOAD DUP3 SSTORE PUSH1 0x1 DUP3 ADD SWAP2 POP PUSH1 0x20 DUP6 ADD SWAP5 POP PUSH1 0x20 DUP2 ADD SWAP1 POP PUSH2 0x2BF2 JUMP JUMPDEST DUP7 DUP4 LT ISZERO PUSH2 0x2C34 JUMPI DUP5 DUP10 ADD MLOAD PUSH2 0x2C30 PUSH1 0x1F DUP10 AND DUP3 PUSH2 0x2235 JUMP JUMPDEST DUP4 SSTORE POP JUMPDEST PUSH1 0x1 PUSH1 0x2 DUP9 MUL ADD DUP9 SSTORE POP POP POP JUMPDEST POP POP POP POP POP POP JUMP JUMPDEST PUSH32 0x4475726174696F6E206D7573742062652067726561746572207468616E203173 PUSH1 0x0 DUP3 ADD MSTORE PUSH32 0x65636F6E64000000000000000000000000000000000000000000000000000000 PUSH1 0x20 DUP3 ADD MSTORE POP JUMP JUMPDEST PUSH1 0x0 PUSH2 0x2CA5 PUSH1 0x25 DUP4 PUSH2 0x19A6 JUMP JUMPDEST SWAP2 POP PUSH2 0x2CB0 DUP3 PUSH2 0x2C49 JUMP JUMPDEST PUSH1 0x40 DUP3 ADD SWAP1 POP SWAP2 SWAP1 POP JUMP JUMPDEST PUSH1 0x0 PUSH1 0x20 DUP3 ADD SWAP1 POP DUP2 DUP2 SUB PUSH1 0x0 DUP4 ADD MSTORE PUSH2 0x2CD4 DUP2 PUSH2 0x2C98 JUMP JUMPDEST SWAP1 POP SWAP2 SWAP1 POP JUMP JUMPDEST PUSH32 0x54696D652068617320746F20626520667574757265206E6F7420706173740000 PUSH1 0x0 DUP3 ADD MSTORE POP JUMP JUMPDEST PUSH1 0x0 PUSH2 0x2D11 PUSH1 0x1E DUP4 PUSH2 0x19A6 JUMP JUMPDEST SWAP2 POP PUSH2 0x2D1C DUP3 PUSH2 0x2CDB JUMP JUMPDEST PUSH1 0x20 DUP3 ADD SWAP1 POP SWAP2 SWAP1 POP JUMP JUMPDEST PUSH1 0x0 PUSH1 0x20 DUP3 ADD SWAP1 POP DUP2 DUP2 SUB PUSH1 0x0 DUP4 ADD MSTORE PUSH2 0x2D40 DUP2 PUSH2 0x2D04 JUMP JUMPDEST SWAP1 POP SWAP2 SWAP1 POP JUMP JUMPDEST PUSH1 0x0 PUSH1 0xC0 DUP3 ADD SWAP1 POP DUP2 DUP2 SUB PUSH1 0x0 DUP4 ADD MSTORE PUSH2 0x2D61 DUP2 DUP10 PUSH2 0x19F2 JUMP JUMPDEST SWAP1 POP PUSH2 0x2D70 PUSH1 0x20 DUP4 ADD DUP9 PUSH2 0x1A37 JUMP JUMPDEST PUSH2 0x2D7D PUSH1 0x40 DUP4 ADD DUP8 PUSH2 0x1A46 JUMP JUMPDEST PUSH2 0x2D8A PUSH1 0x60 DUP4 ADD DUP7 PUSH2 0x1A46 JUMP JUMPDEST PUSH2 0x2D97 PUSH1 0x80 DUP4 ADD DUP6 PUSH2 0x1A46 JUMP JUMPDEST PUSH2 0x2DA4 PUSH1 0xA0 DUP4 ADD DUP5 PUSH2 0x1A46 JUMP JUMPDEST SWAP8 SWAP7 POP POP POP POP POP POP POP JUMP INVALID LOG2 PUSH5 0x6970667358 0x22 SLT KECCAK256 0x2C 0xDC PUSH32 0x69B459CDD500DF3CA1805A8097732047801836AEA2097227D9F23C72A864736F PUSH13 0x63430008120033000000000000 "},"methodIdentifiers":{"CampaignByID(uint256)":"10d91123","addVoteOptions(uint256,string,bytes32,uint256)":"d3f0b73f","approveAddressToVote(uint256,address)":"d231c162","approvedVoterToCampaignID(uint256,address)":"2f9248a6","candidateToCampaignID(uint256,uint256)":"6a4a4209","deleteCandidate(uint256,uint256)":"cf4a6060","getCandidatesArrayLength(uint256)":"ded2d402","getTotalVotersInCampaign(uint256)":"a71a666b","getWinnerOfCampaign(uint256)":"5ef1a1aa","startCampaign(string,bool,uint256,uint256)":"e9e90e7b","totalCampaignID()":"3da90516","vote(uint256,uint256)":"b384abef","votedToCampaignID(uint256,address)":"2602600d","voterToCampaignID(uint256)":"713474ff","voters(uint256)":"da58c7d9"}}}}}