{"contracts/VotingSystem.sol":{"VotingSystemV1":{"abi":[{"anonymous":false,"inputs":[{"indexed":false,"internalType":"string","name":"name","type":"string"},{"indexed":true,"internalType":"address","name":"chairPerson","type":"address"},{"indexed":false,"internalType":"bool","name":"restricted","type":"bool"},{"indexed":false,"internalType":"uint256","name":"duration","type":"uint256"},{"indexed":false,"internalType":"uint256","name":"startingTime","type":"uint256"},{"indexed":false,"internalType":"uint256","name":"endingTime","type":"uint256"},{"indexed":false,"internalType":"uint256","name":"totalCampaignID","type":"uint256"}],"name":"StartCampaign","type":"event"},{"inputs":[{"internalType":"uint256","name":"","type":"uint256"}],"name":"CampaignByID","outputs":[{"internalType":"address","name":"chairPerson","type":"address"},{"internalType":"string","name":"campaignName","type":"string"},{"internalType":"bool","name":"isRestricted","type":"bool"},{"internalType":"uint256","name":"campaignDuration","type":"uint256"},{"internalType":"uint256","name":"startTime","type":"uint256"},{"internalType":"uint256","name":"endTime","type":"uint256"},{"internalType":"uint256","name":"totalVoters","type":"uint256"},{"internalType":"string","name":"winner","type":"string"},{"internalType":"string","name":"winnerImageUrl","type":"string"}],"stateMutability":"view","type":"function"},{"inputs":[{"internalType":"uint256","name":"_campaignID","type":"uint256"},{"internalType":"string","name":"_optionName","type":"string"},{"internalType":"string","name":"_imageUrl","type":"string"},{"internalType":"uint256","name":"_candidateID","type":"uint256"}],"name":"addVoteOptions","outputs":[],"stateMutability":"nonpayable","type":"function"},{"inputs":[{"internalType":"uint256","name":"_campaignID","type":"uint256"},{"internalType":"address","name":"_voter","type":"address"}],"name":"approveAddressToVote","outputs":[],"stateMutability":"nonpayable","type":"function"},{"inputs":[{"internalType":"uint256","name":"","type":"uint256"},{"internalType":"address","name":"","type":"address"}],"name":"approvedVoterToCampaignID","outputs":[{"internalType":"bool","name":"","type":"bool"}],"stateMutability":"view","type":"function"},{"inputs":[{"internalType":"uint256","name":"","type":"uint256"},{"internalType":"uint256","name":"","type":"uint256"}],"name":"candidateToCampaignID","outputs":[{"internalType":"string","name":"name","type":"string"},{"internalType":"uint256","name":"candidateID","type":"uint256"},{"internalType":"string","name":"imageUrl","type":"string"},{"internalType":"uint256","name":"voteCount","type":"uint256"},{"internalType":"uint256","name":"currentPosition","type":"uint256"}],"stateMutability":"view","type":"function"},{"inputs":[{"internalType":"uint256","name":"_campaignID","type":"uint256"},{"internalType":"uint256","name":"_candidateID","type":"uint256"}],"name":"deleteCandidate","outputs":[],"stateMutability":"nonpayable","type":"function"},{"inputs":[{"internalType":"uint256","name":"_campaignID","type":"uint256"}],"name":"getCandidatesArrayLength","outputs":[{"internalType":"uint256","name":"","type":"uint256"}],"stateMutability":"view","type":"function"},{"inputs":[{"internalType":"uint256","name":"_campaignID","type":"uint256"}],"name":"getTotalVotersInCampaign","outputs":[{"internalType":"uint256","name":"totalVoters","type":"uint256"}],"stateMutability":"view","type":"function"},{"inputs":[{"internalType":"uint256","name":"_campaignID","type":"uint256"}],"name":"getWinnerOfCampaign","outputs":[{"internalType":"string","name":"_winner","type":"string"}],"stateMutability":"nonpayable","type":"function"},{"inputs":[{"internalType":"string","name":"_campaignName","type":"string"},{"internalType":"bool","name":"_isRestricted","type":"bool"},{"internalType":"uint256","name":"_campaignDuration","type":"uint256"},{"internalType":"uint256","name":"_startTime","type":"uint256"}],"name":"startCampaign","outputs":[{"internalType":"uint256","name":"_campaignID","type":"uint256"}],"stateMutability":"nonpayable","type":"function"},{"inputs":[],"name":"totalCampaignID","outputs":[{"internalType":"uint256","name":"","type":"uint256"}],"stateMutability":"view","type":"function"},{"inputs":[{"internalType":"uint256","name":"_campaignID","type":"uint256"},{"internalType":"uint256","name":"_candidateID","type":"uint256"}],"name":"vote","outputs":[{"internalType":"bool","name":"success","type":"bool"}],"stateMutability":"nonpayable","type":"function"},{"inputs":[{"internalType":"uint256","name":"","type":"uint256"},{"internalType":"address","name":"","type":"address"}],"name":"votedToCampaignID","outputs":[{"internalType":"bool","name":"","type":"bool"}],"stateMutability":"view","type":"function"},{"inputs":[{"internalType":"uint256","name":"","type":"uint256"}],"name":"voterToCampaignID","outputs":[{"internalType":"address","name":"voterAddress","type":"address"},{"internalType":"bool","name":"isAppoved","type":"bool"},{"internalType":"bool","name":"voted","type":"bool"}],"stateMutability":"view","type":"function"},{"inputs":[{"internalType":"uint256","name":"","type":"uint256"}],"name":"voters","outputs":[{"internalType":"address","name":"voterAddress","type":"address"},{"internalType":"bool","name":"isAppoved","type":"bool"},{"internalType":"bool","name":"voted","type":"bool"}],"stateMutability":"view","type":"function"}],"evm":{"bytecode":{"linkReferences":{},"object":"608060405234801561001057600080fd5b50612f10806100206000396000f3fe608060405234801561001057600080fd5b50600436106100f55760003560e01c8063713474ff11610097578063d231c16211610066578063d231c162146102de578063da58c7d9146102fa578063ded2d4021461032c578063e9e90e7b1461035c576100f5565b8063713474ff14610230578063a71a666b14610262578063b384abef14610292578063cf4a6060146102c2576100f5565b8063338a4834116100d3578063338a4834146101925780633da90516146101ae5780635ef1a1aa146101cc5780636a4a4209146101fc576100f5565b806310d91123146100fa5780632602600d146101325780632f9248a614610162575b600080fd5b610114600480360381019061010f9190611a73565b61038c565b60405161012999989796959493929190611b9b565b60405180910390f35b61014c60048036038101906101479190611c69565b61059f565b6040516101599190611ca9565b60405180910390f35b61017c60048036038101906101779190611c69565b6105ce565b6040516101899190611ca9565b60405180910390f35b6101ac60048036038101906101a79190611df9565b6105fd565b005b6101b661075e565b6040516101c39190611e98565b60405180910390f35b6101e660048036038101906101e19190611a73565b610764565b6040516101f39190611eb3565b60405180910390f35b61021660048036038101906102119190611ed5565b610a04565b604051610227959493929190611f15565b60405180910390f35b61024a60048036038101906102459190611a73565b610b67565b60405161025993929190611f76565b60405180910390f35b61027c60048036038101906102779190611a73565b610bcb565b6040516102899190611e98565b60405180910390f35b6102ac60048036038101906102a79190611ed5565b610c8f565b6040516102b99190611ca9565b60405180910390f35b6102dc60048036038101906102d79190611ed5565b61109e565b005b6102f860048036038101906102f39190611c69565b611377565b005b610314600480360381019061030f9190611a73565b611665565b60405161032393929190611f76565b60405180910390f35b61034660048036038101906103419190611a73565b6116d5565b6040516103539190611e98565b60405180910390f35b61037660048036038101906103719190611fd9565b6116fa565b6040516103839190611e98565b60405180910390f35b60016020528060005260406000206000915090508060000160009054906101000a900473ffffffffffffffffffffffffffffffffffffffff16908060010180546103d59061208b565b80601f01602080910402602001604051908101604052809291908181526020018280546104019061208b565b801561044e5780601f106104235761010080835404028352916020019161044e565b820191906000526020600020905b81548152906001019060200180831161043157829003601f168201915b5050505050908060020160009054906101000a900460ff169080600301549080600401549080600501549080600601549080600701805461048e9061208b565b80601f01602080910402602001604051908101604052809291908181526020018280546104ba9061208b565b80156105075780601f106104dc57610100808354040283529160200191610507565b820191906000526020600020905b8154815290600101906020018083116104ea57829003601f168201915b50505050509080600801805461051c9061208b565b80601f01602080910402602001604051908101604052809291908181526020018280546105489061208b565b80156105955780601f1061056a57610100808354040283529160200191610595565b820191906000526020600020905b81548152906001019060200180831161057857829003601f168201915b5050505050905089565b60046020528160005260406000206020528060005260406000206000915091509054906101000a900460ff1681565b60036020528160005260406000206020528060005260406000206000915091509054906101000a900460ff1681565b6001600085815260200190815260200160002060000160009054906101000a900473ffffffffffffffffffffffffffffffffffffffff1673ffffffffffffffffffffffffffffffffffffffff163373ffffffffffffffffffffffffffffffffffffffff16146106a1576040517f08c379a00000000000000000000000000000000000000000000000000000000081526004016106989061212e565b60405180910390fd5b60006040518060a00160405280858152602001838152602001848152602001600081526020016000815250905060026000868152602001908152602001600020819080600181540180825580915050600190039060005260206000209060050201600090919091909150600082015181600001908161072091906122fa565b5060208201518160010155604082015181600201908161074091906122fa565b50606082015181600301556080820151816004015550505050505050565b60005481565b6060600160008381526020019081526020016000206005015442116107be576040517f08c379a00000000000000000000000000000000000000000000000000000000081526004016107b590612418565b60405180910390fd5b60016000838152602001908152602001600020600401544211610816576040517f08c379a000000000000000000000000000000000000000000000000000000000815260040161080d90612484565b60405180910390fd5b600080600090505b600260008581526020019081526020016000208054905081101561095c5781600260008681526020019081526020016000208281548110610862576108616124a4565b5b90600052602060002090600502016003015411156109495760026000858152602001908152602001600020818154811061089f5761089e6124a4565b5b90600052602060002090600502016003015491506002600085815260200190815260200160002081815481106108d8576108d76124a4565b5b906000526020600020906005020160000160016000868152602001908152602001600020600701908161090b91906124fe565b506001600260008681526020019081526020016000208281548110610933576109326124a4565b5b9060005260206000209060050201600401819055505b808061095490612615565b91505061081e565b5060016000848152602001908152602001600020600701805461097e9061208b565b80601f01602080910402602001604051908101604052809291908181526020018280546109aa9061208b565b80156109f75780601f106109cc576101008083540402835291602001916109f7565b820191906000526020600020905b8154815290600101906020018083116109da57829003601f168201915b5050505050915050919050565b60026020528160005260406000208181548110610a2057600080fd5b906000526020600020906005020160009150915050806000018054610a449061208b565b80601f0160208091040260200160405190810160405280929190818152602001828054610a709061208b565b8015610abd5780601f10610a9257610100808354040283529160200191610abd565b820191906000526020600020905b815481529060010190602001808311610aa057829003601f168201915b505050505090806001015490806002018054610ad89061208b565b80601f0160208091040260200160405190810160405280929190818152602001828054610b049061208b565b8015610b515780601f10610b2657610100808354040283529160200191610b51565b820191906000526020600020905b815481529060010190602001808311610b3457829003601f168201915b5050505050908060030154908060040154905085565b60056020528060005260406000206000915090508060000160009054906101000a900473ffffffffffffffffffffffffffffffffffffffff16908060000160149054906101000a900460ff16908060000160159054906101000a900460ff16905083565b60008073ffffffffffffffffffffffffffffffffffffffff166001600084815260200190815260200160002060000160009054906101000a900473ffffffffffffffffffffffffffffffffffffffff1673ffffffffffffffffffffffffffffffffffffffff1603610c71576040517f08c379a0000000000000000000000000000000000000000000000000000000008152600401610c68906126a9565b60405180910390fd5b60016000838152602001908152602001600020600601549050919050565b60008073ffffffffffffffffffffffffffffffffffffffff166001600085815260200190815260200160002060000160009054906101000a900473ffffffffffffffffffffffffffffffffffffffff1673ffffffffffffffffffffffffffffffffffffffff1603610d35576040517f08c379a0000000000000000000000000000000000000000000000000000000008152600401610d2c90612715565b60405180910390fd5b6001600084815260200190815260200160002060040154421015610d8e576040517f08c379a0000000000000000000000000000000000000000000000000000000008152600401610d8590612781565b60405180910390fd5b6001600084815260200190815260200160002060050154421115610de7576040517f08c379a0000000000000000000000000000000000000000000000000000000008152600401610dde906127ed565b60405180910390fd5b600015156004600085815260200190815260200160002060003373ffffffffffffffffffffffffffffffffffffffff1673ffffffffffffffffffffffffffffffffffffffff16815260200190815260200160002060009054906101000a900460ff16151514610e8b576040517f08c379a0000000000000000000000000000000000000000000000000000000008152600401610e8290612859565b60405180910390fd5b600115156001600085815260200190815260200160002060020160009054906101000a900460ff16151503610f5f57600115156003600085815260200190815260200160002060003373ffffffffffffffffffffffffffffffffffffffff1673ffffffffffffffffffffffffffffffffffffffff16815260200190815260200160002060009054906101000a900460ff16151514610f5e576040517f08c379a0000000000000000000000000000000000000000000000000000000008152600401610f55906128eb565b60405180910390fd5b5b6000610f6b848461197d565b9050801561109357600160026000868152602001908152602001600020600185610f95919061290b565b81548110610fa657610fa56124a4565b5b90600052602060002090600502016003016000828254610fc6919061293f565b9250508190555060018060008681526020019081526020016000206006016000828254610ff3919061293f565b9250508190555060016005600086815260200190815260200160002060000160156101000a81548160ff02191690831515021790555060016004600086815260200190815260200160002060003373ffffffffffffffffffffffffffffffffffffffff1673ffffffffffffffffffffffffffffffffffffffff16815260200190815260200160002060006101000a81548160ff0219169083151502179055505b600191505092915050565b60026000838152602001908152602001600020805490506001826110c2919061290b565b10611102576040517f08c379a00000000000000000000000000000000000000000000000000000000081526004016110f9906129bf565b60405180910390fd5b4260016000848152602001908152602001600020600401541161115a576040517f08c379a000000000000000000000000000000000000000000000000000000000815260040161115190612a51565b60405180910390fd5b6001600083815260200190815260200160002060000160009054906101000a900473ffffffffffffffffffffffffffffffffffffffff1673ffffffffffffffffffffffffffffffffffffffff163373ffffffffffffffffffffffffffffffffffffffff16146111fe576040517f08c379a00000000000000000000000000000000000000000000000000000000081526004016111f590612abd565b60405180910390fd5b600060018261120d919061290b565b90505b60026000848152602001908152602001600020805490508110156112fe576002600084815260200190815260200160002060018261124e919061293f565b8154811061125f5761125e6124a4565b5b9060005260206000209060050201600260008581526020019081526020016000208281548110611292576112916124a4565b5b9060005260206000209060050201600082018160000190816112b49190612af3565b5060018201548160010155600282018160020190816112d39190612af3565b50600382015481600301556004820154816004015590505080806112f690612615565b915050611210565b506002600083815260200190815260200160002080548061132257611321612bdb565b5b60019003818190600052602060002090600502016000808201600061134791906119cc565b600182016000905560028201600061135f91906119cc565b60038201600090556004820160009055505090555050565b600073ffffffffffffffffffffffffffffffffffffffff166001600084815260200190815260200160002060000160009054906101000a900473ffffffffffffffffffffffffffffffffffffffff1673ffffffffffffffffffffffffffffffffffffffff160361141c576040517f08c379a000000000000000000000000000000000000000000000000000000000815260040161141390612715565b60405180910390fd5b600073ffffffffffffffffffffffffffffffffffffffff168173ffffffffffffffffffffffffffffffffffffffff160361148b576040517f08c379a000000000000000000000000000000000000000000000000000000000815260040161148290612c56565b60405180910390fd5b6001600083815260200190815260200160002060000160009054906101000a900473ffffffffffffffffffffffffffffffffffffffff1673ffffffffffffffffffffffffffffffffffffffff163373ffffffffffffffffffffffffffffffffffffffff161461152f576040517f08c379a000000000000000000000000000000000000000000000000000000000815260040161152690612ce8565b60405180910390fd5b600115156001600084815260200190815260200160002060020160009054906101000a900460ff16151514611599576040517f08c379a000000000000000000000000000000000000000000000000000000000815260040161159090612d54565b60405180910390fd5b600115156001600084815260200190815260200160002060020160009054906101000a900460ff161515036116615760016003600084815260200190815260200160002060008373ffffffffffffffffffffffffffffffffffffffff1673ffffffffffffffffffffffffffffffffffffffff16815260200190815260200160002060006101000a81548160ff02191690831515021790555060016005600084815260200190815260200160002060000160146101000a81548160ff0219169083151502179055505b5050565b6006818154811061167557600080fd5b906000526020600020016000915090508060000160009054906101000a900473ffffffffffffffffffffffffffffffffffffffff16908060000160149054906101000a900460ff16908060000160159054906101000a900460ff16905083565b6000806002600084815260200190815260200160002080549050905080915050919050565b60006001831161173f576040517f08c379a000000000000000000000000000000000000000000000000000000000815260040161173690612de6565b60405180910390fd5b428211611781576040517f08c379a000000000000000000000000000000000000000000000000000000000815260040161177890612e52565b60405180910390fd5b60006040518061012001604052803373ffffffffffffffffffffffffffffffffffffffff168152602001878152602001861515815260200185815260200184815260200185856117d1919061293f565b8152602001600081526020016040518060200160405280600081525081526020016040518060200160405280600081525081525090506001600080828254611819919061293f565b9250508190555080600160008054815260200190815260200160002060008201518160000160006101000a81548173ffffffffffffffffffffffffffffffffffffffff021916908373ffffffffffffffffffffffffffffffffffffffff160217905550602082015181600101908161189191906122fa565b5060408201518160020160006101000a81548160ff021916908315150217905550606082015181600301556080820151816004015560a0820151816005015560c0820151816006015560e08201518160070190816118ef91906122fa565b5061010082015181600801908161190691906122fa565b509050503373ffffffffffffffffffffffffffffffffffffffff167f499e15da008e9096f6bf10da889899c6d4910068bd83a00171c190c151ee24d2878787878989611952919061293f565b60005460405161196796959493929190612e72565b60405180910390a2600054915050949350505050565b600081600260008581526020019081526020016000206001846119a0919061290b565b815481106119b1576119b06124a4565b5b90600052602060002090600502016001015414905092915050565b5080546119d89061208b565b6000825580601f106119ea5750611a09565b601f016020900490600052602060002090810190611a089190611a0c565b5b50565b5b80821115611a25576000816000905550600101611a0d565b5090565b6000604051905090565b600080fd5b600080fd5b6000819050919050565b611a5081611a3d565b8114611a5b57600080fd5b50565b600081359050611a6d81611a47565b92915050565b600060208284031215611a8957611a88611a33565b5b6000611a9784828501611a5e565b91505092915050565b600073ffffffffffffffffffffffffffffffffffffffff82169050919050565b6000611acb82611aa0565b9050919050565b611adb81611ac0565b82525050565b600081519050919050565b600082825260208201905092915050565b60005b83811015611b1b578082015181840152602081019050611b00565b60008484015250505050565b6000601f19601f8301169050919050565b6000611b4382611ae1565b611b4d8185611aec565b9350611b5d818560208601611afd565b611b6681611b27565b840191505092915050565b60008115159050919050565b611b8681611b71565b82525050565b611b9581611a3d565b82525050565b600061012082019050611bb1600083018c611ad2565b8181036020830152611bc3818b611b38565b9050611bd2604083018a611b7d565b611bdf6060830189611b8c565b611bec6080830188611b8c565b611bf960a0830187611b8c565b611c0660c0830186611b8c565b81810360e0830152611c188185611b38565b9050818103610100830152611c2d8184611b38565b90509a9950505050505050505050565b611c4681611ac0565b8114611c5157600080fd5b50565b600081359050611c6381611c3d565b92915050565b60008060408385031215611c8057611c7f611a33565b5b6000611c8e85828601611a5e565b9250506020611c9f85828601611c54565b9150509250929050565b6000602082019050611cbe6000830184611b7d565b92915050565b600080fd5b600080fd5b7f4e487b7100000000000000000000000000000000000000000000000000000000600052604160045260246000fd5b611d0682611b27565b810181811067ffffffffffffffff82111715611d2557611d24611cce565b5b80604052505050565b6000611d38611a29565b9050611d448282611cfd565b919050565b600067ffffffffffffffff821115611d6457611d63611cce565b5b611d6d82611b27565b9050602081019050919050565b82818337600083830152505050565b6000611d9c611d9784611d49565b611d2e565b905082815260208101848484011115611db857611db7611cc9565b5b611dc3848285611d7a565b509392505050565b600082601f830112611de057611ddf611cc4565b5b8135611df0848260208601611d89565b91505092915050565b60008060008060808587031215611e1357611e12611a33565b5b6000611e2187828801611a5e565b945050602085013567ffffffffffffffff811115611e4257611e41611a38565b5b611e4e87828801611dcb565b935050604085013567ffffffffffffffff811115611e6f57611e6e611a38565b5b611e7b87828801611dcb565b9250506060611e8c87828801611a5e565b91505092959194509250565b6000602082019050611ead6000830184611b8c565b92915050565b60006020820190508181036000830152611ecd8184611b38565b905092915050565b60008060408385031215611eec57611eeb611a33565b5b6000611efa85828601611a5e565b9250506020611f0b85828601611a5e565b9150509250929050565b600060a0820190508181036000830152611f2f8188611b38565b9050611f3e6020830187611b8c565b8181036040830152611f508186611b38565b9050611f5f6060830185611b8c565b611f6c6080830184611b8c565b9695505050505050565b6000606082019050611f8b6000830186611ad2565b611f986020830185611b7d565b611fa56040830184611b7d565b949350505050565b611fb681611b71565b8114611fc157600080fd5b50565b600081359050611fd381611fad565b92915050565b60008060008060808587031215611ff357611ff2611a33565b5b600085013567ffffffffffffffff81111561201157612010611a38565b5b61201d87828801611dcb565b945050602061202e87828801611fc4565b935050604061203f87828801611a5e565b925050606061205087828801611a5e565b91505092959194509250565b7f4e487b7100000000000000000000000000000000000000000000000000000000600052602260045260246000fd5b600060028204905060018216806120a357607f821691505b6020821081036120b6576120b561205c565b5b50919050565b7f4f6e6c79204368616972706572736f6e206f662043616d706169676e2063616e60008201527f2063616c6c20746869732066756e6374696f6e00000000000000000000000000602082015250565b6000612118603383611aec565b9150612123826120bc565b604082019050919050565b600060208201905081810360008301526121478161210b565b9050919050565b60008190508160005260206000209050919050565b60006020601f8301049050919050565b600082821b905092915050565b6000600883026121b07fffffffffffffffffffffffffffffffffffffffffffffffffffffffffffffffff82612173565b6121ba8683612173565b95508019841693508086168417925050509392505050565b6000819050919050565b60006121f76121f26121ed84611a3d565b6121d2565b611a3d565b9050919050565b6000819050919050565b612211836121dc565b61222561221d826121fe565b848454612180565b825550505050565b600090565b61223a61222d565b612245818484612208565b505050565b5b818110156122695761225e600082612232565b60018101905061224b565b5050565b601f8211156122ae5761227f8161214e565b61228884612163565b81016020851015612297578190505b6122ab6122a385612163565b83018261224a565b50505b505050565b600082821c905092915050565b60006122d1600019846008026122b3565b1980831691505092915050565b60006122ea83836122c0565b9150826002028217905092915050565b61230382611ae1565b67ffffffffffffffff81111561231c5761231b611cce565b5b612326825461208b565b61233182828561226d565b600060209050601f8311600181146123645760008415612352578287015190505b61235c85826122de565b8655506123c4565b601f1984166123728661214e565b60005b8281101561239a57848901518255600182019150602085019450602081019050612375565b868310156123b757848901516123b3601f8916826122c0565b8355505b6001600288020188555050505b505050505050565b7f43616d706169676e2069732079657420746f20456e6400000000000000000000600082015250565b6000612402601683611aec565b915061240d826123cc565b602082019050919050565b60006020820190508181036000830152612431816123f5565b9050919050565b7f43616d706169676e2069732079657420746f2073746172740000000000000000600082015250565b600061246e601883611aec565b915061247982612438565b602082019050919050565b6000602082019050818103600083015261249d81612461565b9050919050565b7f4e487b7100000000000000000000000000000000000000000000000000000000600052603260045260246000fd5b6000815490506124e28161208b565b9050919050565b60008190508160005260206000209050919050565b81810361250c5750506125e4565b612515826124d3565b67ffffffffffffffff81111561252e5761252d611cce565b5b612538825461208b565b61254382828561226d565b6000601f8311600181146125725760008415612560578287015490505b61256a85826122de565b8655506125dd565b601f198416612580876124e9565b965061258b8661214e565b60005b828110156125b35784890154825560018201915060018501945060208101905061258e565b868310156125d057848901546125cc601f8916826122c0565b8355505b6001600288020188555050505b5050505050505b565b7f4e487b7100000000000000000000000000000000000000000000000000000000600052601160045260246000fd5b600061262082611a3d565b91507fffffffffffffffffffffffffffffffffffffffffffffffffffffffffffffffff8203612652576126516125e6565b5b600182019050919050565b7f4e6f20737563682043616d706169676e00000000000000000000000000000000600082015250565b6000612693601083611aec565b915061269e8261265d565b602082019050919050565b600060208201905081810360008301526126c281612686565b9050919050565b7f43616d706169676e20646f656e206e6f74206578697374000000000000000000600082015250565b60006126ff601783611aec565b915061270a826126c9565b602082019050919050565b6000602082019050818103600083015261272e816126f2565b9050919050565b7f59657420746f2073746172740000000000000000000000000000000000000000600082015250565b600061276b600c83611aec565b915061277682612735565b602082019050919050565b6000602082019050818103600083015261279a8161275e565b9050919050565b7f43616d706169676e20456e646564000000000000000000000000000000000000600082015250565b60006127d7600e83611aec565b91506127e2826127a1565b602082019050919050565b60006020820190508181036000830152612806816127ca565b9050919050565b7f63616e277420766f7465206d6f7265207468616e206f6e636500000000000000600082015250565b6000612843601983611aec565b915061284e8261280d565b602082019050919050565b6000602082019050818103600083015261287281612836565b9050919050565b7f556e617574686f72697a656420746f20566f746520696e20746869732063616d60008201527f706169676e000000000000000000000000000000000000000000000000000000602082015250565b60006128d5602583611aec565b91506128e082612879565b604082019050919050565b60006020820190508181036000830152612904816128c8565b9050919050565b600061291682611a3d565b915061292183611a3d565b9250828203905081811115612939576129386125e6565b5b92915050565b600061294a82611a3d565b915061295583611a3d565b925082820190508082111561296d5761296c6125e6565b5b92915050565b7f4172726179204f766572466c6f61740000000000000000000000000000000000600082015250565b60006129a9600f83611aec565b91506129b482612973565b602082019050919050565b600060208201905081810360008301526129d88161299c565b9050919050565b7f43616e7420706572666f6d2074686973206f7065726174696f6e20616674657260008201527f20647572696e672063616d706169676e00000000000000000000000000000000602082015250565b6000612a3b603083611aec565b9150612a46826129df565b604082019050919050565b60006020820190508181036000830152612a6a81612a2e565b9050919050565b7f5265737472696374656420746f204368616972706572736f6e00000000000000600082015250565b6000612aa7601983611aec565b9150612ab282612a71565b602082019050919050565b60006020820190508181036000830152612ad681612a9a565b9050919050565b600081549050612aec8161208b565b9050919050565b818103612b01575050612bd9565b612b0a82612add565b67ffffffffffffffff811115612b2357612b22611cce565b5b612b2d825461208b565b612b3882828561226d565b6000601f831160018114612b675760008415612b55578287015490505b612b5f85826122de565b865550612bd2565b601f198416612b758761214e565b9650612b808661214e565b60005b82811015612ba857848901548255600182019150600185019450602081019050612b83565b86831015612bc55784890154612bc1601f8916826122c0565b8355505b6001600288020188555050505b5050505050505b565b7f4e487b7100000000000000000000000000000000000000000000000000000000600052603160045260246000fd5b7f41646472657373206973206e6f742076616c6964000000000000000000000000600082015250565b6000612c40601483611aec565b9150612c4b82612c0a565b602082019050919050565b60006020820190508181036000830152612c6f81612c33565b9050919050565b7f4f6e6c79204368616972706572736f6e206f6620746869732043616d7061696760008201527f6e2063616e2063616c6c20746869732066756e6374696f6e0000000000000000602082015250565b6000612cd2603883611aec565b9150612cdd82612c76565b604082019050919050565b60006020820190508181036000830152612d0181612cc5565b9050919050565b7f546869732043616d706169676e206973206e6f74207265737472696374656400600082015250565b6000612d3e601f83611aec565b9150612d4982612d08565b602082019050919050565b60006020820190508181036000830152612d6d81612d31565b9050919050565b7f4475726174696f6e206d7573742062652067726561746572207468616e20317360008201527f65636f6e64000000000000000000000000000000000000000000000000000000602082015250565b6000612dd0602583611aec565b9150612ddb82612d74565b604082019050919050565b60006020820190508181036000830152612dff81612dc3565b9050919050565b7f54696d652068617320746f20626520667574757265206e6f7420706173740000600082015250565b6000612e3c601e83611aec565b9150612e4782612e06565b602082019050919050565b60006020820190508181036000830152612e6b81612e2f565b9050919050565b600060c0820190508181036000830152612e8c8189611b38565b9050612e9b6020830188611b7d565b612ea86040830187611b8c565b612eb56060830186611b8c565b612ec26080830185611b8c565b612ecf60a0830184611b8c565b97965050505050505056fea2646970667358221220f299882472dcbfdac39767310878e8de6803a0202f74f824845fa07c0f7aea9e64736f6c63430008120033","opcodes":"PUSH1 0x80 PUSH1 0x40 MSTORE CALLVALUE DUP1 ISZERO PUSH2 0x10 JUMPI PUSH1 0x0 DUP1 REVERT JUMPDEST POP PUSH2 0x2F10 DUP1 PUSH2 0x20 PUSH1 0x0 CODECOPY PUSH1 0x0 RETURN INVALID PUSH1 0x80 PUSH1 0x40 MSTORE CALLVALUE DUP1 ISZERO PUSH2 0x10 JUMPI PUSH1 0x0 DUP1 REVERT JUMPDEST POP PUSH1 0x4 CALLDATASIZE LT PUSH2 0xF5 JUMPI PUSH1 0x0 CALLDATALOAD PUSH1 0xE0 SHR DUP1 PUSH4 0x713474FF GT PUSH2 0x97 JUMPI DUP1 PUSH4 0xD231C162 GT PUSH2 0x66 JUMPI DUP1 PUSH4 0xD231C162 EQ PUSH2 0x2DE JUMPI DUP1 PUSH4 0xDA58C7D9 EQ PUSH2 0x2FA JUMPI DUP1 PUSH4 0xDED2D402 EQ PUSH2 0x32C JUMPI DUP1 PUSH4 0xE9E90E7B EQ PUSH2 0x35C JUMPI PUSH2 0xF5 JUMP JUMPDEST DUP1 PUSH4 0x713474FF EQ PUSH2 0x230 JUMPI DUP1 PUSH4 0xA71A666B EQ PUSH2 0x262 JUMPI DUP1 PUSH4 0xB384ABEF EQ PUSH2 0x292 JUMPI DUP1 PUSH4 0xCF4A6060 EQ PUSH2 0x2C2 JUMPI PUSH2 0xF5 JUMP JUMPDEST DUP1 PUSH4 0x338A4834 GT PUSH2 0xD3 JUMPI DUP1 PUSH4 0x338A4834 EQ PUSH2 0x192 JUMPI DUP1 PUSH4 0x3DA90516 EQ PUSH2 0x1AE JUMPI DUP1 PUSH4 0x5EF1A1AA EQ PUSH2 0x1CC JUMPI DUP1 PUSH4 0x6A4A4209 EQ PUSH2 0x1FC JUMPI PUSH2 0xF5 JUMP JUMPDEST DUP1 PUSH4 0x10D91123 EQ PUSH2 0xFA JUMPI DUP1 PUSH4 0x2602600D EQ PUSH2 0x132 JUMPI DUP1 PUSH4 0x2F9248A6 EQ PUSH2 0x162 JUMPI JUMPDEST PUSH1 0x0 DUP1 REVERT JUMPDEST PUSH2 0x114 PUSH1 0x4 DUP1 CALLDATASIZE SUB DUP2 ADD SWAP1 PUSH2 0x10F SWAP2 SWAP1 PUSH2 0x1A73 JUMP JUMPDEST PUSH2 0x38C JUMP JUMPDEST PUSH1 0x40 MLOAD PUSH2 0x129 SWAP10 SWAP9 SWAP8 SWAP7 SWAP6 SWAP5 SWAP4 SWAP3 SWAP2 SWAP1 PUSH2 0x1B9B JUMP JUMPDEST PUSH1 0x40 MLOAD DUP1 SWAP2 SUB SWAP1 RETURN JUMPDEST PUSH2 0x14C PUSH1 0x4 DUP1 CALLDATASIZE SUB DUP2 ADD SWAP1 PUSH2 0x147 SWAP2 SWAP1 PUSH2 0x1C69 JUMP JUMPDEST PUSH2 0x59F JUMP JUMPDEST PUSH1 0x40 MLOAD PUSH2 0x159 SWAP2 SWAP1 PUSH2 0x1CA9 JUMP JUMPDEST PUSH1 0x40 MLOAD DUP1 SWAP2 SUB SWAP1 RETURN JUMPDEST PUSH2 0x17C PUSH1 0x4 DUP1 CALLDATASIZE SUB DUP2 ADD SWAP1 PUSH2 0x177 SWAP2 SWAP1 PUSH2 0x1C69 JUMP JUMPDEST PUSH2 0x5CE JUMP JUMPDEST PUSH1 0x40 MLOAD PUSH2 0x189 SWAP2 SWAP1 PUSH2 0x1CA9 JUMP JUMPDEST PUSH1 0x40 MLOAD DUP1 SWAP2 SUB SWAP1 RETURN JUMPDEST PUSH2 0x1AC PUSH1 0x4 DUP1 CALLDATASIZE SUB DUP2 ADD SWAP1 PUSH2 0x1A7 SWAP2 SWAP1 PUSH2 0x1DF9 JUMP JUMPDEST PUSH2 0x5FD JUMP JUMPDEST STOP JUMPDEST PUSH2 0x1B6 PUSH2 0x75E JUMP JUMPDEST PUSH1 0x40 MLOAD PUSH2 0x1C3 SWAP2 SWAP1 PUSH2 0x1E98 JUMP JUMPDEST PUSH1 0x40 MLOAD DUP1 SWAP2 SUB SWAP1 RETURN JUMPDEST PUSH2 0x1E6 PUSH1 0x4 DUP1 CALLDATASIZE SUB DUP2 ADD SWAP1 PUSH2 0x1E1 SWAP2 SWAP1 PUSH2 0x1A73 JUMP JUMPDEST PUSH2 0x764 JUMP JUMPDEST PUSH1 0x40 MLOAD PUSH2 0x1F3 SWAP2 SWAP1 PUSH2 0x1EB3 JUMP JUMPDEST PUSH1 0x40 MLOAD DUP1 SWAP2 SUB SWAP1 RETURN JUMPDEST PUSH2 0x216 PUSH1 0x4 DUP1 CALLDATASIZE SUB DUP2 ADD SWAP1 PUSH2 0x211 SWAP2 SWAP1 PUSH2 0x1ED5 JUMP JUMPDEST PUSH2 0xA04 JUMP JUMPDEST PUSH1 0x40 MLOAD PUSH2 0x227 SWAP6 SWAP5 SWAP4 SWAP3 SWAP2 SWAP1 PUSH2 0x1F15 JUMP JUMPDEST PUSH1 0x40 MLOAD DUP1 SWAP2 SUB SWAP1 RETURN JUMPDEST PUSH2 0x24A PUSH1 0x4 DUP1 CALLDATASIZE SUB DUP2 ADD SWAP1 PUSH2 0x245 SWAP2 SWAP1 PUSH2 0x1A73 JUMP JUMPDEST PUSH2 0xB67 JUMP JUMPDEST PUSH1 0x40 MLOAD PUSH2 0x259 SWAP4 SWAP3 SWAP2 SWAP1 PUSH2 0x1F76 JUMP JUMPDEST PUSH1 0x40 MLOAD DUP1 SWAP2 SUB SWAP1 RETURN JUMPDEST PUSH2 0x27C PUSH1 0x4 DUP1 CALLDATASIZE SUB DUP2 ADD SWAP1 PUSH2 0x277 SWAP2 SWAP1 PUSH2 0x1A73 JUMP JUMPDEST PUSH2 0xBCB JUMP JUMPDEST PUSH1 0x40 MLOAD PUSH2 0x289 SWAP2 SWAP1 PUSH2 0x1E98 JUMP JUMPDEST PUSH1 0x40 MLOAD DUP1 SWAP2 SUB SWAP1 RETURN JUMPDEST PUSH2 0x2AC PUSH1 0x4 DUP1 CALLDATASIZE SUB DUP2 ADD SWAP1 PUSH2 0x2A7 SWAP2 SWAP1 PUSH2 0x1ED5 JUMP JUMPDEST PUSH2 0xC8F JUMP JUMPDEST PUSH1 0x40 MLOAD PUSH2 0x2B9 SWAP2 SWAP1 PUSH2 0x1CA9 JUMP JUMPDEST PUSH1 0x40 MLOAD DUP1 SWAP2 SUB SWAP1 RETURN JUMPDEST PUSH2 0x2DC PUSH1 0x4 DUP1 CALLDATASIZE SUB DUP2 ADD SWAP1 PUSH2 0x2D7 SWAP2 SWAP1 PUSH2 0x1ED5 JUMP JUMPDEST PUSH2 0x109E JUMP JUMPDEST STOP JUMPDEST PUSH2 0x2F8 PUSH1 0x4 DUP1 CALLDATASIZE SUB DUP2 ADD SWAP1 PUSH2 0x2F3 SWAP2 SWAP1 PUSH2 0x1C69 JUMP JUMPDEST PUSH2 0x1377 JUMP JUMPDEST STOP JUMPDEST PUSH2 0x314 PUSH1 0x4 DUP1 CALLDATASIZE SUB DUP2 ADD SWAP1 PUSH2 0x30F SWAP2 SWAP1 PUSH2 0x1A73 JUMP JUMPDEST PUSH2 0x1665 JUMP JUMPDEST PUSH1 0x40 MLOAD PUSH2 0x323 SWAP4 SWAP3 SWAP2 SWAP1 PUSH2 0x1F76 JUMP JUMPDEST PUSH1 0x40 MLOAD DUP1 SWAP2 SUB SWAP1 RETURN JUMPDEST PUSH2 0x346 PUSH1 0x4 DUP1 CALLDATASIZE SUB DUP2 ADD SWAP1 PUSH2 0x341 SWAP2 SWAP1 PUSH2 0x1A73 JUMP JUMPDEST PUSH2 0x16D5 JUMP JUMPDEST PUSH1 0x40 MLOAD PUSH2 0x353 SWAP2 SWAP1 PUSH2 0x1E98 JUMP JUMPDEST PUSH1 0x40 MLOAD DUP1 SWAP2 SUB SWAP1 RETURN JUMPDEST PUSH2 0x376 PUSH1 0x4 DUP1 CALLDATASIZE SUB DUP2 ADD SWAP1 PUSH2 0x371 SWAP2 SWAP1 PUSH2 0x1FD9 JUMP JUMPDEST PUSH2 0x16FA JUMP JUMPDEST PUSH1 0x40 MLOAD PUSH2 0x383 SWAP2 SWAP1 PUSH2 0x1E98 JUMP JUMPDEST PUSH1 0x40 MLOAD DUP1 SWAP2 SUB SWAP1 RETURN JUMPDEST PUSH1 0x1 PUSH1 0x20 MSTORE DUP1 PUSH1 0x0 MSTORE PUSH1 0x40 PUSH1 0x0 KECCAK256 PUSH1 0x0 SWAP2 POP SWAP1 POP DUP1 PUSH1 0x0 ADD PUSH1 0x0 SWAP1 SLOAD SWAP1 PUSH2 0x100 EXP SWAP1 DIV PUSH20 0xFFFFFFFFFFFFFFFFFFFFFFFFFFFFFFFFFFFFFFFF AND SWAP1 DUP1 PUSH1 0x1 ADD DUP1 SLOAD PUSH2 0x3D5 SWAP1 PUSH2 0x208B JUMP JUMPDEST DUP1 PUSH1 0x1F ADD PUSH1 0x20 DUP1 SWAP2 DIV MUL PUSH1 0x20 ADD PUSH1 0x40 MLOAD SWAP1 DUP2 ADD PUSH1 0x40 MSTORE DUP1 SWAP3 SWAP2 SWAP1 DUP2 DUP2 MSTORE PUSH1 0x20 ADD DUP3 DUP1 SLOAD PUSH2 0x401 SWAP1 PUSH2 0x208B JUMP JUMPDEST DUP1 ISZERO PUSH2 0x44E JUMPI DUP1 PUSH1 0x1F LT PUSH2 0x423 JUMPI PUSH2 0x100 DUP1 DUP4 SLOAD DIV MUL DUP4 MSTORE SWAP2 PUSH1 0x20 ADD SWAP2 PUSH2 0x44E JUMP JUMPDEST DUP3 ADD SWAP2 SWAP1 PUSH1 0x0 MSTORE PUSH1 0x20 PUSH1 0x0 KECCAK256 SWAP1 JUMPDEST DUP2 SLOAD DUP2 MSTORE SWAP1 PUSH1 0x1 ADD SWAP1 PUSH1 0x20 ADD DUP1 DUP4 GT PUSH2 0x431 JUMPI DUP3 SWAP1 SUB PUSH1 0x1F AND DUP3 ADD SWAP2 JUMPDEST POP POP POP POP POP SWAP1 DUP1 PUSH1 0x2 ADD PUSH1 0x0 SWAP1 SLOAD SWAP1 PUSH2 0x100 EXP SWAP1 DIV PUSH1 0xFF AND SWAP1 DUP1 PUSH1 0x3 ADD SLOAD SWAP1 DUP1 PUSH1 0x4 ADD SLOAD SWAP1 DUP1 PUSH1 0x5 ADD SLOAD SWAP1 DUP1 PUSH1 0x6 ADD SLOAD SWAP1 DUP1 PUSH1 0x7 ADD DUP1 SLOAD PUSH2 0x48E SWAP1 PUSH2 0x208B JUMP JUMPDEST DUP1 PUSH1 0x1F ADD PUSH1 0x20 DUP1 SWAP2 DIV MUL PUSH1 0x20 ADD PUSH1 0x40 MLOAD SWAP1 DUP2 ADD PUSH1 0x40 MSTORE DUP1 SWAP3 SWAP2 SWAP1 DUP2 DUP2 MSTORE PUSH1 0x20 ADD DUP3 DUP1 SLOAD PUSH2 0x4BA SWAP1 PUSH2 0x208B JUMP JUMPDEST DUP1 ISZERO PUSH2 0x507 JUMPI DUP1 PUSH1 0x1F LT PUSH2 0x4DC JUMPI PUSH2 0x100 DUP1 DUP4 SLOAD DIV MUL DUP4 MSTORE SWAP2 PUSH1 0x20 ADD SWAP2 PUSH2 0x507 JUMP JUMPDEST DUP3 ADD SWAP2 SWAP1 PUSH1 0x0 MSTORE PUSH1 0x20 PUSH1 0x0 KECCAK256 SWAP1 JUMPDEST DUP2 SLOAD DUP2 MSTORE SWAP1 PUSH1 0x1 ADD SWAP1 PUSH1 0x20 ADD DUP1 DUP4 GT PUSH2 0x4EA JUMPI DUP3 SWAP1 SUB PUSH1 0x1F AND DUP3 ADD SWAP2 JUMPDEST POP POP POP POP POP SWAP1 DUP1 PUSH1 0x8 ADD DUP1 SLOAD PUSH2 0x51C SWAP1 PUSH2 0x208B JUMP JUMPDEST DUP1 PUSH1 0x1F ADD PUSH1 0x20 DUP1 SWAP2 DIV MUL PUSH1 0x20 ADD PUSH1 0x40 MLOAD SWAP1 DUP2 ADD PUSH1 0x40 MSTORE DUP1 SWAP3 SWAP2 SWAP1 DUP2 DUP2 MSTORE PUSH1 0x20 ADD DUP3 DUP1 SLOAD PUSH2 0x548 SWAP1 PUSH2 0x208B JUMP JUMPDEST DUP1 ISZERO PUSH2 0x595 JUMPI DUP1 PUSH1 0x1F LT PUSH2 0x56A JUMPI PUSH2 0x100 DUP1 DUP4 SLOAD DIV MUL DUP4 MSTORE SWAP2 PUSH1 0x20 ADD SWAP2 PUSH2 0x595 JUMP JUMPDEST DUP3 ADD SWAP2 SWAP1 PUSH1 0x0 MSTORE PUSH1 0x20 PUSH1 0x0 KECCAK256 SWAP1 JUMPDEST DUP2 SLOAD DUP2 MSTORE SWAP1 PUSH1 0x1 ADD SWAP1 PUSH1 0x20 ADD DUP1 DUP4 GT PUSH2 0x578 JUMPI DUP3 SWAP1 SUB PUSH1 0x1F AND DUP3 ADD SWAP2 JUMPDEST POP POP POP POP POP SWAP1 POP DUP10 JUMP JUMPDEST PUSH1 0x4 PUSH1 0x20 MSTORE DUP2 PUSH1 0x0 MSTORE PUSH1 0x40 PUSH1 0x0 KECCAK256 PUSH1 0x20 MSTORE DUP1 PUSH1 0x0 MSTORE PUSH1 0x40 PUSH1 0x0 KECCAK256 PUSH1 0x0 SWAP2 POP SWAP2 POP SWAP1 SLOAD SWAP1 PUSH2 0x100 EXP SWAP1 DIV PUSH1 0xFF AND DUP2 JUMP JUMPDEST PUSH1 0x3 PUSH1 0x20 MSTORE DUP2 PUSH1 0x0 MSTORE PUSH1 0x40 PUSH1 0x0 KECCAK256 PUSH1 0x20 MSTORE DUP1 PUSH1 0x0 MSTORE PUSH1 0x40 PUSH1 0x0 KECCAK256 PUSH1 0x0 SWAP2 POP SWAP2 POP SWAP1 SLOAD SWAP1 PUSH2 0x100 EXP SWAP1 DIV PUSH1 0xFF AND DUP2 JUMP JUMPDEST PUSH1 0x1 PUSH1 0x0 DUP6 DUP2 MSTORE PUSH1 0x20 ADD SWAP1 DUP2 MSTORE PUSH1 0x20 ADD PUSH1 0x0 KECCAK256 PUSH1 0x0 ADD PUSH1 0x0 SWAP1 SLOAD SWAP1 PUSH2 0x100 EXP SWAP1 DIV PUSH20 0xFFFFFFFFFFFFFFFFFFFFFFFFFFFFFFFFFFFFFFFF AND PUSH20 0xFFFFFFFFFFFFFFFFFFFFFFFFFFFFFFFFFFFFFFFF AND CALLER PUSH20 0xFFFFFFFFFFFFFFFFFFFFFFFFFFFFFFFFFFFFFFFF AND EQ PUSH2 0x6A1 JUMPI PUSH1 0x40 MLOAD PUSH32 0x8C379A000000000000000000000000000000000000000000000000000000000 DUP2 MSTORE PUSH1 0x4 ADD PUSH2 0x698 SWAP1 PUSH2 0x212E JUMP JUMPDEST PUSH1 0x40 MLOAD DUP1 SWAP2 SUB SWAP1 REVERT JUMPDEST PUSH1 0x0 PUSH1 0x40 MLOAD DUP1 PUSH1 0xA0 ADD PUSH1 0x40 MSTORE DUP1 DUP6 DUP2 MSTORE PUSH1 0x20 ADD DUP4 DUP2 MSTORE PUSH1 0x20 ADD DUP5 DUP2 MSTORE PUSH1 0x20 ADD PUSH1 0x0 DUP2 MSTORE PUSH1 0x20 ADD PUSH1 0x0 DUP2 MSTORE POP SWAP1 POP PUSH1 0x2 PUSH1 0x0 DUP7 DUP2 MSTORE PUSH1 0x20 ADD SWAP1 DUP2 MSTORE PUSH1 0x20 ADD PUSH1 0x0 KECCAK256 DUP2 SWAP1 DUP1 PUSH1 0x1 DUP2 SLOAD ADD DUP1 DUP3 SSTORE DUP1 SWAP2 POP POP PUSH1 0x1 SWAP1 SUB SWAP1 PUSH1 0x0 MSTORE PUSH1 0x20 PUSH1 0x0 KECCAK256 SWAP1 PUSH1 0x5 MUL ADD PUSH1 0x0 SWAP1 SWAP2 SWAP1 SWAP2 SWAP1 SWAP2 POP PUSH1 0x0 DUP3 ADD MLOAD DUP2 PUSH1 0x0 ADD SWAP1 DUP2 PUSH2 0x720 SWAP2 SWAP1 PUSH2 0x22FA JUMP JUMPDEST POP PUSH1 0x20 DUP3 ADD MLOAD DUP2 PUSH1 0x1 ADD SSTORE PUSH1 0x40 DUP3 ADD MLOAD DUP2 PUSH1 0x2 ADD SWAP1 DUP2 PUSH2 0x740 SWAP2 SWAP1 PUSH2 0x22FA JUMP JUMPDEST POP PUSH1 0x60 DUP3 ADD MLOAD DUP2 PUSH1 0x3 ADD SSTORE PUSH1 0x80 DUP3 ADD MLOAD DUP2 PUSH1 0x4 ADD SSTORE POP POP POP POP POP POP POP JUMP JUMPDEST PUSH1 0x0 SLOAD DUP2 JUMP JUMPDEST PUSH1 0x60 PUSH1 0x1 PUSH1 0x0 DUP4 DUP2 MSTORE PUSH1 0x20 ADD SWAP1 DUP2 MSTORE PUSH1 0x20 ADD PUSH1 0x0 KECCAK256 PUSH1 0x5 ADD SLOAD TIMESTAMP GT PUSH2 0x7BE JUMPI PUSH1 0x40 MLOAD PUSH32 0x8C379A000000000000000000000000000000000000000000000000000000000 DUP2 MSTORE PUSH1 0x4 ADD PUSH2 0x7B5 SWAP1 PUSH2 0x2418 JUMP JUMPDEST PUSH1 0x40 MLOAD DUP1 SWAP2 SUB SWAP1 REVERT JUMPDEST PUSH1 0x1 PUSH1 0x0 DUP4 DUP2 MSTORE PUSH1 0x20 ADD SWAP1 DUP2 MSTORE PUSH1 0x20 ADD PUSH1 0x0 KECCAK256 PUSH1 0x4 ADD SLOAD TIMESTAMP GT PUSH2 0x816 JUMPI PUSH1 0x40 MLOAD PUSH32 0x8C379A000000000000000000000000000000000000000000000000000000000 DUP2 MSTORE PUSH1 0x4 ADD PUSH2 0x80D SWAP1 PUSH2 0x2484 JUMP JUMPDEST PUSH1 0x40 MLOAD DUP1 SWAP2 SUB SWAP1 REVERT JUMPDEST PUSH1 0x0 DUP1 PUSH1 0x0 SWAP1 POP JUMPDEST PUSH1 0x2 PUSH1 0x0 DUP6 DUP2 MSTORE PUSH1 0x20 ADD SWAP1 DUP2 MSTORE PUSH1 0x20 ADD PUSH1 0x0 KECCAK256 DUP1 SLOAD SWAP1 POP DUP2 LT ISZERO PUSH2 0x95C JUMPI DUP2 PUSH1 0x2 PUSH1 0x0 DUP7 DUP2 MSTORE PUSH1 0x20 ADD SWAP1 DUP2 MSTORE PUSH1 0x20 ADD PUSH1 0x0 KECCAK256 DUP3 DUP2 SLOAD DUP2 LT PUSH2 0x862 JUMPI PUSH2 0x861 PUSH2 0x24A4 JUMP JUMPDEST JUMPDEST SWAP1 PUSH1 0x0 MSTORE PUSH1 0x20 PUSH1 0x0 KECCAK256 SWAP1 PUSH1 0x5 MUL ADD PUSH1 0x3 ADD SLOAD GT ISZERO PUSH2 0x949 JUMPI PUSH1 0x2 PUSH1 0x0 DUP6 DUP2 MSTORE PUSH1 0x20 ADD SWAP1 DUP2 MSTORE PUSH1 0x20 ADD PUSH1 0x0 KECCAK256 DUP2 DUP2 SLOAD DUP2 LT PUSH2 0x89F JUMPI PUSH2 0x89E PUSH2 0x24A4 JUMP JUMPDEST JUMPDEST SWAP1 PUSH1 0x0 MSTORE PUSH1 0x20 PUSH1 0x0 KECCAK256 SWAP1 PUSH1 0x5 MUL ADD PUSH1 0x3 ADD SLOAD SWAP2 POP PUSH1 0x2 PUSH1 0x0 DUP6 DUP2 MSTORE PUSH1 0x20 ADD SWAP1 DUP2 MSTORE PUSH1 0x20 ADD PUSH1 0x0 KECCAK256 DUP2 DUP2 SLOAD DUP2 LT PUSH2 0x8D8 JUMPI PUSH2 0x8D7 PUSH2 0x24A4 JUMP JUMPDEST JUMPDEST SWAP1 PUSH1 0x0 MSTORE PUSH1 0x20 PUSH1 0x0 KECCAK256 SWAP1 PUSH1 0x5 MUL ADD PUSH1 0x0 ADD PUSH1 0x1 PUSH1 0x0 DUP7 DUP2 MSTORE PUSH1 0x20 ADD SWAP1 DUP2 MSTORE PUSH1 0x20 ADD PUSH1 0x0 KECCAK256 PUSH1 0x7 ADD SWAP1 DUP2 PUSH2 0x90B SWAP2 SWAP1 PUSH2 0x24FE JUMP JUMPDEST POP PUSH1 0x1 PUSH1 0x2 PUSH1 0x0 DUP7 DUP2 MSTORE PUSH1 0x20 ADD SWAP1 DUP2 MSTORE PUSH1 0x20 ADD PUSH1 0x0 KECCAK256 DUP3 DUP2 SLOAD DUP2 LT PUSH2 0x933 JUMPI PUSH2 0x932 PUSH2 0x24A4 JUMP JUMPDEST JUMPDEST SWAP1 PUSH1 0x0 MSTORE PUSH1 0x20 PUSH1 0x0 KECCAK256 SWAP1 PUSH1 0x5 MUL ADD PUSH1 0x4 ADD DUP2 SWAP1 SSTORE POP JUMPDEST DUP1 DUP1 PUSH2 0x954 SWAP1 PUSH2 0x2615 JUMP JUMPDEST SWAP2 POP POP PUSH2 0x81E JUMP JUMPDEST POP PUSH1 0x1 PUSH1 0x0 DUP5 DUP2 MSTORE PUSH1 0x20 ADD SWAP1 DUP2 MSTORE PUSH1 0x20 ADD PUSH1 0x0 KECCAK256 PUSH1 0x7 ADD DUP1 SLOAD PUSH2 0x97E SWAP1 PUSH2 0x208B JUMP JUMPDEST DUP1 PUSH1 0x1F ADD PUSH1 0x20 DUP1 SWAP2 DIV MUL PUSH1 0x20 ADD PUSH1 0x40 MLOAD SWAP1 DUP2 ADD PUSH1 0x40 MSTORE DUP1 SWAP3 SWAP2 SWAP1 DUP2 DUP2 MSTORE PUSH1 0x20 ADD DUP3 DUP1 SLOAD PUSH2 0x9AA SWAP1 PUSH2 0x208B JUMP JUMPDEST DUP1 ISZERO PUSH2 0x9F7 JUMPI DUP1 PUSH1 0x1F LT PUSH2 0x9CC JUMPI PUSH2 0x100 DUP1 DUP4 SLOAD DIV MUL DUP4 MSTORE SWAP2 PUSH1 0x20 ADD SWAP2 PUSH2 0x9F7 JUMP JUMPDEST DUP3 ADD SWAP2 SWAP1 PUSH1 0x0 MSTORE PUSH1 0x20 PUSH1 0x0 KECCAK256 SWAP1 JUMPDEST DUP2 SLOAD DUP2 MSTORE SWAP1 PUSH1 0x1 ADD SWAP1 PUSH1 0x20 ADD DUP1 DUP4 GT PUSH2 0x9DA JUMPI DUP3 SWAP1 SUB PUSH1 0x1F AND DUP3 ADD SWAP2 JUMPDEST POP POP POP POP POP SWAP2 POP POP SWAP2 SWAP1 POP JUMP JUMPDEST PUSH1 0x2 PUSH1 0x20 MSTORE DUP2 PUSH1 0x0 MSTORE PUSH1 0x40 PUSH1 0x0 KECCAK256 DUP2 DUP2 SLOAD DUP2 LT PUSH2 0xA20 JUMPI PUSH1 0x0 DUP1 REVERT JUMPDEST SWAP1 PUSH1 0x0 MSTORE PUSH1 0x20 PUSH1 0x0 KECCAK256 SWAP1 PUSH1 0x5 MUL ADD PUSH1 0x0 SWAP2 POP SWAP2 POP POP DUP1 PUSH1 0x0 ADD DUP1 SLOAD PUSH2 0xA44 SWAP1 PUSH2 0x208B JUMP JUMPDEST DUP1 PUSH1 0x1F ADD PUSH1 0x20 DUP1 SWAP2 DIV MUL PUSH1 0x20 ADD PUSH1 0x40 MLOAD SWAP1 DUP2 ADD PUSH1 0x40 MSTORE DUP1 SWAP3 SWAP2 SWAP1 DUP2 DUP2 MSTORE PUSH1 0x20 ADD DUP3 DUP1 SLOAD PUSH2 0xA70 SWAP1 PUSH2 0x208B JUMP JUMPDEST DUP1 ISZERO PUSH2 0xABD JUMPI DUP1 PUSH1 0x1F LT PUSH2 0xA92 JUMPI PUSH2 0x100 DUP1 DUP4 SLOAD DIV MUL DUP4 MSTORE SWAP2 PUSH1 0x20 ADD SWAP2 PUSH2 0xABD JUMP JUMPDEST DUP3 ADD SWAP2 SWAP1 PUSH1 0x0 MSTORE PUSH1 0x20 PUSH1 0x0 KECCAK256 SWAP1 JUMPDEST DUP2 SLOAD DUP2 MSTORE SWAP1 PUSH1 0x1 ADD SWAP1 PUSH1 0x20 ADD DUP1 DUP4 GT PUSH2 0xAA0 JUMPI DUP3 SWAP1 SUB PUSH1 0x1F AND DUP3 ADD SWAP2 JUMPDEST POP POP POP POP POP SWAP1 DUP1 PUSH1 0x1 ADD SLOAD SWAP1 DUP1 PUSH1 0x2 ADD DUP1 SLOAD PUSH2 0xAD8 SWAP1 PUSH2 0x208B JUMP JUMPDEST DUP1 PUSH1 0x1F ADD PUSH1 0x20 DUP1 SWAP2 DIV MUL PUSH1 0x20 ADD PUSH1 0x40 MLOAD SWAP1 DUP2 ADD PUSH1 0x40 MSTORE DUP1 SWAP3 SWAP2 SWAP1 DUP2 DUP2 MSTORE PUSH1 0x20 ADD DUP3 DUP1 SLOAD PUSH2 0xB04 SWAP1 PUSH2 0x208B JUMP JUMPDEST DUP1 ISZERO PUSH2 0xB51 JUMPI DUP1 PUSH1 0x1F LT PUSH2 0xB26 JUMPI PUSH2 0x100 DUP1 DUP4 SLOAD DIV MUL DUP4 MSTORE SWAP2 PUSH1 0x20 ADD SWAP2 PUSH2 0xB51 JUMP JUMPDEST DUP3 ADD SWAP2 SWAP1 PUSH1 0x0 MSTORE PUSH1 0x20 PUSH1 0x0 KECCAK256 SWAP1 JUMPDEST DUP2 SLOAD DUP2 MSTORE SWAP1 PUSH1 0x1 ADD SWAP1 PUSH1 0x20 ADD DUP1 DUP4 GT PUSH2 0xB34 JUMPI DUP3 SWAP1 SUB PUSH1 0x1F AND DUP3 ADD SWAP2 JUMPDEST POP POP POP POP POP SWAP1 DUP1 PUSH1 0x3 ADD SLOAD SWAP1 DUP1 PUSH1 0x4 ADD SLOAD SWAP1 POP DUP6 JUMP JUMPDEST PUSH1 0x5 PUSH1 0x20 MSTORE DUP1 PUSH1 0x0 MSTORE PUSH1 0x40 PUSH1 0x0 KECCAK256 PUSH1 0x0 SWAP2 POP SWAP1 POP DUP1 PUSH1 0x0 ADD PUSH1 0x0 SWAP1 SLOAD SWAP1 PUSH2 0x100 EXP SWAP1 DIV PUSH20 0xFFFFFFFFFFFFFFFFFFFFFFFFFFFFFFFFFFFFFFFF AND SWAP1 DUP1 PUSH1 0x0 ADD PUSH1 0x14 SWAP1 SLOAD SWAP1 PUSH2 0x100 EXP SWAP1 DIV PUSH1 0xFF AND SWAP1 DUP1 PUSH1 0x0 ADD PUSH1 0x15 SWAP1 SLOAD SWAP1 PUSH2 0x100 EXP SWAP1 DIV PUSH1 0xFF AND SWAP1 POP DUP4 JUMP JUMPDEST PUSH1 0x0 DUP1 PUSH20 0xFFFFFFFFFFFFFFFFFFFFFFFFFFFFFFFFFFFFFFFF AND PUSH1 0x1 PUSH1 0x0 DUP5 DUP2 MSTORE PUSH1 0x20 ADD SWAP1 DUP2 MSTORE PUSH1 0x20 ADD PUSH1 0x0 KECCAK256 PUSH1 0x0 ADD PUSH1 0x0 SWAP1 SLOAD SWAP1 PUSH2 0x100 EXP SWAP1 DIV PUSH20 0xFFFFFFFFFFFFFFFFFFFFFFFFFFFFFFFFFFFFFFFF AND PUSH20 0xFFFFFFFFFFFFFFFFFFFFFFFFFFFFFFFFFFFFFFFF AND SUB PUSH2 0xC71 JUMPI PUSH1 0x40 MLOAD PUSH32 0x8C379A000000000000000000000000000000000000000000000000000000000 DUP2 MSTORE PUSH1 0x4 ADD PUSH2 0xC68 SWAP1 PUSH2 0x26A9 JUMP JUMPDEST PUSH1 0x40 MLOAD DUP1 SWAP2 SUB SWAP1 REVERT JUMPDEST PUSH1 0x1 PUSH1 0x0 DUP4 DUP2 MSTORE PUSH1 0x20 ADD SWAP1 DUP2 MSTORE PUSH1 0x20 ADD PUSH1 0x0 KECCAK256 PUSH1 0x6 ADD SLOAD SWAP1 POP SWAP2 SWAP1 POP JUMP JUMPDEST PUSH1 0x0 DUP1 PUSH20 0xFFFFFFFFFFFFFFFFFFFFFFFFFFFFFFFFFFFFFFFF AND PUSH1 0x1 PUSH1 0x0 DUP6 DUP2 MSTORE PUSH1 0x20 ADD SWAP1 DUP2 MSTORE PUSH1 0x20 ADD PUSH1 0x0 KECCAK256 PUSH1 0x0 ADD PUSH1 0x0 SWAP1 SLOAD SWAP1 PUSH2 0x100 EXP SWAP1 DIV PUSH20 0xFFFFFFFFFFFFFFFFFFFFFFFFFFFFFFFFFFFFFFFF AND PUSH20 0xFFFFFFFFFFFFFFFFFFFFFFFFFFFFFFFFFFFFFFFF AND SUB PUSH2 0xD35 JUMPI PUSH1 0x40 MLOAD PUSH32 0x8C379A000000000000000000000000000000000000000000000000000000000 DUP2 MSTORE PUSH1 0x4 ADD PUSH2 0xD2C SWAP1 PUSH2 0x2715 JUMP JUMPDEST PUSH1 0x40 MLOAD DUP1 SWAP2 SUB SWAP1 REVERT JUMPDEST PUSH1 0x1 PUSH1 0x0 DUP5 DUP2 MSTORE PUSH1 0x20 ADD SWAP1 DUP2 MSTORE PUSH1 0x20 ADD PUSH1 0x0 KECCAK256 PUSH1 0x4 ADD SLOAD TIMESTAMP LT ISZERO PUSH2 0xD8E JUMPI PUSH1 0x40 MLOAD PUSH32 0x8C379A000000000000000000000000000000000000000000000000000000000 DUP2 MSTORE PUSH1 0x4 ADD PUSH2 0xD85 SWAP1 PUSH2 0x2781 JUMP JUMPDEST PUSH1 0x40 MLOAD DUP1 SWAP2 SUB SWAP1 REVERT JUMPDEST PUSH1 0x1 PUSH1 0x0 DUP5 DUP2 MSTORE PUSH1 0x20 ADD SWAP1 DUP2 MSTORE PUSH1 0x20 ADD PUSH1 0x0 KECCAK256 PUSH1 0x5 ADD SLOAD TIMESTAMP GT ISZERO PUSH2 0xDE7 JUMPI PUSH1 0x40 MLOAD PUSH32 0x8C379A000000000000000000000000000000000000000000000000000000000 DUP2 MSTORE PUSH1 0x4 ADD PUSH2 0xDDE SWAP1 PUSH2 0x27ED JUMP JUMPDEST PUSH1 0x40 MLOAD DUP1 SWAP2 SUB SWAP1 REVERT JUMPDEST PUSH1 0x0 ISZERO ISZERO PUSH1 0x4 PUSH1 0x0 DUP6 DUP2 MSTORE PUSH1 0x20 ADD SWAP1 DUP2 MSTORE PUSH1 0x20 ADD PUSH1 0x0 KECCAK256 PUSH1 0x0 CALLER PUSH20 0xFFFFFFFFFFFFFFFFFFFFFFFFFFFFFFFFFFFFFFFF AND PUSH20 0xFFFFFFFFFFFFFFFFFFFFFFFFFFFFFFFFFFFFFFFF AND DUP2 MSTORE PUSH1 0x20 ADD SWAP1 DUP2 MSTORE PUSH1 0x20 ADD PUSH1 0x0 KECCAK256 PUSH1 0x0 SWAP1 SLOAD SWAP1 PUSH2 0x100 EXP SWAP1 DIV PUSH1 0xFF AND ISZERO ISZERO EQ PUSH2 0xE8B JUMPI PUSH1 0x40 MLOAD PUSH32 0x8C379A000000000000000000000000000000000000000000000000000000000 DUP2 MSTORE PUSH1 0x4 ADD PUSH2 0xE82 SWAP1 PUSH2 0x2859 JUMP JUMPDEST PUSH1 0x40 MLOAD DUP1 SWAP2 SUB SWAP1 REVERT JUMPDEST PUSH1 0x1 ISZERO ISZERO PUSH1 0x1 PUSH1 0x0 DUP6 DUP2 MSTORE PUSH1 0x20 ADD SWAP1 DUP2 MSTORE PUSH1 0x20 ADD PUSH1 0x0 KECCAK256 PUSH1 0x2 ADD PUSH1 0x0 SWAP1 SLOAD SWAP1 PUSH2 0x100 EXP SWAP1 DIV PUSH1 0xFF AND ISZERO ISZERO SUB PUSH2 0xF5F JUMPI PUSH1 0x1 ISZERO ISZERO PUSH1 0x3 PUSH1 0x0 DUP6 DUP2 MSTORE PUSH1 0x20 ADD SWAP1 DUP2 MSTORE PUSH1 0x20 ADD PUSH1 0x0 KECCAK256 PUSH1 0x0 CALLER PUSH20 0xFFFFFFFFFFFFFFFFFFFFFFFFFFFFFFFFFFFFFFFF AND PUSH20 0xFFFFFFFFFFFFFFFFFFFFFFFFFFFFFFFFFFFFFFFF AND DUP2 MSTORE PUSH1 0x20 ADD SWAP1 DUP2 MSTORE PUSH1 0x20 ADD PUSH1 0x0 KECCAK256 PUSH1 0x0 SWAP1 SLOAD SWAP1 PUSH2 0x100 EXP SWAP1 DIV PUSH1 0xFF AND ISZERO ISZERO EQ PUSH2 0xF5E JUMPI PUSH1 0x40 MLOAD PUSH32 0x8C379A000000000000000000000000000000000000000000000000000000000 DUP2 MSTORE PUSH1 0x4 ADD PUSH2 0xF55 SWAP1 PUSH2 0x28EB JUMP JUMPDEST PUSH1 0x40 MLOAD DUP1 SWAP2 SUB SWAP1 REVERT JUMPDEST JUMPDEST PUSH1 0x0 PUSH2 0xF6B DUP5 DUP5 PUSH2 0x197D JUMP JUMPDEST SWAP1 POP DUP1 ISZERO PUSH2 0x1093 JUMPI PUSH1 0x1 PUSH1 0x2 PUSH1 0x0 DUP7 DUP2 MSTORE PUSH1 0x20 ADD SWAP1 DUP2 MSTORE PUSH1 0x20 ADD PUSH1 0x0 KECCAK256 PUSH1 0x1 DUP6 PUSH2 0xF95 SWAP2 SWAP1 PUSH2 0x290B JUMP JUMPDEST DUP2 SLOAD DUP2 LT PUSH2 0xFA6 JUMPI PUSH2 0xFA5 PUSH2 0x24A4 JUMP JUMPDEST JUMPDEST SWAP1 PUSH1 0x0 MSTORE PUSH1 0x20 PUSH1 0x0 KECCAK256 SWAP1 PUSH1 0x5 MUL ADD PUSH1 0x3 ADD PUSH1 0x0 DUP3 DUP3 SLOAD PUSH2 0xFC6 SWAP2 SWAP1 PUSH2 0x293F JUMP JUMPDEST SWAP3 POP POP DUP2 SWAP1 SSTORE POP PUSH1 0x1 DUP1 PUSH1 0x0 DUP7 DUP2 MSTORE PUSH1 0x20 ADD SWAP1 DUP2 MSTORE PUSH1 0x20 ADD PUSH1 0x0 KECCAK256 PUSH1 0x6 ADD PUSH1 0x0 DUP3 DUP3 SLOAD PUSH2 0xFF3 SWAP2 SWAP1 PUSH2 0x293F JUMP JUMPDEST SWAP3 POP POP DUP2 SWAP1 SSTORE POP PUSH1 0x1 PUSH1 0x5 PUSH1 0x0 DUP7 DUP2 MSTORE PUSH1 0x20 ADD SWAP1 DUP2 MSTORE PUSH1 0x20 ADD PUSH1 0x0 KECCAK256 PUSH1 0x0 ADD PUSH1 0x15 PUSH2 0x100 EXP DUP2 SLOAD DUP2 PUSH1 0xFF MUL NOT AND SWAP1 DUP4 ISZERO ISZERO MUL OR SWAP1 SSTORE POP PUSH1 0x1 PUSH1 0x4 PUSH1 0x0 DUP7 DUP2 MSTORE PUSH1 0x20 ADD SWAP1 DUP2 MSTORE PUSH1 0x20 ADD PUSH1 0x0 KECCAK256 PUSH1 0x0 CALLER PUSH20 0xFFFFFFFFFFFFFFFFFFFFFFFFFFFFFFFFFFFFFFFF AND PUSH20 0xFFFFFFFFFFFFFFFFFFFFFFFFFFFFFFFFFFFFFFFF AND DUP2 MSTORE PUSH1 0x20 ADD SWAP1 DUP2 MSTORE PUSH1 0x20 ADD PUSH1 0x0 KECCAK256 PUSH1 0x0 PUSH2 0x100 EXP DUP2 SLOAD DUP2 PUSH1 0xFF MUL NOT AND SWAP1 DUP4 ISZERO ISZERO MUL OR SWAP1 SSTORE POP JUMPDEST PUSH1 0x1 SWAP2 POP POP SWAP3 SWAP2 POP POP JUMP JUMPDEST PUSH1 0x2 PUSH1 0x0 DUP4 DUP2 MSTORE PUSH1 0x20 ADD SWAP1 DUP2 MSTORE PUSH1 0x20 ADD PUSH1 0x0 KECCAK256 DUP1 SLOAD SWAP1 POP PUSH1 0x1 DUP3 PUSH2 0x10C2 SWAP2 SWAP1 PUSH2 0x290B JUMP JUMPDEST LT PUSH2 0x1102 JUMPI PUSH1 0x40 MLOAD PUSH32 0x8C379A000000000000000000000000000000000000000000000000000000000 DUP2 MSTORE PUSH1 0x4 ADD PUSH2 0x10F9 SWAP1 PUSH2 0x29BF JUMP JUMPDEST PUSH1 0x40 MLOAD DUP1 SWAP2 SUB SWAP1 REVERT JUMPDEST TIMESTAMP PUSH1 0x1 PUSH1 0x0 DUP5 DUP2 MSTORE PUSH1 0x20 ADD SWAP1 DUP2 MSTORE PUSH1 0x20 ADD PUSH1 0x0 KECCAK256 PUSH1 0x4 ADD SLOAD GT PUSH2 0x115A JUMPI PUSH1 0x40 MLOAD PUSH32 0x8C379A000000000000000000000000000000000000000000000000000000000 DUP2 MSTORE PUSH1 0x4 ADD PUSH2 0x1151 SWAP1 PUSH2 0x2A51 JUMP JUMPDEST PUSH1 0x40 MLOAD DUP1 SWAP2 SUB SWAP1 REVERT JUMPDEST PUSH1 0x1 PUSH1 0x0 DUP4 DUP2 MSTORE PUSH1 0x20 ADD SWAP1 DUP2 MSTORE PUSH1 0x20 ADD PUSH1 0x0 KECCAK256 PUSH1 0x0 ADD PUSH1 0x0 SWAP1 SLOAD SWAP1 PUSH2 0x100 EXP SWAP1 DIV PUSH20 0xFFFFFFFFFFFFFFFFFFFFFFFFFFFFFFFFFFFFFFFF AND PUSH20 0xFFFFFFFFFFFFFFFFFFFFFFFFFFFFFFFFFFFFFFFF AND CALLER PUSH20 0xFFFFFFFFFFFFFFFFFFFFFFFFFFFFFFFFFFFFFFFF AND EQ PUSH2 0x11FE JUMPI PUSH1 0x40 MLOAD PUSH32 0x8C379A000000000000000000000000000000000000000000000000000000000 DUP2 MSTORE PUSH1 0x4 ADD PUSH2 0x11F5 SWAP1 PUSH2 0x2ABD JUMP JUMPDEST PUSH1 0x40 MLOAD DUP1 SWAP2 SUB SWAP1 REVERT JUMPDEST PUSH1 0x0 PUSH1 0x1 DUP3 PUSH2 0x120D SWAP2 SWAP1 PUSH2 0x290B JUMP JUMPDEST SWAP1 POP JUMPDEST PUSH1 0x2 PUSH1 0x0 DUP5 DUP2 MSTORE PUSH1 0x20 ADD SWAP1 DUP2 MSTORE PUSH1 0x20 ADD PUSH1 0x0 KECCAK256 DUP1 SLOAD SWAP1 POP DUP2 LT ISZERO PUSH2 0x12FE JUMPI PUSH1 0x2 PUSH1 0x0 DUP5 DUP2 MSTORE PUSH1 0x20 ADD SWAP1 DUP2 MSTORE PUSH1 0x20 ADD PUSH1 0x0 KECCAK256 PUSH1 0x1 DUP3 PUSH2 0x124E SWAP2 SWAP1 PUSH2 0x293F JUMP JUMPDEST DUP2 SLOAD DUP2 LT PUSH2 0x125F JUMPI PUSH2 0x125E PUSH2 0x24A4 JUMP JUMPDEST JUMPDEST SWAP1 PUSH1 0x0 MSTORE PUSH1 0x20 PUSH1 0x0 KECCAK256 SWAP1 PUSH1 0x5 MUL ADD PUSH1 0x2 PUSH1 0x0 DUP6 DUP2 MSTORE PUSH1 0x20 ADD SWAP1 DUP2 MSTORE PUSH1 0x20 ADD PUSH1 0x0 KECCAK256 DUP3 DUP2 SLOAD DUP2 LT PUSH2 0x1292 JUMPI PUSH2 0x1291 PUSH2 0x24A4 JUMP JUMPDEST JUMPDEST SWAP1 PUSH1 0x0 MSTORE PUSH1 0x20 PUSH1 0x0 KECCAK256 SWAP1 PUSH1 0x5 MUL ADD PUSH1 0x0 DUP3 ADD DUP2 PUSH1 0x0 ADD SWAP1 DUP2 PUSH2 0x12B4 SWAP2 SWAP1 PUSH2 0x2AF3 JUMP JUMPDEST POP PUSH1 0x1 DUP3 ADD SLOAD DUP2 PUSH1 0x1 ADD SSTORE PUSH1 0x2 DUP3 ADD DUP2 PUSH1 0x2 ADD SWAP1 DUP2 PUSH2 0x12D3 SWAP2 SWAP1 PUSH2 0x2AF3 JUMP JUMPDEST POP PUSH1 0x3 DUP3 ADD SLOAD DUP2 PUSH1 0x3 ADD SSTORE PUSH1 0x4 DUP3 ADD SLOAD DUP2 PUSH1 0x4 ADD SSTORE SWAP1 POP POP DUP1 DUP1 PUSH2 0x12F6 SWAP1 PUSH2 0x2615 JUMP JUMPDEST SWAP2 POP POP PUSH2 0x1210 JUMP JUMPDEST POP PUSH1 0x2 PUSH1 0x0 DUP4 DUP2 MSTORE PUSH1 0x20 ADD SWAP1 DUP2 MSTORE PUSH1 0x20 ADD PUSH1 0x0 KECCAK256 DUP1 SLOAD DUP1 PUSH2 0x1322 JUMPI PUSH2 0x1321 PUSH2 0x2BDB JUMP JUMPDEST JUMPDEST PUSH1 0x1 SWAP1 SUB DUP2 DUP2 SWAP1 PUSH1 0x0 MSTORE PUSH1 0x20 PUSH1 0x0 KECCAK256 SWAP1 PUSH1 0x5 MUL ADD PUSH1 0x0 DUP1 DUP3 ADD PUSH1 0x0 PUSH2 0x1347 SWAP2 SWAP1 PUSH2 0x19CC JUMP JUMPDEST PUSH1 0x1 DUP3 ADD PUSH1 0x0 SWAP1 SSTORE PUSH1 0x2 DUP3 ADD PUSH1 0x0 PUSH2 0x135F SWAP2 SWAP1 PUSH2 0x19CC JUMP JUMPDEST PUSH1 0x3 DUP3 ADD PUSH1 0x0 SWAP1 SSTORE PUSH1 0x4 DUP3 ADD PUSH1 0x0 SWAP1 SSTORE POP POP SWAP1 SSTORE POP POP JUMP JUMPDEST PUSH1 0x0 PUSH20 0xFFFFFFFFFFFFFFFFFFFFFFFFFFFFFFFFFFFFFFFF AND PUSH1 0x1 PUSH1 0x0 DUP5 DUP2 MSTORE PUSH1 0x20 ADD SWAP1 DUP2 MSTORE PUSH1 0x20 ADD PUSH1 0x0 KECCAK256 PUSH1 0x0 ADD PUSH1 0x0 SWAP1 SLOAD SWAP1 PUSH2 0x100 EXP SWAP1 DIV PUSH20 0xFFFFFFFFFFFFFFFFFFFFFFFFFFFFFFFFFFFFFFFF AND PUSH20 0xFFFFFFFFFFFFFFFFFFFFFFFFFFFFFFFFFFFFFFFF AND SUB PUSH2 0x141C JUMPI PUSH1 0x40 MLOAD PUSH32 0x8C379A000000000000000000000000000000000000000000000000000000000 DUP2 MSTORE PUSH1 0x4 ADD PUSH2 0x1413 SWAP1 PUSH2 0x2715 JUMP JUMPDEST PUSH1 0x40 MLOAD DUP1 SWAP2 SUB SWAP1 REVERT JUMPDEST PUSH1 0x0 PUSH20 0xFFFFFFFFFFFFFFFFFFFFFFFFFFFFFFFFFFFFFFFF AND DUP2 PUSH20 0xFFFFFFFFFFFFFFFFFFFFFFFFFFFFFFFFFFFFFFFF AND SUB PUSH2 0x148B JUMPI PUSH1 0x40 MLOAD PUSH32 0x8C379A000000000000000000000000000000000000000000000000000000000 DUP2 MSTORE PUSH1 0x4 ADD PUSH2 0x1482 SWAP1 PUSH2 0x2C56 JUMP JUMPDEST PUSH1 0x40 MLOAD DUP1 SWAP2 SUB SWAP1 REVERT JUMPDEST PUSH1 0x1 PUSH1 0x0 DUP4 DUP2 MSTORE PUSH1 0x20 ADD SWAP1 DUP2 MSTORE PUSH1 0x20 ADD PUSH1 0x0 KECCAK256 PUSH1 0x0 ADD PUSH1 0x0 SWAP1 SLOAD SWAP1 PUSH2 0x100 EXP SWAP1 DIV PUSH20 0xFFFFFFFFFFFFFFFFFFFFFFFFFFFFFFFFFFFFFFFF AND PUSH20 0xFFFFFFFFFFFFFFFFFFFFFFFFFFFFFFFFFFFFFFFF AND CALLER PUSH20 0xFFFFFFFFFFFFFFFFFFFFFFFFFFFFFFFFFFFFFFFF AND EQ PUSH2 0x152F JUMPI PUSH1 0x40 MLOAD PUSH32 0x8C379A000000000000000000000000000000000000000000000000000000000 DUP2 MSTORE PUSH1 0x4 ADD PUSH2 0x1526 SWAP1 PUSH2 0x2CE8 JUMP JUMPDEST PUSH1 0x40 MLOAD DUP1 SWAP2 SUB SWAP1 REVERT JUMPDEST PUSH1 0x1 ISZERO ISZERO PUSH1 0x1 PUSH1 0x0 DUP5 DUP2 MSTORE PUSH1 0x20 ADD SWAP1 DUP2 MSTORE PUSH1 0x20 ADD PUSH1 0x0 KECCAK256 PUSH1 0x2 ADD PUSH1 0x0 SWAP1 SLOAD SWAP1 PUSH2 0x100 EXP SWAP1 DIV PUSH1 0xFF AND ISZERO ISZERO EQ PUSH2 0x1599 JUMPI PUSH1 0x40 MLOAD PUSH32 0x8C379A000000000000000000000000000000000000000000000000000000000 DUP2 MSTORE PUSH1 0x4 ADD PUSH2 0x1590 SWAP1 PUSH2 0x2D54 JUMP JUMPDEST PUSH1 0x40 MLOAD DUP1 SWAP2 SUB SWAP1 REVERT JUMPDEST PUSH1 0x1 ISZERO ISZERO PUSH1 0x1 PUSH1 0x0 DUP5 DUP2 MSTORE PUSH1 0x20 ADD SWAP1 DUP2 MSTORE PUSH1 0x20 ADD PUSH1 0x0 KECCAK256 PUSH1 0x2 ADD PUSH1 0x0 SWAP1 SLOAD SWAP1 PUSH2 0x100 EXP SWAP1 DIV PUSH1 0xFF AND ISZERO ISZERO SUB PUSH2 0x1661 JUMPI PUSH1 0x1 PUSH1 0x3 PUSH1 0x0 DUP5 DUP2 MSTORE PUSH1 0x20 ADD SWAP1 DUP2 MSTORE PUSH1 0x20 ADD PUSH1 0x0 KECCAK256 PUSH1 0x0 DUP4 PUSH20 0xFFFFFFFFFFFFFFFFFFFFFFFFFFFFFFFFFFFFFFFF AND PUSH20 0xFFFFFFFFFFFFFFFFFFFFFFFFFFFFFFFFFFFFFFFF AND DUP2 MSTORE PUSH1 0x20 ADD SWAP1 DUP2 MSTORE PUSH1 0x20 ADD PUSH1 0x0 KECCAK256 PUSH1 0x0 PUSH2 0x100 EXP DUP2 SLOAD DUP2 PUSH1 0xFF MUL NOT AND SWAP1 DUP4 ISZERO ISZERO MUL OR SWAP1 SSTORE POP PUSH1 0x1 PUSH1 0x5 PUSH1 0x0 DUP5 DUP2 MSTORE PUSH1 0x20 ADD SWAP1 DUP2 MSTORE PUSH1 0x20 ADD PUSH1 0x0 KECCAK256 PUSH1 0x0 ADD PUSH1 0x14 PUSH2 0x100 EXP DUP2 SLOAD DUP2 PUSH1 0xFF MUL NOT AND SWAP1 DUP4 ISZERO ISZERO MUL OR SWAP1 SSTORE POP JUMPDEST POP POP JUMP JUMPDEST PUSH1 0x6 DUP2 DUP2 SLOAD DUP2 LT PUSH2 0x1675 JUMPI PUSH1 0x0 DUP1 REVERT JUMPDEST SWAP1 PUSH1 0x0 MSTORE PUSH1 0x20 PUSH1 0x0 KECCAK256 ADD PUSH1 0x0 SWAP2 POP SWAP1 POP DUP1 PUSH1 0x0 ADD PUSH1 0x0 SWAP1 SLOAD SWAP1 PUSH2 0x100 EXP SWAP1 DIV PUSH20 0xFFFFFFFFFFFFFFFFFFFFFFFFFFFFFFFFFFFFFFFF AND SWAP1 DUP1 PUSH1 0x0 ADD PUSH1 0x14 SWAP1 SLOAD SWAP1 PUSH2 0x100 EXP SWAP1 DIV PUSH1 0xFF AND SWAP1 DUP1 PUSH1 0x0 ADD PUSH1 0x15 SWAP1 SLOAD SWAP1 PUSH2 0x100 EXP SWAP1 DIV PUSH1 0xFF AND SWAP1 POP DUP4 JUMP JUMPDEST PUSH1 0x0 DUP1 PUSH1 0x2 PUSH1 0x0 DUP5 DUP2 MSTORE PUSH1 0x20 ADD SWAP1 DUP2 MSTORE PUSH1 0x20 ADD PUSH1 0x0 KECCAK256 DUP1 SLOAD SWAP1 POP SWAP1 POP DUP1 SWAP2 POP POP SWAP2 SWAP1 POP JUMP JUMPDEST PUSH1 0x0 PUSH1 0x1 DUP4 GT PUSH2 0x173F JUMPI PUSH1 0x40 MLOAD PUSH32 0x8C379A000000000000000000000000000000000000000000000000000000000 DUP2 MSTORE PUSH1 0x4 ADD PUSH2 0x1736 SWAP1 PUSH2 0x2DE6 JUMP JUMPDEST PUSH1 0x40 MLOAD DUP1 SWAP2 SUB SWAP1 REVERT JUMPDEST TIMESTAMP DUP3 GT PUSH2 0x1781 JUMPI PUSH1 0x40 MLOAD PUSH32 0x8C379A000000000000000000000000000000000000000000000000000000000 DUP2 MSTORE PUSH1 0x4 ADD PUSH2 0x1778 SWAP1 PUSH2 0x2E52 JUMP JUMPDEST PUSH1 0x40 MLOAD DUP1 SWAP2 SUB SWAP1 REVERT JUMPDEST PUSH1 0x0 PUSH1 0x40 MLOAD DUP1 PUSH2 0x120 ADD PUSH1 0x40 MSTORE DUP1 CALLER PUSH20 0xFFFFFFFFFFFFFFFFFFFFFFFFFFFFFFFFFFFFFFFF AND DUP2 MSTORE PUSH1 0x20 ADD DUP8 DUP2 MSTORE PUSH1 0x20 ADD DUP7 ISZERO ISZERO DUP2 MSTORE PUSH1 0x20 ADD DUP6 DUP2 MSTORE PUSH1 0x20 ADD DUP5 DUP2 MSTORE PUSH1 0x20 ADD DUP6 DUP6 PUSH2 0x17D1 SWAP2 SWAP1 PUSH2 0x293F JUMP JUMPDEST DUP2 MSTORE PUSH1 0x20 ADD PUSH1 0x0 DUP2 MSTORE PUSH1 0x20 ADD PUSH1 0x40 MLOAD DUP1 PUSH1 0x20 ADD PUSH1 0x40 MSTORE DUP1 PUSH1 0x0 DUP2 MSTORE POP DUP2 MSTORE PUSH1 0x20 ADD PUSH1 0x40 MLOAD DUP1 PUSH1 0x20 ADD PUSH1 0x40 MSTORE DUP1 PUSH1 0x0 DUP2 MSTORE POP DUP2 MSTORE POP SWAP1 POP PUSH1 0x1 PUSH1 0x0 DUP1 DUP3 DUP3 SLOAD PUSH2 0x1819 SWAP2 SWAP1 PUSH2 0x293F JUMP JUMPDEST SWAP3 POP POP DUP2 SWAP1 SSTORE POP DUP1 PUSH1 0x1 PUSH1 0x0 DUP1 SLOAD DUP2 MSTORE PUSH1 0x20 ADD SWAP1 DUP2 MSTORE PUSH1 0x20 ADD PUSH1 0x0 KECCAK256 PUSH1 0x0 DUP3 ADD MLOAD DUP2 PUSH1 0x0 ADD PUSH1 0x0 PUSH2 0x100 EXP DUP2 SLOAD DUP2 PUSH20 0xFFFFFFFFFFFFFFFFFFFFFFFFFFFFFFFFFFFFFFFF MUL NOT AND SWAP1 DUP4 PUSH20 0xFFFFFFFFFFFFFFFFFFFFFFFFFFFFFFFFFFFFFFFF AND MUL OR SWAP1 SSTORE POP PUSH1 0x20 DUP3 ADD MLOAD DUP2 PUSH1 0x1 ADD SWAP1 DUP2 PUSH2 0x1891 SWAP2 SWAP1 PUSH2 0x22FA JUMP JUMPDEST POP PUSH1 0x40 DUP3 ADD MLOAD DUP2 PUSH1 0x2 ADD PUSH1 0x0 PUSH2 0x100 EXP DUP2 SLOAD DUP2 PUSH1 0xFF MUL NOT AND SWAP1 DUP4 ISZERO ISZERO MUL OR SWAP1 SSTORE POP PUSH1 0x60 DUP3 ADD MLOAD DUP2 PUSH1 0x3 ADD SSTORE PUSH1 0x80 DUP3 ADD MLOAD DUP2 PUSH1 0x4 ADD SSTORE PUSH1 0xA0 DUP3 ADD MLOAD DUP2 PUSH1 0x5 ADD SSTORE PUSH1 0xC0 DUP3 ADD MLOAD DUP2 PUSH1 0x6 ADD SSTORE PUSH1 0xE0 DUP3 ADD MLOAD DUP2 PUSH1 0x7 ADD SWAP1 DUP2 PUSH2 0x18EF SWAP2 SWAP1 PUSH2 0x22FA JUMP JUMPDEST POP PUSH2 0x100 DUP3 ADD MLOAD DUP2 PUSH1 0x8 ADD SWAP1 DUP2 PUSH2 0x1906 SWAP2 SWAP1 PUSH2 0x22FA JUMP JUMPDEST POP SWAP1 POP POP CALLER PUSH20 0xFFFFFFFFFFFFFFFFFFFFFFFFFFFFFFFFFFFFFFFF AND PUSH32 0x499E15DA008E9096F6BF10DA889899C6D4910068BD83A00171C190C151EE24D2 DUP8 DUP8 DUP8 DUP8 DUP10 DUP10 PUSH2 0x1952 SWAP2 SWAP1 PUSH2 0x293F JUMP JUMPDEST PUSH1 0x0 SLOAD PUSH1 0x40 MLOAD PUSH2 0x1967 SWAP7 SWAP6 SWAP5 SWAP4 SWAP3 SWAP2 SWAP1 PUSH2 0x2E72 JUMP JUMPDEST PUSH1 0x40 MLOAD DUP1 SWAP2 SUB SWAP1 LOG2 PUSH1 0x0 SLOAD SWAP2 POP POP SWAP5 SWAP4 POP POP POP POP JUMP JUMPDEST PUSH1 0x0 DUP2 PUSH1 0x2 PUSH1 0x0 DUP6 DUP2 MSTORE PUSH1 0x20 ADD SWAP1 DUP2 MSTORE PUSH1 0x20 ADD PUSH1 0x0 KECCAK256 PUSH1 0x1 DUP5 PUSH2 0x19A0 SWAP2 SWAP1 PUSH2 0x290B JUMP JUMPDEST DUP2 SLOAD DUP2 LT PUSH2 0x19B1 JUMPI PUSH2 0x19B0 PUSH2 0x24A4 JUMP JUMPDEST JUMPDEST SWAP1 PUSH1 0x0 MSTORE PUSH1 0x20 PUSH1 0x0 KECCAK256 SWAP1 PUSH1 0x5 MUL ADD PUSH1 0x1 ADD SLOAD EQ SWAP1 POP SWAP3 SWAP2 POP POP JUMP JUMPDEST POP DUP1 SLOAD PUSH2 0x19D8 SWAP1 PUSH2 0x208B JUMP JUMPDEST PUSH1 0x0 DUP3 SSTORE DUP1 PUSH1 0x1F LT PUSH2 0x19EA JUMPI POP PUSH2 0x1A09 JUMP JUMPDEST PUSH1 0x1F ADD PUSH1 0x20 SWAP1 DIV SWAP1 PUSH1 0x0 MSTORE PUSH1 0x20 PUSH1 0x0 KECCAK256 SWAP1 DUP2 ADD SWAP1 PUSH2 0x1A08 SWAP2 SWAP1 PUSH2 0x1A0C JUMP JUMPDEST JUMPDEST POP JUMP JUMPDEST JUMPDEST DUP1 DUP3 GT ISZERO PUSH2 0x1A25 JUMPI PUSH1 0x0 DUP2 PUSH1 0x0 SWAP1 SSTORE POP PUSH1 0x1 ADD PUSH2 0x1A0D JUMP JUMPDEST POP SWAP1 JUMP JUMPDEST PUSH1 0x0 PUSH1 0x40 MLOAD SWAP1 POP SWAP1 JUMP JUMPDEST PUSH1 0x0 DUP1 REVERT JUMPDEST PUSH1 0x0 DUP1 REVERT JUMPDEST PUSH1 0x0 DUP2 SWAP1 POP SWAP2 SWAP1 POP JUMP JUMPDEST PUSH2 0x1A50 DUP2 PUSH2 0x1A3D JUMP JUMPDEST DUP2 EQ PUSH2 0x1A5B JUMPI PUSH1 0x0 DUP1 REVERT JUMPDEST POP JUMP JUMPDEST PUSH1 0x0 DUP2 CALLDATALOAD SWAP1 POP PUSH2 0x1A6D DUP2 PUSH2 0x1A47 JUMP JUMPDEST SWAP3 SWAP2 POP POP JUMP JUMPDEST PUSH1 0x0 PUSH1 0x20 DUP3 DUP5 SUB SLT ISZERO PUSH2 0x1A89 JUMPI PUSH2 0x1A88 PUSH2 0x1A33 JUMP JUMPDEST JUMPDEST PUSH1 0x0 PUSH2 0x1A97 DUP5 DUP3 DUP6 ADD PUSH2 0x1A5E JUMP JUMPDEST SWAP2 POP POP SWAP3 SWAP2 POP POP JUMP JUMPDEST PUSH1 0x0 PUSH20 0xFFFFFFFFFFFFFFFFFFFFFFFFFFFFFFFFFFFFFFFF DUP3 AND SWAP1 POP SWAP2 SWAP1 POP JUMP JUMPDEST PUSH1 0x0 PUSH2 0x1ACB DUP3 PUSH2 0x1AA0 JUMP JUMPDEST SWAP1 POP SWAP2 SWAP1 POP JUMP JUMPDEST PUSH2 0x1ADB DUP2 PUSH2 0x1AC0 JUMP JUMPDEST DUP3 MSTORE POP POP JUMP JUMPDEST PUSH1 0x0 DUP2 MLOAD SWAP1 POP SWAP2 SWAP1 POP JUMP JUMPDEST PUSH1 0x0 DUP3 DUP3 MSTORE PUSH1 0x20 DUP3 ADD SWAP1 POP SWAP3 SWAP2 POP POP JUMP JUMPDEST PUSH1 0x0 JUMPDEST DUP4 DUP2 LT ISZERO PUSH2 0x1B1B JUMPI DUP1 DUP3 ADD MLOAD DUP2 DUP5 ADD MSTORE PUSH1 0x20 DUP2 ADD SWAP1 POP PUSH2 0x1B00 JUMP JUMPDEST PUSH1 0x0 DUP5 DUP5 ADD MSTORE POP POP POP POP JUMP JUMPDEST PUSH1 0x0 PUSH1 0x1F NOT PUSH1 0x1F DUP4 ADD AND SWAP1 POP SWAP2 SWAP1 POP JUMP JUMPDEST PUSH1 0x0 PUSH2 0x1B43 DUP3 PUSH2 0x1AE1 JUMP JUMPDEST PUSH2 0x1B4D DUP2 DUP6 PUSH2 0x1AEC JUMP JUMPDEST SWAP4 POP PUSH2 0x1B5D DUP2 DUP6 PUSH1 0x20 DUP7 ADD PUSH2 0x1AFD JUMP JUMPDEST PUSH2 0x1B66 DUP2 PUSH2 0x1B27 JUMP JUMPDEST DUP5 ADD SWAP2 POP POP SWAP3 SWAP2 POP POP JUMP JUMPDEST PUSH1 0x0 DUP2 ISZERO ISZERO SWAP1 POP SWAP2 SWAP1 POP JUMP JUMPDEST PUSH2 0x1B86 DUP2 PUSH2 0x1B71 JUMP JUMPDEST DUP3 MSTORE POP POP JUMP JUMPDEST PUSH2 0x1B95 DUP2 PUSH2 0x1A3D JUMP JUMPDEST DUP3 MSTORE POP POP JUMP JUMPDEST PUSH1 0x0 PUSH2 0x120 DUP3 ADD SWAP1 POP PUSH2 0x1BB1 PUSH1 0x0 DUP4 ADD DUP13 PUSH2 0x1AD2 JUMP JUMPDEST DUP2 DUP2 SUB PUSH1 0x20 DUP4 ADD MSTORE PUSH2 0x1BC3 DUP2 DUP12 PUSH2 0x1B38 JUMP JUMPDEST SWAP1 POP PUSH2 0x1BD2 PUSH1 0x40 DUP4 ADD DUP11 PUSH2 0x1B7D JUMP JUMPDEST PUSH2 0x1BDF PUSH1 0x60 DUP4 ADD DUP10 PUSH2 0x1B8C JUMP JUMPDEST PUSH2 0x1BEC PUSH1 0x80 DUP4 ADD DUP9 PUSH2 0x1B8C JUMP JUMPDEST PUSH2 0x1BF9 PUSH1 0xA0 DUP4 ADD DUP8 PUSH2 0x1B8C JUMP JUMPDEST PUSH2 0x1C06 PUSH1 0xC0 DUP4 ADD DUP7 PUSH2 0x1B8C JUMP JUMPDEST DUP2 DUP2 SUB PUSH1 0xE0 DUP4 ADD MSTORE PUSH2 0x1C18 DUP2 DUP6 PUSH2 0x1B38 JUMP JUMPDEST SWAP1 POP DUP2 DUP2 SUB PUSH2 0x100 DUP4 ADD MSTORE PUSH2 0x1C2D DUP2 DUP5 PUSH2 0x1B38 JUMP JUMPDEST SWAP1 POP SWAP11 SWAP10 POP POP POP POP POP POP POP POP POP POP JUMP JUMPDEST PUSH2 0x1C46 DUP2 PUSH2 0x1AC0 JUMP JUMPDEST DUP2 EQ PUSH2 0x1C51 JUMPI PUSH1 0x0 DUP1 REVERT JUMPDEST POP JUMP JUMPDEST PUSH1 0x0 DUP2 CALLDATALOAD SWAP1 POP PUSH2 0x1C63 DUP2 PUSH2 0x1C3D JUMP JUMPDEST SWAP3 SWAP2 POP POP JUMP JUMPDEST PUSH1 0x0 DUP1 PUSH1 0x40 DUP4 DUP6 SUB SLT ISZERO PUSH2 0x1C80 JUMPI PUSH2 0x1C7F PUSH2 0x1A33 JUMP JUMPDEST JUMPDEST PUSH1 0x0 PUSH2 0x1C8E DUP6 DUP3 DUP7 ADD PUSH2 0x1A5E JUMP JUMPDEST SWAP3 POP POP PUSH1 0x20 PUSH2 0x1C9F DUP6 DUP3 DUP7 ADD PUSH2 0x1C54 JUMP JUMPDEST SWAP2 POP POP SWAP3 POP SWAP3 SWAP1 POP JUMP JUMPDEST PUSH1 0x0 PUSH1 0x20 DUP3 ADD SWAP1 POP PUSH2 0x1CBE PUSH1 0x0 DUP4 ADD DUP5 PUSH2 0x1B7D JUMP JUMPDEST SWAP3 SWAP2 POP POP JUMP JUMPDEST PUSH1 0x0 DUP1 REVERT JUMPDEST PUSH1 0x0 DUP1 REVERT JUMPDEST PUSH32 0x4E487B7100000000000000000000000000000000000000000000000000000000 PUSH1 0x0 MSTORE PUSH1 0x41 PUSH1 0x4 MSTORE PUSH1 0x24 PUSH1 0x0 REVERT JUMPDEST PUSH2 0x1D06 DUP3 PUSH2 0x1B27 JUMP JUMPDEST DUP2 ADD DUP2 DUP2 LT PUSH8 0xFFFFFFFFFFFFFFFF DUP3 GT OR ISZERO PUSH2 0x1D25 JUMPI PUSH2 0x1D24 PUSH2 0x1CCE JUMP JUMPDEST JUMPDEST DUP1 PUSH1 0x40 MSTORE POP POP POP JUMP JUMPDEST PUSH1 0x0 PUSH2 0x1D38 PUSH2 0x1A29 JUMP JUMPDEST SWAP1 POP PUSH2 0x1D44 DUP3 DUP3 PUSH2 0x1CFD JUMP JUMPDEST SWAP2 SWAP1 POP JUMP JUMPDEST PUSH1 0x0 PUSH8 0xFFFFFFFFFFFFFFFF DUP3 GT ISZERO PUSH2 0x1D64 JUMPI PUSH2 0x1D63 PUSH2 0x1CCE JUMP JUMPDEST JUMPDEST PUSH2 0x1D6D DUP3 PUSH2 0x1B27 JUMP JUMPDEST SWAP1 POP PUSH1 0x20 DUP2 ADD SWAP1 POP SWAP2 SWAP1 POP JUMP JUMPDEST DUP3 DUP2 DUP4 CALLDATACOPY PUSH1 0x0 DUP4 DUP4 ADD MSTORE POP POP POP JUMP JUMPDEST PUSH1 0x0 PUSH2 0x1D9C PUSH2 0x1D97 DUP5 PUSH2 0x1D49 JUMP JUMPDEST PUSH2 0x1D2E JUMP JUMPDEST SWAP1 POP DUP3 DUP2 MSTORE PUSH1 0x20 DUP2 ADD DUP5 DUP5 DUP5 ADD GT ISZERO PUSH2 0x1DB8 JUMPI PUSH2 0x1DB7 PUSH2 0x1CC9 JUMP JUMPDEST JUMPDEST PUSH2 0x1DC3 DUP5 DUP3 DUP6 PUSH2 0x1D7A JUMP JUMPDEST POP SWAP4 SWAP3 POP POP POP JUMP JUMPDEST PUSH1 0x0 DUP3 PUSH1 0x1F DUP4 ADD SLT PUSH2 0x1DE0 JUMPI PUSH2 0x1DDF PUSH2 0x1CC4 JUMP JUMPDEST JUMPDEST DUP2 CALLDATALOAD PUSH2 0x1DF0 DUP5 DUP3 PUSH1 0x20 DUP7 ADD PUSH2 0x1D89 JUMP JUMPDEST SWAP2 POP POP SWAP3 SWAP2 POP POP JUMP JUMPDEST PUSH1 0x0 DUP1 PUSH1 0x0 DUP1 PUSH1 0x80 DUP6 DUP8 SUB SLT ISZERO PUSH2 0x1E13 JUMPI PUSH2 0x1E12 PUSH2 0x1A33 JUMP JUMPDEST JUMPDEST PUSH1 0x0 PUSH2 0x1E21 DUP8 DUP3 DUP9 ADD PUSH2 0x1A5E JUMP JUMPDEST SWAP5 POP POP PUSH1 0x20 DUP6 ADD CALLDATALOAD PUSH8 0xFFFFFFFFFFFFFFFF DUP2 GT ISZERO PUSH2 0x1E42 JUMPI PUSH2 0x1E41 PUSH2 0x1A38 JUMP JUMPDEST JUMPDEST PUSH2 0x1E4E DUP8 DUP3 DUP9 ADD PUSH2 0x1DCB JUMP JUMPDEST SWAP4 POP POP PUSH1 0x40 DUP6 ADD CALLDATALOAD PUSH8 0xFFFFFFFFFFFFFFFF DUP2 GT ISZERO PUSH2 0x1E6F JUMPI PUSH2 0x1E6E PUSH2 0x1A38 JUMP JUMPDEST JUMPDEST PUSH2 0x1E7B DUP8 DUP3 DUP9 ADD PUSH2 0x1DCB JUMP JUMPDEST SWAP3 POP POP PUSH1 0x60 PUSH2 0x1E8C DUP8 DUP3 DUP9 ADD PUSH2 0x1A5E JUMP JUMPDEST SWAP2 POP POP SWAP3 SWAP6 SWAP2 SWAP5 POP SWAP3 POP JUMP JUMPDEST PUSH1 0x0 PUSH1 0x20 DUP3 ADD SWAP1 POP PUSH2 0x1EAD PUSH1 0x0 DUP4 ADD DUP5 PUSH2 0x1B8C JUMP JUMPDEST SWAP3 SWAP2 POP POP JUMP JUMPDEST PUSH1 0x0 PUSH1 0x20 DUP3 ADD SWAP1 POP DUP2 DUP2 SUB PUSH1 0x0 DUP4 ADD MSTORE PUSH2 0x1ECD DUP2 DUP5 PUSH2 0x1B38 JUMP JUMPDEST SWAP1 POP SWAP3 SWAP2 POP POP JUMP JUMPDEST PUSH1 0x0 DUP1 PUSH1 0x40 DUP4 DUP6 SUB SLT ISZERO PUSH2 0x1EEC JUMPI PUSH2 0x1EEB PUSH2 0x1A33 JUMP JUMPDEST JUMPDEST PUSH1 0x0 PUSH2 0x1EFA DUP6 DUP3 DUP7 ADD PUSH2 0x1A5E JUMP JUMPDEST SWAP3 POP POP PUSH1 0x20 PUSH2 0x1F0B DUP6 DUP3 DUP7 ADD PUSH2 0x1A5E JUMP JUMPDEST SWAP2 POP POP SWAP3 POP SWAP3 SWAP1 POP JUMP JUMPDEST PUSH1 0x0 PUSH1 0xA0 DUP3 ADD SWAP1 POP DUP2 DUP2 SUB PUSH1 0x0 DUP4 ADD MSTORE PUSH2 0x1F2F DUP2 DUP9 PUSH2 0x1B38 JUMP JUMPDEST SWAP1 POP PUSH2 0x1F3E PUSH1 0x20 DUP4 ADD DUP8 PUSH2 0x1B8C JUMP JUMPDEST DUP2 DUP2 SUB PUSH1 0x40 DUP4 ADD MSTORE PUSH2 0x1F50 DUP2 DUP7 PUSH2 0x1B38 JUMP JUMPDEST SWAP1 POP PUSH2 0x1F5F PUSH1 0x60 DUP4 ADD DUP6 PUSH2 0x1B8C JUMP JUMPDEST PUSH2 0x1F6C PUSH1 0x80 DUP4 ADD DUP5 PUSH2 0x1B8C JUMP JUMPDEST SWAP7 SWAP6 POP POP POP POP POP POP JUMP JUMPDEST PUSH1 0x0 PUSH1 0x60 DUP3 ADD SWAP1 POP PUSH2 0x1F8B PUSH1 0x0 DUP4 ADD DUP7 PUSH2 0x1AD2 JUMP JUMPDEST PUSH2 0x1F98 PUSH1 0x20 DUP4 ADD DUP6 PUSH2 0x1B7D JUMP JUMPDEST PUSH2 0x1FA5 PUSH1 0x40 DUP4 ADD DUP5 PUSH2 0x1B7D JUMP JUMPDEST SWAP5 SWAP4 POP POP POP POP JUMP JUMPDEST PUSH2 0x1FB6 DUP2 PUSH2 0x1B71 JUMP JUMPDEST DUP2 EQ PUSH2 0x1FC1 JUMPI PUSH1 0x0 DUP1 REVERT JUMPDEST POP JUMP JUMPDEST PUSH1 0x0 DUP2 CALLDATALOAD SWAP1 POP PUSH2 0x1FD3 DUP2 PUSH2 0x1FAD JUMP JUMPDEST SWAP3 SWAP2 POP POP JUMP JUMPDEST PUSH1 0x0 DUP1 PUSH1 0x0 DUP1 PUSH1 0x80 DUP6 DUP8 SUB SLT ISZERO PUSH2 0x1FF3 JUMPI PUSH2 0x1FF2 PUSH2 0x1A33 JUMP JUMPDEST JUMPDEST PUSH1 0x0 DUP6 ADD CALLDATALOAD PUSH8 0xFFFFFFFFFFFFFFFF DUP2 GT ISZERO PUSH2 0x2011 JUMPI PUSH2 0x2010 PUSH2 0x1A38 JUMP JUMPDEST JUMPDEST PUSH2 0x201D DUP8 DUP3 DUP9 ADD PUSH2 0x1DCB JUMP JUMPDEST SWAP5 POP POP PUSH1 0x20 PUSH2 0x202E DUP8 DUP3 DUP9 ADD PUSH2 0x1FC4 JUMP JUMPDEST SWAP4 POP POP PUSH1 0x40 PUSH2 0x203F DUP8 DUP3 DUP9 ADD PUSH2 0x1A5E JUMP JUMPDEST SWAP3 POP POP PUSH1 0x60 PUSH2 0x2050 DUP8 DUP3 DUP9 ADD PUSH2 0x1A5E JUMP JUMPDEST SWAP2 POP POP SWAP3 SWAP6 SWAP2 SWAP5 POP SWAP3 POP JUMP JUMPDEST PUSH32 0x4E487B7100000000000000000000000000000000000000000000000000000000 PUSH1 0x0 MSTORE PUSH1 0x22 PUSH1 0x4 MSTORE PUSH1 0x24 PUSH1 0x0 REVERT JUMPDEST PUSH1 0x0 PUSH1 0x2 DUP3 DIV SWAP1 POP PUSH1 0x1 DUP3 AND DUP1 PUSH2 0x20A3 JUMPI PUSH1 0x7F DUP3 AND SWAP2 POP JUMPDEST PUSH1 0x20 DUP3 LT DUP2 SUB PUSH2 0x20B6 JUMPI PUSH2 0x20B5 PUSH2 0x205C JUMP JUMPDEST JUMPDEST POP SWAP2 SWAP1 POP JUMP JUMPDEST PUSH32 0x4F6E6C79204368616972706572736F6E206F662043616D706169676E2063616E PUSH1 0x0 DUP3 ADD MSTORE PUSH32 0x2063616C6C20746869732066756E6374696F6E00000000000000000000000000 PUSH1 0x20 DUP3 ADD MSTORE POP JUMP JUMPDEST PUSH1 0x0 PUSH2 0x2118 PUSH1 0x33 DUP4 PUSH2 0x1AEC JUMP JUMPDEST SWAP2 POP PUSH2 0x2123 DUP3 PUSH2 0x20BC JUMP JUMPDEST PUSH1 0x40 DUP3 ADD SWAP1 POP SWAP2 SWAP1 POP JUMP JUMPDEST PUSH1 0x0 PUSH1 0x20 DUP3 ADD SWAP1 POP DUP2 DUP2 SUB PUSH1 0x0 DUP4 ADD MSTORE PUSH2 0x2147 DUP2 PUSH2 0x210B JUMP JUMPDEST SWAP1 POP SWAP2 SWAP1 POP JUMP JUMPDEST PUSH1 0x0 DUP2 SWAP1 POP DUP2 PUSH1 0x0 MSTORE PUSH1 0x20 PUSH1 0x0 KECCAK256 SWAP1 POP SWAP2 SWAP1 POP JUMP JUMPDEST PUSH1 0x0 PUSH1 0x20 PUSH1 0x1F DUP4 ADD DIV SWAP1 POP SWAP2 SWAP1 POP JUMP JUMPDEST PUSH1 0x0 DUP3 DUP3 SHL SWAP1 POP SWAP3 SWAP2 POP POP JUMP JUMPDEST PUSH1 0x0 PUSH1 0x8 DUP4 MUL PUSH2 0x21B0 PUSH32 0xFFFFFFFFFFFFFFFFFFFFFFFFFFFFFFFFFFFFFFFFFFFFFFFFFFFFFFFFFFFFFFFF DUP3 PUSH2 0x2173 JUMP JUMPDEST PUSH2 0x21BA DUP7 DUP4 PUSH2 0x2173 JUMP JUMPDEST SWAP6 POP DUP1 NOT DUP5 AND SWAP4 POP DUP1 DUP7 AND DUP5 OR SWAP3 POP POP POP SWAP4 SWAP3 POP POP POP JUMP JUMPDEST PUSH1 0x0 DUP2 SWAP1 POP SWAP2 SWAP1 POP JUMP JUMPDEST PUSH1 0x0 PUSH2 0x21F7 PUSH2 0x21F2 PUSH2 0x21ED DUP5 PUSH2 0x1A3D JUMP JUMPDEST PUSH2 0x21D2 JUMP JUMPDEST PUSH2 0x1A3D JUMP JUMPDEST SWAP1 POP SWAP2 SWAP1 POP JUMP JUMPDEST PUSH1 0x0 DUP2 SWAP1 POP SWAP2 SWAP1 POP JUMP JUMPDEST PUSH2 0x2211 DUP4 PUSH2 0x21DC JUMP JUMPDEST PUSH2 0x2225 PUSH2 0x221D DUP3 PUSH2 0x21FE JUMP JUMPDEST DUP5 DUP5 SLOAD PUSH2 0x2180 JUMP JUMPDEST DUP3 SSTORE POP POP POP POP JUMP JUMPDEST PUSH1 0x0 SWAP1 JUMP JUMPDEST PUSH2 0x223A PUSH2 0x222D JUMP JUMPDEST PUSH2 0x2245 DUP2 DUP5 DUP5 PUSH2 0x2208 JUMP JUMPDEST POP POP POP JUMP JUMPDEST JUMPDEST DUP2 DUP2 LT ISZERO PUSH2 0x2269 JUMPI PUSH2 0x225E PUSH1 0x0 DUP3 PUSH2 0x2232 JUMP JUMPDEST PUSH1 0x1 DUP2 ADD SWAP1 POP PUSH2 0x224B JUMP JUMPDEST POP POP JUMP JUMPDEST PUSH1 0x1F DUP3 GT ISZERO PUSH2 0x22AE JUMPI PUSH2 0x227F DUP2 PUSH2 0x214E JUMP JUMPDEST PUSH2 0x2288 DUP5 PUSH2 0x2163 JUMP JUMPDEST DUP2 ADD PUSH1 0x20 DUP6 LT ISZERO PUSH2 0x2297 JUMPI DUP2 SWAP1 POP JUMPDEST PUSH2 0x22AB PUSH2 0x22A3 DUP6 PUSH2 0x2163 JUMP JUMPDEST DUP4 ADD DUP3 PUSH2 0x224A JUMP JUMPDEST POP POP JUMPDEST POP POP POP JUMP JUMPDEST PUSH1 0x0 DUP3 DUP3 SHR SWAP1 POP SWAP3 SWAP2 POP POP JUMP JUMPDEST PUSH1 0x0 PUSH2 0x22D1 PUSH1 0x0 NOT DUP5 PUSH1 0x8 MUL PUSH2 0x22B3 JUMP JUMPDEST NOT DUP1 DUP4 AND SWAP2 POP POP SWAP3 SWAP2 POP POP JUMP JUMPDEST PUSH1 0x0 PUSH2 0x22EA DUP4 DUP4 PUSH2 0x22C0 JUMP JUMPDEST SWAP2 POP DUP3 PUSH1 0x2 MUL DUP3 OR SWAP1 POP SWAP3 SWAP2 POP POP JUMP JUMPDEST PUSH2 0x2303 DUP3 PUSH2 0x1AE1 JUMP JUMPDEST PUSH8 0xFFFFFFFFFFFFFFFF DUP2 GT ISZERO PUSH2 0x231C JUMPI PUSH2 0x231B PUSH2 0x1CCE JUMP JUMPDEST JUMPDEST PUSH2 0x2326 DUP3 SLOAD PUSH2 0x208B JUMP JUMPDEST PUSH2 0x2331 DUP3 DUP3 DUP6 PUSH2 0x226D JUMP JUMPDEST PUSH1 0x0 PUSH1 0x20 SWAP1 POP PUSH1 0x1F DUP4 GT PUSH1 0x1 DUP2 EQ PUSH2 0x2364 JUMPI PUSH1 0x0 DUP5 ISZERO PUSH2 0x2352 JUMPI DUP3 DUP8 ADD MLOAD SWAP1 POP JUMPDEST PUSH2 0x235C DUP6 DUP3 PUSH2 0x22DE JUMP JUMPDEST DUP7 SSTORE POP PUSH2 0x23C4 JUMP JUMPDEST PUSH1 0x1F NOT DUP5 AND PUSH2 0x2372 DUP7 PUSH2 0x214E JUMP JUMPDEST PUSH1 0x0 JUMPDEST DUP3 DUP2 LT ISZERO PUSH2 0x239A JUMPI DUP5 DUP10 ADD MLOAD DUP3 SSTORE PUSH1 0x1 DUP3 ADD SWAP2 POP PUSH1 0x20 DUP6 ADD SWAP5 POP PUSH1 0x20 DUP2 ADD SWAP1 POP PUSH2 0x2375 JUMP JUMPDEST DUP7 DUP4 LT ISZERO PUSH2 0x23B7 JUMPI DUP5 DUP10 ADD MLOAD PUSH2 0x23B3 PUSH1 0x1F DUP10 AND DUP3 PUSH2 0x22C0 JUMP JUMPDEST DUP4 SSTORE POP JUMPDEST PUSH1 0x1 PUSH1 0x2 DUP9 MUL ADD DUP9 SSTORE POP POP POP JUMPDEST POP POP POP POP POP POP JUMP JUMPDEST PUSH32 0x43616D706169676E2069732079657420746F20456E6400000000000000000000 PUSH1 0x0 DUP3 ADD MSTORE POP JUMP JUMPDEST PUSH1 0x0 PUSH2 0x2402 PUSH1 0x16 DUP4 PUSH2 0x1AEC JUMP JUMPDEST SWAP2 POP PUSH2 0x240D DUP3 PUSH2 0x23CC JUMP JUMPDEST PUSH1 0x20 DUP3 ADD SWAP1 POP SWAP2 SWAP1 POP JUMP JUMPDEST PUSH1 0x0 PUSH1 0x20 DUP3 ADD SWAP1 POP DUP2 DUP2 SUB PUSH1 0x0 DUP4 ADD MSTORE PUSH2 0x2431 DUP2 PUSH2 0x23F5 JUMP JUMPDEST SWAP1 POP SWAP2 SWAP1 POP JUMP JUMPDEST PUSH32 0x43616D706169676E2069732079657420746F2073746172740000000000000000 PUSH1 0x0 DUP3 ADD MSTORE POP JUMP JUMPDEST PUSH1 0x0 PUSH2 0x246E PUSH1 0x18 DUP4 PUSH2 0x1AEC JUMP JUMPDEST SWAP2 POP PUSH2 0x2479 DUP3 PUSH2 0x2438 JUMP JUMPDEST PUSH1 0x20 DUP3 ADD SWAP1 POP SWAP2 SWAP1 POP JUMP JUMPDEST PUSH1 0x0 PUSH1 0x20 DUP3 ADD SWAP1 POP DUP2 DUP2 SUB PUSH1 0x0 DUP4 ADD MSTORE PUSH2 0x249D DUP2 PUSH2 0x2461 JUMP JUMPDEST SWAP1 POP SWAP2 SWAP1 POP JUMP JUMPDEST PUSH32 0x4E487B7100000000000000000000000000000000000000000000000000000000 PUSH1 0x0 MSTORE PUSH1 0x32 PUSH1 0x4 MSTORE PUSH1 0x24 PUSH1 0x0 REVERT JUMPDEST PUSH1 0x0 DUP2 SLOAD SWAP1 POP PUSH2 0x24E2 DUP2 PUSH2 0x208B JUMP JUMPDEST SWAP1 POP SWAP2 SWAP1 POP JUMP JUMPDEST PUSH1 0x0 DUP2 SWAP1 POP DUP2 PUSH1 0x0 MSTORE PUSH1 0x20 PUSH1 0x0 KECCAK256 SWAP1 POP SWAP2 SWAP1 POP JUMP JUMPDEST DUP2 DUP2 SUB PUSH2 0x250C JUMPI POP POP PUSH2 0x25E4 JUMP JUMPDEST PUSH2 0x2515 DUP3 PUSH2 0x24D3 JUMP JUMPDEST PUSH8 0xFFFFFFFFFFFFFFFF DUP2 GT ISZERO PUSH2 0x252E JUMPI PUSH2 0x252D PUSH2 0x1CCE JUMP JUMPDEST JUMPDEST PUSH2 0x2538 DUP3 SLOAD PUSH2 0x208B JUMP JUMPDEST PUSH2 0x2543 DUP3 DUP3 DUP6 PUSH2 0x226D JUMP JUMPDEST PUSH1 0x0 PUSH1 0x1F DUP4 GT PUSH1 0x1 DUP2 EQ PUSH2 0x2572 JUMPI PUSH1 0x0 DUP5 ISZERO PUSH2 0x2560 JUMPI DUP3 DUP8 ADD SLOAD SWAP1 POP JUMPDEST PUSH2 0x256A DUP6 DUP3 PUSH2 0x22DE JUMP JUMPDEST DUP7 SSTORE POP PUSH2 0x25DD JUMP JUMPDEST PUSH1 0x1F NOT DUP5 AND PUSH2 0x2580 DUP8 PUSH2 0x24E9 JUMP JUMPDEST SWAP7 POP PUSH2 0x258B DUP7 PUSH2 0x214E JUMP JUMPDEST PUSH1 0x0 JUMPDEST DUP3 DUP2 LT ISZERO PUSH2 0x25B3 JUMPI DUP5 DUP10 ADD SLOAD DUP3 SSTORE PUSH1 0x1 DUP3 ADD SWAP2 POP PUSH1 0x1 DUP6 ADD SWAP5 POP PUSH1 0x20 DUP2 ADD SWAP1 POP PUSH2 0x258E JUMP JUMPDEST DUP7 DUP4 LT ISZERO PUSH2 0x25D0 JUMPI DUP5 DUP10 ADD SLOAD PUSH2 0x25CC PUSH1 0x1F DUP10 AND DUP3 PUSH2 0x22C0 JUMP JUMPDEST DUP4 SSTORE POP JUMPDEST PUSH1 0x1 PUSH1 0x2 DUP9 MUL ADD DUP9 SSTORE POP POP POP JUMPDEST POP POP POP POP POP POP JUMPDEST JUMP JUMPDEST PUSH32 0x4E487B7100000000000000000000000000000000000000000000000000000000 PUSH1 0x0 MSTORE PUSH1 0x11 PUSH1 0x4 MSTORE PUSH1 0x24 PUSH1 0x0 REVERT JUMPDEST PUSH1 0x0 PUSH2 0x2620 DUP3 PUSH2 0x1A3D JUMP JUMPDEST SWAP2 POP PUSH32 0xFFFFFFFFFFFFFFFFFFFFFFFFFFFFFFFFFFFFFFFFFFFFFFFFFFFFFFFFFFFFFFFF DUP3 SUB PUSH2 0x2652 JUMPI PUSH2 0x2651 PUSH2 0x25E6 JUMP JUMPDEST JUMPDEST PUSH1 0x1 DUP3 ADD SWAP1 POP SWAP2 SWAP1 POP JUMP JUMPDEST PUSH32 0x4E6F20737563682043616D706169676E00000000000000000000000000000000 PUSH1 0x0 DUP3 ADD MSTORE POP JUMP JUMPDEST PUSH1 0x0 PUSH2 0x2693 PUSH1 0x10 DUP4 PUSH2 0x1AEC JUMP JUMPDEST SWAP2 POP PUSH2 0x269E DUP3 PUSH2 0x265D JUMP JUMPDEST PUSH1 0x20 DUP3 ADD SWAP1 POP SWAP2 SWAP1 POP JUMP JUMPDEST PUSH1 0x0 PUSH1 0x20 DUP3 ADD SWAP1 POP DUP2 DUP2 SUB PUSH1 0x0 DUP4 ADD MSTORE PUSH2 0x26C2 DUP2 PUSH2 0x2686 JUMP JUMPDEST SWAP1 POP SWAP2 SWAP1 POP JUMP JUMPDEST PUSH32 0x43616D706169676E20646F656E206E6F74206578697374000000000000000000 PUSH1 0x0 DUP3 ADD MSTORE POP JUMP JUMPDEST PUSH1 0x0 PUSH2 0x26FF PUSH1 0x17 DUP4 PUSH2 0x1AEC JUMP JUMPDEST SWAP2 POP PUSH2 0x270A DUP3 PUSH2 0x26C9 JUMP JUMPDEST PUSH1 0x20 DUP3 ADD SWAP1 POP SWAP2 SWAP1 POP JUMP JUMPDEST PUSH1 0x0 PUSH1 0x20 DUP3 ADD SWAP1 POP DUP2 DUP2 SUB PUSH1 0x0 DUP4 ADD MSTORE PUSH2 0x272E DUP2 PUSH2 0x26F2 JUMP JUMPDEST SWAP1 POP SWAP2 SWAP1 POP JUMP JUMPDEST PUSH32 0x59657420746F2073746172740000000000000000000000000000000000000000 PUSH1 0x0 DUP3 ADD MSTORE POP JUMP JUMPDEST PUSH1 0x0 PUSH2 0x276B PUSH1 0xC DUP4 PUSH2 0x1AEC JUMP JUMPDEST SWAP2 POP PUSH2 0x2776 DUP3 PUSH2 0x2735 JUMP JUMPDEST PUSH1 0x20 DUP3 ADD SWAP1 POP SWAP2 SWAP1 POP JUMP JUMPDEST PUSH1 0x0 PUSH1 0x20 DUP3 ADD SWAP1 POP DUP2 DUP2 SUB PUSH1 0x0 DUP4 ADD MSTORE PUSH2 0x279A DUP2 PUSH2 0x275E JUMP JUMPDEST SWAP1 POP SWAP2 SWAP1 POP JUMP JUMPDEST PUSH32 0x43616D706169676E20456E646564000000000000000000000000000000000000 PUSH1 0x0 DUP3 ADD MSTORE POP JUMP JUMPDEST PUSH1 0x0 PUSH2 0x27D7 PUSH1 0xE DUP4 PUSH2 0x1AEC JUMP JUMPDEST SWAP2 POP PUSH2 0x27E2 DUP3 PUSH2 0x27A1 JUMP JUMPDEST PUSH1 0x20 DUP3 ADD SWAP1 POP SWAP2 SWAP1 POP JUMP JUMPDEST PUSH1 0x0 PUSH1 0x20 DUP3 ADD SWAP1 POP DUP2 DUP2 SUB PUSH1 0x0 DUP4 ADD MSTORE PUSH2 0x2806 DUP2 PUSH2 0x27CA JUMP JUMPDEST SWAP1 POP SWAP2 SWAP1 POP JUMP JUMPDEST PUSH32 0x63616E277420766F7465206D6F7265207468616E206F6E636500000000000000 PUSH1 0x0 DUP3 ADD MSTORE POP JUMP JUMPDEST PUSH1 0x0 PUSH2 0x2843 PUSH1 0x19 DUP4 PUSH2 0x1AEC JUMP JUMPDEST SWAP2 POP PUSH2 0x284E DUP3 PUSH2 0x280D JUMP JUMPDEST PUSH1 0x20 DUP3 ADD SWAP1 POP SWAP2 SWAP1 POP JUMP JUMPDEST PUSH1 0x0 PUSH1 0x20 DUP3 ADD SWAP1 POP DUP2 DUP2 SUB PUSH1 0x0 DUP4 ADD MSTORE PUSH2 0x2872 DUP2 PUSH2 0x2836 JUMP JUMPDEST SWAP1 POP SWAP2 SWAP1 POP JUMP JUMPDEST PUSH32 0x556E617574686F72697A656420746F20566F746520696E20746869732063616D PUSH1 0x0 DUP3 ADD MSTORE PUSH32 0x706169676E000000000000000000000000000000000000000000000000000000 PUSH1 0x20 DUP3 ADD MSTORE POP JUMP JUMPDEST PUSH1 0x0 PUSH2 0x28D5 PUSH1 0x25 DUP4 PUSH2 0x1AEC JUMP JUMPDEST SWAP2 POP PUSH2 0x28E0 DUP3 PUSH2 0x2879 JUMP JUMPDEST PUSH1 0x40 DUP3 ADD SWAP1 POP SWAP2 SWAP1 POP JUMP JUMPDEST PUSH1 0x0 PUSH1 0x20 DUP3 ADD SWAP1 POP DUP2 DUP2 SUB PUSH1 0x0 DUP4 ADD MSTORE PUSH2 0x2904 DUP2 PUSH2 0x28C8 JUMP JUMPDEST SWAP1 POP SWAP2 SWAP1 POP JUMP JUMPDEST PUSH1 0x0 PUSH2 0x2916 DUP3 PUSH2 0x1A3D JUMP JUMPDEST SWAP2 POP PUSH2 0x2921 DUP4 PUSH2 0x1A3D JUMP JUMPDEST SWAP3 POP DUP3 DUP3 SUB SWAP1 POP DUP2 DUP2 GT ISZERO PUSH2 0x2939 JUMPI PUSH2 0x2938 PUSH2 0x25E6 JUMP JUMPDEST JUMPDEST SWAP3 SWAP2 POP POP JUMP JUMPDEST PUSH1 0x0 PUSH2 0x294A DUP3 PUSH2 0x1A3D JUMP JUMPDEST SWAP2 POP PUSH2 0x2955 DUP4 PUSH2 0x1A3D JUMP JUMPDEST SWAP3 POP DUP3 DUP3 ADD SWAP1 POP DUP1 DUP3 GT ISZERO PUSH2 0x296D JUMPI PUSH2 0x296C PUSH2 0x25E6 JUMP JUMPDEST JUMPDEST SWAP3 SWAP2 POP POP JUMP JUMPDEST PUSH32 0x4172726179204F766572466C6F61740000000000000000000000000000000000 PUSH1 0x0 DUP3 ADD MSTORE POP JUMP JUMPDEST PUSH1 0x0 PUSH2 0x29A9 PUSH1 0xF DUP4 PUSH2 0x1AEC JUMP JUMPDEST SWAP2 POP PUSH2 0x29B4 DUP3 PUSH2 0x2973 JUMP JUMPDEST PUSH1 0x20 DUP3 ADD SWAP1 POP SWAP2 SWAP1 POP JUMP JUMPDEST PUSH1 0x0 PUSH1 0x20 DUP3 ADD SWAP1 POP DUP2 DUP2 SUB PUSH1 0x0 DUP4 ADD MSTORE PUSH2 0x29D8 DUP2 PUSH2 0x299C JUMP JUMPDEST SWAP1 POP SWAP2 SWAP1 POP JUMP JUMPDEST PUSH32 0x43616E7420706572666F6D2074686973206F7065726174696F6E206166746572 PUSH1 0x0 DUP3 ADD MSTORE PUSH32 0x20647572696E672063616D706169676E00000000000000000000000000000000 PUSH1 0x20 DUP3 ADD MSTORE POP JUMP JUMPDEST PUSH1 0x0 PUSH2 0x2A3B PUSH1 0x30 DUP4 PUSH2 0x1AEC JUMP JUMPDEST SWAP2 POP PUSH2 0x2A46 DUP3 PUSH2 0x29DF JUMP JUMPDEST PUSH1 0x40 DUP3 ADD SWAP1 POP SWAP2 SWAP1 POP JUMP JUMPDEST PUSH1 0x0 PUSH1 0x20 DUP3 ADD SWAP1 POP DUP2 DUP2 SUB PUSH1 0x0 DUP4 ADD MSTORE PUSH2 0x2A6A DUP2 PUSH2 0x2A2E JUMP JUMPDEST SWAP1 POP SWAP2 SWAP1 POP JUMP JUMPDEST PUSH32 0x5265737472696374656420746F204368616972706572736F6E00000000000000 PUSH1 0x0 DUP3 ADD MSTORE POP JUMP JUMPDEST PUSH1 0x0 PUSH2 0x2AA7 PUSH1 0x19 DUP4 PUSH2 0x1AEC JUMP JUMPDEST SWAP2 POP PUSH2 0x2AB2 DUP3 PUSH2 0x2A71 JUMP JUMPDEST PUSH1 0x20 DUP3 ADD SWAP1 POP SWAP2 SWAP1 POP JUMP JUMPDEST PUSH1 0x0 PUSH1 0x20 DUP3 ADD SWAP1 POP DUP2 DUP2 SUB PUSH1 0x0 DUP4 ADD MSTORE PUSH2 0x2AD6 DUP2 PUSH2 0x2A9A JUMP JUMPDEST SWAP1 POP SWAP2 SWAP1 POP JUMP JUMPDEST PUSH1 0x0 DUP2 SLOAD SWAP1 POP PUSH2 0x2AEC DUP2 PUSH2 0x208B JUMP JUMPDEST SWAP1 POP SWAP2 SWAP1 POP JUMP JUMPDEST DUP2 DUP2 SUB PUSH2 0x2B01 JUMPI POP POP PUSH2 0x2BD9 JUMP JUMPDEST PUSH2 0x2B0A DUP3 PUSH2 0x2ADD JUMP JUMPDEST PUSH8 0xFFFFFFFFFFFFFFFF DUP2 GT ISZERO PUSH2 0x2B23 JUMPI PUSH2 0x2B22 PUSH2 0x1CCE JUMP JUMPDEST JUMPDEST PUSH2 0x2B2D DUP3 SLOAD PUSH2 0x208B JUMP JUMPDEST PUSH2 0x2B38 DUP3 DUP3 DUP6 PUSH2 0x226D JUMP JUMPDEST PUSH1 0x0 PUSH1 0x1F DUP4 GT PUSH1 0x1 DUP2 EQ PUSH2 0x2B67 JUMPI PUSH1 0x0 DUP5 ISZERO PUSH2 0x2B55 JUMPI DUP3 DUP8 ADD SLOAD SWAP1 POP JUMPDEST PUSH2 0x2B5F DUP6 DUP3 PUSH2 0x22DE JUMP JUMPDEST DUP7 SSTORE POP PUSH2 0x2BD2 JUMP JUMPDEST PUSH1 0x1F NOT DUP5 AND PUSH2 0x2B75 DUP8 PUSH2 0x214E JUMP JUMPDEST SWAP7 POP PUSH2 0x2B80 DUP7 PUSH2 0x214E JUMP JUMPDEST PUSH1 0x0 JUMPDEST DUP3 DUP2 LT ISZERO PUSH2 0x2BA8 JUMPI DUP5 DUP10 ADD SLOAD DUP3 SSTORE PUSH1 0x1 DUP3 ADD SWAP2 POP PUSH1 0x1 DUP6 ADD SWAP5 POP PUSH1 0x20 DUP2 ADD SWAP1 POP PUSH2 0x2B83 JUMP JUMPDEST DUP7 DUP4 LT ISZERO PUSH2 0x2BC5 JUMPI DUP5 DUP10 ADD SLOAD PUSH2 0x2BC1 PUSH1 0x1F DUP10 AND DUP3 PUSH2 0x22C0 JUMP JUMPDEST DUP4 SSTORE POP JUMPDEST PUSH1 0x1 PUSH1 0x2 DUP9 MUL ADD DUP9 SSTORE POP POP POP JUMPDEST POP POP POP POP POP POP JUMPDEST JUMP JUMPDEST PUSH32 0x4E487B7100000000000000000000000000000000000000000000000000000000 PUSH1 0x0 MSTORE PUSH1 0x31 PUSH1 0x4 MSTORE PUSH1 0x24 PUSH1 0x0 REVERT JUMPDEST PUSH32 0x41646472657373206973206E6F742076616C6964000000000000000000000000 PUSH1 0x0 DUP3 ADD MSTORE POP JUMP JUMPDEST PUSH1 0x0 PUSH2 0x2C40 PUSH1 0x14 DUP4 PUSH2 0x1AEC JUMP JUMPDEST SWAP2 POP PUSH2 0x2C4B DUP3 PUSH2 0x2C0A JUMP JUMPDEST PUSH1 0x20 DUP3 ADD SWAP1 POP SWAP2 SWAP1 POP JUMP JUMPDEST PUSH1 0x0 PUSH1 0x20 DUP3 ADD SWAP1 POP DUP2 DUP2 SUB PUSH1 0x0 DUP4 ADD MSTORE PUSH2 0x2C6F DUP2 PUSH2 0x2C33 JUMP JUMPDEST SWAP1 POP SWAP2 SWAP1 POP JUMP JUMPDEST PUSH32 0x4F6E6C79204368616972706572736F6E206F6620746869732043616D70616967 PUSH1 0x0 DUP3 ADD MSTORE PUSH32 0x6E2063616E2063616C6C20746869732066756E6374696F6E0000000000000000 PUSH1 0x20 DUP3 ADD MSTORE POP JUMP JUMPDEST PUSH1 0x0 PUSH2 0x2CD2 PUSH1 0x38 DUP4 PUSH2 0x1AEC JUMP JUMPDEST SWAP2 POP PUSH2 0x2CDD DUP3 PUSH2 0x2C76 JUMP JUMPDEST PUSH1 0x40 DUP3 ADD SWAP1 POP SWAP2 SWAP1 POP JUMP JUMPDEST PUSH1 0x0 PUSH1 0x20 DUP3 ADD SWAP1 POP DUP2 DUP2 SUB PUSH1 0x0 DUP4 ADD MSTORE PUSH2 0x2D01 DUP2 PUSH2 0x2CC5 JUMP JUMPDEST SWAP1 POP SWAP2 SWAP1 POP JUMP JUMPDEST PUSH32 0x546869732043616D706169676E206973206E6F74207265737472696374656400 PUSH1 0x0 DUP3 ADD MSTORE POP JUMP JUMPDEST PUSH1 0x0 PUSH2 0x2D3E PUSH1 0x1F DUP4 PUSH2 0x1AEC JUMP JUMPDEST SWAP2 POP PUSH2 0x2D49 DUP3 PUSH2 0x2D08 JUMP JUMPDEST PUSH1 0x20 DUP3 ADD SWAP1 POP SWAP2 SWAP1 POP JUMP JUMPDEST PUSH1 0x0 PUSH1 0x20 DUP3 ADD SWAP1 POP DUP2 DUP2 SUB PUSH1 0x0 DUP4 ADD MSTORE PUSH2 0x2D6D DUP2 PUSH2 0x2D31 JUMP JUMPDEST SWAP1 POP SWAP2 SWAP1 POP JUMP JUMPDEST PUSH32 0x4475726174696F6E206D7573742062652067726561746572207468616E203173 PUSH1 0x0 DUP3 ADD MSTORE PUSH32 0x65636F6E64000000000000000000000000000000000000000000000000000000 PUSH1 0x20 DUP3 ADD MSTORE POP JUMP JUMPDEST PUSH1 0x0 PUSH2 0x2DD0 PUSH1 0x25 DUP4 PUSH2 0x1AEC JUMP JUMPDEST SWAP2 POP PUSH2 0x2DDB DUP3 PUSH2 0x2D74 JUMP JUMPDEST PUSH1 0x40 DUP3 ADD SWAP1 POP SWAP2 SWAP1 POP JUMP JUMPDEST PUSH1 0x0 PUSH1 0x20 DUP3 ADD SWAP1 POP DUP2 DUP2 SUB PUSH1 0x0 DUP4 ADD MSTORE PUSH2 0x2DFF DUP2 PUSH2 0x2DC3 JUMP JUMPDEST SWAP1 POP SWAP2 SWAP1 POP JUMP JUMPDEST PUSH32 0x54696D652068617320746F20626520667574757265206E6F7420706173740000 PUSH1 0x0 DUP3 ADD MSTORE POP JUMP JUMPDEST PUSH1 0x0 PUSH2 0x2E3C PUSH1 0x1E DUP4 PUSH2 0x1AEC JUMP JUMPDEST SWAP2 POP PUSH2 0x2E47 DUP3 PUSH2 0x2E06 JUMP JUMPDEST PUSH1 0x20 DUP3 ADD SWAP1 POP SWAP2 SWAP1 POP JUMP JUMPDEST PUSH1 0x0 PUSH1 0x20 DUP3 ADD SWAP1 POP DUP2 DUP2 SUB PUSH1 0x0 DUP4 ADD MSTORE PUSH2 0x2E6B DUP2 PUSH2 0x2E2F JUMP JUMPDEST SWAP1 POP SWAP2 SWAP1 POP JUMP JUMPDEST PUSH1 0x0 PUSH1 0xC0 DUP3 ADD SWAP1 POP DUP2 DUP2 SUB PUSH1 0x0 DUP4 ADD MSTORE PUSH2 0x2E8C DUP2 DUP10 PUSH2 0x1B38 JUMP JUMPDEST SWAP1 POP PUSH2 0x2E9B PUSH1 0x20 DUP4 ADD DUP9 PUSH2 0x1B7D JUMP JUMPDEST PUSH2 0x2EA8 PUSH1 0x40 DUP4 ADD DUP8 PUSH2 0x1B8C JUMP JUMPDEST PUSH2 0x2EB5 PUSH1 0x60 DUP4 ADD DUP7 PUSH2 0x1B8C JUMP JUMPDEST PUSH2 0x2EC2 PUSH1 0x80 DUP4 ADD DUP6 PUSH2 0x1B8C JUMP JUMPDEST PUSH2 0x2ECF PUSH1 0xA0 DUP4 ADD DUP5 PUSH2 0x1B8C JUMP JUMPDEST SWAP8 SWAP7 POP POP POP POP POP POP POP JUMP INVALID LOG2 PUSH5 0x6970667358 0x22 SLT KECCAK256 CALLCODE SWAP10 DUP9 0x24 PUSH19 0xDCBFDAC39767310878E8DE6803A0202F74F824 DUP5 0x5F LOG0 PUSH29 0xF7AEA9E64736F6C634300081200330000000000000000000000000000 "},"methodIdentifiers":{"CampaignByID(uint256)":"10d91123","addVoteOptions(uint256,string,string,uint256)":"338a4834","approveAddressToVote(uint256,address)":"d231c162","approvedVoterToCampaignID(uint256,address)":"2f9248a6","candidateToCampaignID(uint256,uint256)":"6a4a4209","deleteCandidate(uint256,uint256)":"cf4a6060","getCandidatesArrayLength(uint256)":"ded2d402","getTotalVotersInCampaign(uint256)":"a71a666b","getWinnerOfCampaign(uint256)":"5ef1a1aa","startCampaign(string,bool,uint256,uint256)":"e9e90e7b","totalCampaignID()":"3da90516","vote(uint256,uint256)":"b384abef","votedToCampaignID(uint256,address)":"2602600d","voterToCampaignID(uint256)":"713474ff","voters(uint256)":"da58c7d9"}}}}}